{
  "_format": "hh-sol-artifact-1",
  "contractName": "QapturLandMarketplace",
  "sourceName": "contracts/QapturLandMarketplace.sol",
  "abi": [
    {
      "inputs": [
        {
          "internalType": "address",
          "name": "_stateContractAddr",
          "type": "address"
        },
        {
          "internalType": "address",
          "name": "_erc20StableAddr",
          "type": "address"
        },
        {
          "internalType": "address",
          "name": "_projectWallet",
          "type": "address"
        }
      ],
      "stateMutability": "nonpayable",
      "type": "constructor"
    },
    {
      "anonymous": false,
      "inputs": [
        {
          "indexed": false,
          "internalType": "address",
          "name": "buyer",
          "type": "address"
        },
        {
          "indexed": false,
          "internalType": "uint256",
          "name": "projectId",
          "type": "uint256"
        },
        {
          "indexed": false,
          "internalType": "uint256",
          "name": "amount",
          "type": "uint256"
        }
      ],
      "name": "BoughtFromInitialSupply",
      "type": "event"
    },
    {
      "anonymous": false,
      "inputs": [
        {
          "indexed": false,
          "internalType": "address",
          "name": "seller",
          "type": "address"
        },
        {
          "indexed": false,
          "internalType": "address",
          "name": "buyer",
          "type": "address"
        },
        {
          "indexed": false,
          "internalType": "uint256",
          "name": "projectId",
          "type": "uint256"
        },
        {
          "indexed": false,
          "internalType": "uint256",
          "name": "amount",
          "type": "uint256"
        }
      ],
      "name": "BoughtOnMarketplace",
      "type": "event"
    },
    {
      "anonymous": false,
      "inputs": [
        {
          "indexed": false,
          "internalType": "address",
          "name": "seller",
          "type": "address"
        },
        {
          "indexed": false,
          "internalType": "uint256",
          "name": "projectId",
          "type": "uint256"
        },
        {
          "indexed": false,
          "internalType": "uint256",
          "name": "amount",
          "type": "uint256"
        },
        {
          "indexed": false,
          "internalType": "uint256",
          "name": "price",
          "type": "uint256"
        }
      ],
      "name": "ItemAddedToMarketplace",
      "type": "event"
    },
    {
      "anonymous": false,
      "inputs": [
        {
          "indexed": true,
          "internalType": "address",
          "name": "previousOwner",
          "type": "address"
        },
        {
          "indexed": true,
          "internalType": "address",
          "name": "newOwner",
          "type": "address"
        }
      ],
      "name": "OwnershipTransferred",
      "type": "event"
    },
    {
      "inputs": [
        {
          "internalType": "uint256",
          "name": "_projectId",
          "type": "uint256"
        },
        {
          "internalType": "uint256",
          "name": "_tokenAmount",
          "type": "uint256"
        },
        {
          "internalType": "uint256",
          "name": "_tokenPrice",
          "type": "uint256"
        }
      ],
      "name": "addItemToMarketplace",
      "outputs": [],
      "stateMutability": "nonpayable",
      "type": "function"
    },
    {
      "inputs": [
        {
          "internalType": "uint256",
          "name": "_projectId",
          "type": "uint256"
        },
        {
          "internalType": "uint256",
          "name": "_tokenAmount",
          "type": "uint256"
        }
      ],
      "name": "buyFromInitialSupply",
      "outputs": [],
      "stateMutability": "nonpayable",
      "type": "function"
    },
    {
      "inputs": [
        {
          "internalType": "address",
          "name": "_seller",
          "type": "address"
        },
        {
          "internalType": "uint256",
          "name": "_projectId",
          "type": "uint256"
        },
        {
          "internalType": "uint256",
          "name": "_tokenAmount",
          "type": "uint256"
        },
        {
          "internalType": "uint256",
          "name": "_price",
          "type": "uint256"
        }
      ],
      "name": "buyFromMarketplace",
      "outputs": [],
      "stateMutability": "nonpayable",
      "type": "function"
    },
    {
      "inputs": [
        {
          "internalType": "uint256",
          "name": "_projetId",
          "type": "uint256"
        }
      ],
      "name": "getProjectItemsOnSale",
      "outputs": [
        {
          "components": [
            {
              "internalType": "address payable",
              "name": "seller",
              "type": "address"
            },
            {
              "internalType": "uint256",
              "name": "amount",
              "type": "uint256"
            },
            {
              "internalType": "uint256",
              "name": "price",
              "type": "uint256"
            }
          ],
          "internalType": "struct QapturLandMarketplace.OnSaleToken[]",
          "name": "",
          "type": "tuple[]"
        }
      ],
      "stateMutability": "view",
      "type": "function"
    },
    {
      "inputs": [],
      "name": "owner",
      "outputs": [
        {
          "internalType": "address",
          "name": "",
          "type": "address"
        }
      ],
      "stateMutability": "view",
      "type": "function"
    },
    {
      "inputs": [],
      "name": "renounceOwnership",
      "outputs": [],
      "stateMutability": "nonpayable",
      "type": "function"
    },
    {
      "inputs": [
        {
          "internalType": "address",
          "name": "newOwner",
          "type": "address"
        }
      ],
      "name": "transferOwnership",
      "outputs": [],
      "stateMutability": "nonpayable",
      "type": "function"
    }
  ],
  "bytecode": "0x60806040523480156200001157600080fd5b50604051620022a2380380620022a2833981810160405281019062000037919062000259565b620000576200004b6200012360201b60201c565b6200012b60201b60201c565b82600160006101000a81548173ffffffffffffffffffffffffffffffffffffffff021916908373ffffffffffffffffffffffffffffffffffffffff16021790555081600260006101000a81548173ffffffffffffffffffffffffffffffffffffffff021916908373ffffffffffffffffffffffffffffffffffffffff16021790555080600360006101000a81548173ffffffffffffffffffffffffffffffffffffffff021916908373ffffffffffffffffffffffffffffffffffffffff160217905550505050620002b5565b600033905090565b60008060009054906101000a900473ffffffffffffffffffffffffffffffffffffffff169050816000806101000a81548173ffffffffffffffffffffffffffffffffffffffff021916908373ffffffffffffffffffffffffffffffffffffffff1602179055508173ffffffffffffffffffffffffffffffffffffffff168173ffffffffffffffffffffffffffffffffffffffff167f8be0079c531659141344cd1fd0a4f28419497f9722a3daafe3b4186f6b6457e060405160405180910390a35050565b600080fd5b600073ffffffffffffffffffffffffffffffffffffffff82169050919050565b60006200022182620001f4565b9050919050565b620002338162000214565b81146200023f57600080fd5b50565b600081519050620002538162000228565b92915050565b600080600060608486031215620002755762000274620001ef565b5b6000620002858682870162000242565b9350506020620002988682870162000242565b9250506040620002ab8682870162000242565b9150509250925092565b611fdd80620002c56000396000f3fe608060405234801561001057600080fd5b506004361061007d5760003560e01c806383f190be1161005b57806383f190be146100d85780638da5cb5b146100f4578063dd0d97eb14610112578063f2fde38b1461012e5761007d565b80633b40cfc514610082578063715018a61461009e578063739952e1146100a8575b600080fd5b61009c60048036038101906100979190611219565b61014a565b005b6100a66103c6565b005b6100c260048036038101906100bd919061126c565b6103da565b6040516100cf91906113da565b60405180910390f35b6100f260048036038101906100ed919061143a565b6104b6565b005b6100fc6109d0565b60405161010991906114b0565b60405180910390f35b61012c600480360381019061012791906114cb565b6109f9565b005b6101486004803603810190610143919061150b565b610df7565b005b6000600160009054906101000a900473ffffffffffffffffffffffffffffffffffffffff1673ffffffffffffffffffffffffffffffffffffffff1663107046bd856040518263ffffffff1660e01b81526004016101a79190611547565b600060405180830381865afa1580156101c4573d6000803e3d6000fd5b505050506040513d6000823e3d601f19601f820116820180604052508101906101ed91906116ed565b50505050505090506000819050838173ffffffffffffffffffffffffffffffffffffffff1662fdd58e3360006040518363ffffffff1660e01b81526004016102369291906117f0565b602060405180830381865afa158015610253573d6000803e3d6000fd5b505050506040513d601f19601f820116820180604052508101906102779190611819565b10156102b8576040517f08c379a00000000000000000000000000000000000000000000000000000000081526004016102af906118a3565b60405180910390fd5b6005600086815260200190815260200160002060405180606001604052803373ffffffffffffffffffffffffffffffffffffffff16815260200186815260200185815250908060018154018082558091505060019003906000526020600020906003020160009091909190915060008201518160000160006101000a81548173ffffffffffffffffffffffffffffffffffffffff021916908373ffffffffffffffffffffffffffffffffffffffff160217905550602082015181600101556040820151816002015550507fb0ae07191c7f184a346db81754a440a79cacf53ca2df649330f21162b3d01de7338686866040516103b794939291906118c3565b60405180910390a15050505050565b6103ce610e7a565b6103d86000610ef8565b565b606060056000838152602001908152602001600020805480602002602001604051908101604052809291908181526020016000905b828210156104ab57838290600052602060002090600302016040518060600160405290816000820160009054906101000a900473ffffffffffffffffffffffffffffffffffffffff1673ffffffffffffffffffffffffffffffffffffffff1673ffffffffffffffffffffffffffffffffffffffff168152602001600182015481526020016002820154815250508152602001906001019061040f565b505050509050919050565b6000600160009054906101000a900473ffffffffffffffffffffffffffffffffffffffff1673ffffffffffffffffffffffffffffffffffffffff1663107046bd856040518263ffffffff1660e01b81526004016105139190611547565b600060405180830381865afa158015610530573d6000803e3d6000fd5b505050506040513d6000823e3d601f19601f8201168201806040525081019061055991906116ed565b50505050505090506000819050838173ffffffffffffffffffffffffffffffffffffffff1662fdd58e8860006040518363ffffffff1660e01b81526004016105a29291906117f0565b602060405180830381865afa1580156105bf573d6000803e3d6000fd5b505050506040513d601f19601f820116820180604052508101906105e39190611819565b1015610624576040517f08c379a000000000000000000000000000000000000000000000000000000000815260040161061b906118a3565b60405180910390fd5b6000610631868886610fbc565b9050600060056000888152602001908152602001600020828154811061065a57610659611908565b5b9060005260206000209060030201600101549050858110156106b1576040517f08c379a00000000000000000000000000000000000000000000000000000000081526004016106a890611983565b60405180910390fd5b6106c7878388846106c291906119d2565b611109565b50600085876106d69190611a06565b905080600260009054906101000a900473ffffffffffffffffffffffffffffffffffffffff1673ffffffffffffffffffffffffffffffffffffffff1663dd62ed3e33306040518363ffffffff1660e01b8152600401610736929190611a48565b602060405180830381865afa158015610753573d6000803e3d6000fd5b505050506040513d601f19601f820116820180604052508101906107779190611819565b10156107b8576040517f08c379a00000000000000000000000000000000000000000000000000000000081526004016107af90611abd565b60405180910390fd5b600260009054906101000a900473ffffffffffffffffffffffffffffffffffffffff1673ffffffffffffffffffffffffffffffffffffffff166323b872dd338b846040518463ffffffff1660e01b815260040161081793929190611add565b6020604051808303816000875af1158015610836573d6000803e3d6000fd5b505050506040513d601f19601f8201168201806040525081019061085a9190611b4c565b508373ffffffffffffffffffffffffffffffffffffffff1663e985e9c58a306040518363ffffffff1660e01b8152600401610896929190611a48565b602060405180830381865afa1580156108b3573d6000803e3d6000fd5b505050506040513d601f19601f820116820180604052508101906108d79190611b4c565b610916576040517f08c379a000000000000000000000000000000000000000000000000000000000815260040161090d90611bc5565b60405180910390fd5b8373ffffffffffffffffffffffffffffffffffffffff1663f242432a8a3360008b6040518563ffffffff1660e01b81526004016109569493929190611c42565b600060405180830381600087803b15801561097057600080fd5b505af1158015610984573d6000803e3d6000fd5b505050507f35e8eaeee3721465d28a902507569dd7f16551cb5fb043860c4f69d7e8f64a2089338a8a6040516109bd9493929190611c9a565b60405180910390a1505050505050505050565b60008060009054906101000a900473ffffffffffffffffffffffffffffffffffffffff16905090565b600080600080600160009054906101000a900473ffffffffffffffffffffffffffffffffffffffff1673ffffffffffffffffffffffffffffffffffffffff1663107046bd876040518263ffffffff1660e01b8152600401610a5a9190611547565b600060405180830381865afa158015610a77573d6000803e3d6000fd5b505050506040513d6000823e3d601f19601f82011682018060405250810190610aa091906116ed565b505094509450945050935084821015610aee576040517f08c379a0000000000000000000000000000000000000000000000000000000008152600401610ae590611d2b565b60405180910390fd5b600160009054906101000a900473ffffffffffffffffffffffffffffffffffffffff1673ffffffffffffffffffffffffffffffffffffffff166385ac7381878785610b3991906119d2565b6040518363ffffffff1660e01b8152600401610b56929190611d4b565b600060405180830381600087803b158015610b7057600080fd5b505af1158015610b84573d6000803e3d6000fd5b5050505060008186610b969190611a06565b905080600260009054906101000a900473ffffffffffffffffffffffffffffffffffffffff1673ffffffffffffffffffffffffffffffffffffffff1663dd62ed3e33306040518363ffffffff1660e01b8152600401610bf6929190611a48565b602060405180830381865afa158015610c13573d6000803e3d6000fd5b505050506040513d601f19601f82011682018060405250810190610c379190611819565b1015610c78576040517f08c379a0000000000000000000000000000000000000000000000000000000008152600401610c6f90611abd565b60405180910390fd5b600260009054906101000a900473ffffffffffffffffffffffffffffffffffffffff1673ffffffffffffffffffffffffffffffffffffffff166323b872dd33600360009054906101000a900473ffffffffffffffffffffffffffffffffffffffff16846040518463ffffffff1660e01b8152600401610cf993929190611add565b6020604051808303816000875af1158015610d18573d6000803e3d6000fd5b505050506040513d601f19601f82011682018060405250810190610d3c9190611b4c565b5060008590508073ffffffffffffffffffffffffffffffffffffffff1663731133e93360008a6040518463ffffffff1660e01b8152600401610d8093929190611d74565b600060405180830381600087803b158015610d9a57600080fd5b505af1158015610dae573d6000803e3d6000fd5b505050507f1f0cd4ea7e1fb87326974cdcb1e3aec41ffeeb234553989f6b1c8732c0f23092338989604051610de593929190611dbe565b60405180910390a15050505050505050565b610dff610e7a565b600073ffffffffffffffffffffffffffffffffffffffff168173ffffffffffffffffffffffffffffffffffffffff1603610e6e576040517f08c379a0000000000000000000000000000000000000000000000000000000008152600401610e6590611e67565b60405180910390fd5b610e7781610ef8565b50565b610e826111c7565b73ffffffffffffffffffffffffffffffffffffffff16610ea06109d0565b73ffffffffffffffffffffffffffffffffffffffff1614610ef6576040517f08c379a0000000000000000000000000000000000000000000000000000000008152600401610eed90611ed3565b60405180910390fd5b565b60008060009054906101000a900473ffffffffffffffffffffffffffffffffffffffff169050816000806101000a81548173ffffffffffffffffffffffffffffffffffffffff021916908373ffffffffffffffffffffffffffffffffffffffff1602179055508173ffffffffffffffffffffffffffffffffffffffff168173ffffffffffffffffffffffffffffffffffffffff167f8be0079c531659141344cd1fd0a4f28419497f9722a3daafe3b4186f6b6457e060405160405180910390a35050565b6000805b6005600060018152602001908152602001600020805490508110156110c6578373ffffffffffffffffffffffffffffffffffffffff1660056000878152602001908152602001600020828154811061101b5761101a611908565b5b906000526020600020906003020160000160009054906101000a900473ffffffffffffffffffffffffffffffffffffffff1673ffffffffffffffffffffffffffffffffffffffff161480156110a557508260056000878152602001908152602001600020828154811061109157611090611908565b5b906000526020600020906003020160020154145b156110b35780915050611102565b80806110be90611ef3565b915050610fc0565b506040517f08c379a00000000000000000000000000000000000000000000000000000000081526004016110f990611f87565b60405180910390fd5b9392505050565b60008082036111845760056000858152602001908152602001600020838154811061113757611136611908565b5b9060005260206000209060030201600080820160006101000a81549073ffffffffffffffffffffffffffffffffffffffff02191690556001820160009055600282016000905550506111c0565b816005600086815260200190815260200160002084815481106111aa576111a9611908565b5b9060005260206000209060030201600101819055505b9392505050565b600033905090565b6000604051905090565b600080fd5b600080fd5b6000819050919050565b6111f6816111e3565b811461120157600080fd5b50565b600081359050611213816111ed565b92915050565b600080600060608486031215611232576112316111d9565b5b600061124086828701611204565b935050602061125186828701611204565b925050604061126286828701611204565b9150509250925092565b600060208284031215611282576112816111d9565b5b600061129084828501611204565b91505092915050565b600081519050919050565b600082825260208201905092915050565b6000819050602082019050919050565b600073ffffffffffffffffffffffffffffffffffffffff82169050919050565b60006112f0826112c5565b9050919050565b611300816112e5565b82525050565b61130f816111e3565b82525050565b60608201600082015161132b60008501826112f7565b50602082015161133e6020850182611306565b5060408201516113516040850182611306565b50505050565b60006113638383611315565b60608301905092915050565b6000602082019050919050565b600061138782611299565b61139181856112a4565b935061139c836112b5565b8060005b838110156113cd5781516113b48882611357565b97506113bf8361136f565b9250506001810190506113a0565b5085935050505092915050565b600060208201905081810360008301526113f4818461137c565b905092915050565b6000611407826112c5565b9050919050565b611417816113fc565b811461142257600080fd5b50565b6000813590506114348161140e565b92915050565b60008060008060808587031215611454576114536111d9565b5b600061146287828801611425565b945050602061147387828801611204565b935050604061148487828801611204565b925050606061149587828801611204565b91505092959194509250565b6114aa816113fc565b82525050565b60006020820190506114c560008301846114a1565b92915050565b600080604083850312156114e2576114e16111d9565b5b60006114f085828601611204565b925050602061150185828601611204565b9150509250929050565b600060208284031215611521576115206111d9565b5b600061152f84828501611425565b91505092915050565b611541816111e3565b82525050565b600060208201905061155c6000830184611538565b92915050565b6000815190506115718161140e565b92915050565b600081519050611586816111ed565b92915050565b600080fd5b600080fd5b6000601f19601f8301169050919050565b7f4e487b7100000000000000000000000000000000000000000000000000000000600052604160045260246000fd5b6115df82611596565b810181811067ffffffffffffffff821117156115fe576115fd6115a7565b5b80604052505050565b60006116116111cf565b905061161d82826115d6565b919050565b600067ffffffffffffffff82111561163d5761163c6115a7565b5b61164682611596565b9050602081019050919050565b60005b83811015611671578082015181840152602081019050611656565b60008484015250505050565b600061169061168b84611622565b611607565b9050828152602081018484840111156116ac576116ab611591565b5b6116b7848285611653565b509392505050565b600082601f8301126116d4576116d361158c565b5b81516116e484826020860161167d565b91505092915050565b600080600080600080600060e0888a03121561170c5761170b6111d9565b5b600061171a8a828b01611562565b975050602061172b8a828b01611562565b965050604061173c8a828b01611577565b955050606061174d8a828b01611577565b945050608061175e8a828b01611577565b93505060a061176f8a828b01611577565b92505060c088015167ffffffffffffffff8111156117905761178f6111de565b5b61179c8a828b016116bf565b91505092959891949750929550565b6000819050919050565b6000819050919050565b60006117da6117d56117d0846117ab565b6117b5565b6111e3565b9050919050565b6117ea816117bf565b82525050565b600060408201905061180560008301856114a1565b61181260208301846117e1565b9392505050565b60006020828403121561182f5761182e6111d9565b5b600061183d84828501611577565b91505092915050565b600082825260208201905092915050565b7f496e73756666696369656e742073656c6c65722062616c616e63650000000000600082015250565b600061188d601b83611846565b915061189882611857565b602082019050919050565b600060208201905081810360008301526118bc81611880565b9050919050565b60006080820190506118d860008301876114a1565b6118e56020830186611538565b6118f26040830185611538565b6118ff6060830184611538565b95945050505050565b7f4e487b7100000000000000000000000000000000000000000000000000000000600052603260045260246000fd5b7f526571756573746564207175616e74697479206e6f7420617661696c61626c65600082015250565b600061196d602083611846565b915061197882611937565b602082019050919050565b6000602082019050818103600083015261199c81611960565b9050919050565b7f4e487b7100000000000000000000000000000000000000000000000000000000600052601160045260246000fd5b60006119dd826111e3565b91506119e8836111e3565b9250828203905081811115611a00576119ff6119a3565b5b92915050565b6000611a11826111e3565b9150611a1c836111e3565b9250828202611a2a816111e3565b91508282048414831517611a4157611a406119a3565b5b5092915050565b6000604082019050611a5d60008301856114a1565b611a6a60208301846114a1565b9392505050565b7f496e73756666696369656e7420616c6c6f77616e636500000000000000000000600082015250565b6000611aa7601683611846565b9150611ab282611a71565b602082019050919050565b60006020820190508181036000830152611ad681611a9a565b9050919050565b6000606082019050611af260008301866114a1565b611aff60208301856114a1565b611b0c6040830184611538565b949350505050565b60008115159050919050565b611b2981611b14565b8114611b3457600080fd5b50565b600081519050611b4681611b20565b92915050565b600060208284031215611b6257611b616111d9565b5b6000611b7084828501611b37565b91505092915050565b7f4d697373696e6720617070726f76616c00000000000000000000000000000000600082015250565b6000611baf601083611846565b9150611bba82611b79565b602082019050919050565b60006020820190508181036000830152611bde81611ba2565b9050919050565b600082825260208201905092915050565b7f3078300000000000000000000000000000000000000000000000000000000000600082015250565b6000611c2c600383611be5565b9150611c3782611bf6565b602082019050919050565b600060a082019050611c5760008301876114a1565b611c6460208301866114a1565b611c7160408301856117e1565b611c7e6060830184611538565b8181036080830152611c8f81611c1f565b905095945050505050565b6000608082019050611caf60008301876114a1565b611cbc60208301866114a1565b611cc96040830185611538565b611cd66060830184611538565b95945050505050565b7f496e73756666696369656e7420737570706c7900000000000000000000000000600082015250565b6000611d15601383611846565b9150611d2082611cdf565b602082019050919050565b60006020820190508181036000830152611d4481611d08565b9050919050565b6000604082019050611d606000830185611538565b611d6d6020830184611538565b9392505050565b6000608082019050611d8960008301866114a1565b611d9660208301856117e1565b611da36040830184611538565b8181036060830152611db481611c1f565b9050949350505050565b6000606082019050611dd360008301866114a1565b611de06020830185611538565b611ded6040830184611538565b949350505050565b7f4f776e61626c653a206e6577206f776e657220697320746865207a65726f206160008201527f6464726573730000000000000000000000000000000000000000000000000000602082015250565b6000611e51602683611846565b9150611e5c82611df5565b604082019050919050565b60006020820190508181036000830152611e8081611e44565b9050919050565b7f4f776e61626c653a2063616c6c6572206973206e6f7420746865206f776e6572600082015250565b6000611ebd602083611846565b9150611ec882611e87565b602082019050919050565b60006020820190508181036000830152611eec81611eb0565b9050919050565b6000611efe826111e3565b91507fffffffffffffffffffffffffffffffffffffffffffffffffffffffffffffffff8203611f3057611f2f6119a3565b5b600182019050919050565b7f496e646578206e6f7420666f756e640000000000000000000000000000000000600082015250565b6000611f71600f83611846565b9150611f7c82611f3b565b602082019050919050565b60006020820190508181036000830152611fa081611f64565b905091905056fea264697066735822122027814e0dcee6ddd7528254109c0bcac7390f9497ad80165836cc56cbfe9a23fa64736f6c63430008120033",
  "linkReferences": {},
  "deployedLinkReferences": {}
}