{
  "_format": "hh-sol-artifact-1",
  "contractName": "QapturState",
  "sourceName": "contracts/QapturState.sol",
  "abi": [
    {
      "anonymous": false,
      "inputs": [
        {
          "indexed": false,
          "internalType": "uint256",
          "name": "projectId",
          "type": "uint256"
        },
        {
          "indexed": false,
          "internalType": "uint256",
          "name": "supply",
          "type": "uint256"
        }
      ],
      "name": "AvailableSupplyUpdated",
      "type": "event"
    },
    {
      "anonymous": false,
      "inputs": [
        {
          "indexed": false,
          "internalType": "string",
          "name": "name",
          "type": "string"
        },
        {
          "indexed": false,
          "internalType": "address",
          "name": "contractAddr",
          "type": "address"
        }
      ],
      "name": "ContractAdressUpdated",
      "type": "event"
    },
    {
      "anonymous": false,
      "inputs": [
        {
          "indexed": false,
          "internalType": "uint256",
          "name": "id",
          "type": "uint256"
        },
        {
          "indexed": false,
          "internalType": "address",
          "name": "qlandAddr",
          "type": "address"
        },
        {
          "indexed": false,
          "internalType": "address",
          "name": "qco2Addr",
          "type": "address"
        },
        {
          "indexed": false,
          "internalType": "uint256",
          "name": "supply",
          "type": "uint256"
        },
        {
          "indexed": false,
          "internalType": "uint256",
          "name": "price",
          "type": "uint256"
        }
      ],
      "name": "NewProjectDeployed",
      "type": "event"
    },
    {
      "anonymous": false,
      "inputs": [
        {
          "indexed": true,
          "internalType": "address",
          "name": "previousOwner",
          "type": "address"
        },
        {
          "indexed": true,
          "internalType": "address",
          "name": "newOwner",
          "type": "address"
        }
      ],
      "name": "OwnershipTransferred",
      "type": "event"
    },
    {
      "anonymous": false,
      "inputs": [
        {
          "indexed": false,
          "internalType": "uint256",
          "name": "projectId",
          "type": "uint256"
        },
        {
          "indexed": false,
          "internalType": "uint256",
          "name": "price",
          "type": "uint256"
        }
      ],
      "name": "PriceUpdated",
      "type": "event"
    },
    {
      "anonymous": false,
      "inputs": [
        {
          "indexed": false,
          "internalType": "uint256",
          "name": "projectId",
          "type": "uint256"
        },
        {
          "indexed": false,
          "internalType": "string",
          "name": "url",
          "type": "string"
        }
      ],
      "name": "UrlUpdated",
      "type": "event"
    },
    {
      "inputs": [
        {
          "internalType": "address",
          "name": "_qlandAddr",
          "type": "address"
        },
        {
          "internalType": "address",
          "name": "_qco2Addr",
          "type": "address"
        },
        {
          "internalType": "uint256",
          "name": "_qlandTotalSupply",
          "type": "uint256"
        },
        {
          "internalType": "uint256",
          "name": "_qlandPrice",
          "type": "uint256"
        },
        {
          "internalType": "string",
          "name": "_jsonUrl",
          "type": "string"
        }
      ],
      "name": "addProjectData",
      "outputs": [],
      "stateMutability": "nonpayable",
      "type": "function"
    },
    {
      "inputs": [
        {
          "internalType": "uint256",
          "name": "_projectId",
          "type": "uint256"
        }
      ],
      "name": "getAvailableSupply",
      "outputs": [
        {
          "internalType": "uint256",
          "name": "",
          "type": "uint256"
        }
      ],
      "stateMutability": "view",
      "type": "function"
    },
    {
      "inputs": [],
      "name": "getQlandMarketplaceAddress",
      "outputs": [
        {
          "internalType": "address",
          "name": "",
          "type": "address"
        }
      ],
      "stateMutability": "view",
      "type": "function"
    },
    {
      "inputs": [
        {
          "internalType": "uint256",
          "name": "_projectId",
          "type": "uint256"
        }
      ],
      "name": "getUrl",
      "outputs": [
        {
          "internalType": "string",
          "name": "",
          "type": "string"
        }
      ],
      "stateMutability": "view",
      "type": "function"
    },
    {
      "inputs": [],
      "name": "owner",
      "outputs": [
        {
          "internalType": "address",
          "name": "",
          "type": "address"
        }
      ],
      "stateMutability": "view",
      "type": "function"
    },
    {
      "inputs": [
        {
          "internalType": "uint256",
          "name": "",
          "type": "uint256"
        }
      ],
      "name": "projects",
      "outputs": [
        {
          "internalType": "address",
          "name": "qlandAddr",
          "type": "address"
        },
        {
          "internalType": "address",
          "name": "qco2Addr",
          "type": "address"
        },
        {
          "internalType": "uint256",
          "name": "totalSupply",
          "type": "uint256"
        },
        {
          "internalType": "uint256",
          "name": "availableSupply",
          "type": "uint256"
        },
        {
          "internalType": "uint256",
          "name": "price",
          "type": "uint256"
        },
        {
          "internalType": "uint256",
          "name": "lastDistribution",
          "type": "uint256"
        },
        {
          "internalType": "string",
          "name": "url",
          "type": "string"
        }
      ],
      "stateMutability": "view",
      "type": "function"
    },
    {
      "inputs": [],
      "name": "renounceOwnership",
      "outputs": [],
      "stateMutability": "nonpayable",
      "type": "function"
    },
    {
      "inputs": [
        {
          "internalType": "address",
          "name": "_contractAddr",
          "type": "address"
        }
      ],
      "name": "setFactoryAddress",
      "outputs": [],
      "stateMutability": "nonpayable",
      "type": "function"
    },
    {
      "inputs": [
        {
          "internalType": "address",
          "name": "_contractAddr",
          "type": "address"
        }
      ],
      "name": "setQlandMarketplaceAddress",
      "outputs": [],
      "stateMutability": "nonpayable",
      "type": "function"
    },
    {
      "inputs": [
        {
          "internalType": "address",
          "name": "_contractAddr",
          "type": "address"
        }
      ],
      "name": "setRewardAddress",
      "outputs": [],
      "stateMutability": "nonpayable",
      "type": "function"
    },
    {
      "inputs": [
        {
          "internalType": "address",
          "name": "newOwner",
          "type": "address"
        }
      ],
      "name": "transferOwnership",
      "outputs": [],
      "stateMutability": "nonpayable",
      "type": "function"
    },
    {
      "inputs": [
        {
          "internalType": "uint256",
          "name": "_projectId",
          "type": "uint256"
        },
        {
          "internalType": "uint256",
          "name": "_newValue",
          "type": "uint256"
        }
      ],
      "name": "updateAvailableSupply",
      "outputs": [],
      "stateMutability": "nonpayable",
      "type": "function"
    },
    {
      "inputs": [
        {
          "internalType": "uint256",
          "name": "_projectId",
          "type": "uint256"
        },
        {
          "internalType": "uint256",
          "name": "_newValue",
          "type": "uint256"
        }
      ],
      "name": "updatePrice",
      "outputs": [],
      "stateMutability": "nonpayable",
      "type": "function"
    },
    {
      "inputs": [
        {
          "internalType": "uint256",
          "name": "_projectId",
          "type": "uint256"
        },
        {
          "internalType": "string",
          "name": "_newUrl",
          "type": "string"
        }
      ],
      "name": "updateUrl",
      "outputs": [],
      "stateMutability": "nonpayable",
      "type": "function"
    }
  ],
  "bytecode": "0x608060405234801561001057600080fd5b5061002d61002261003260201b60201c565b61003a60201b60201c565b6100fe565b600033905090565b60008060009054906101000a900473ffffffffffffffffffffffffffffffffffffffff169050816000806101000a81548173ffffffffffffffffffffffffffffffffffffffff021916908373ffffffffffffffffffffffffffffffffffffffff1602179055508173ffffffffffffffffffffffffffffffffffffffff168173ffffffffffffffffffffffffffffffffffffffff167f8be0079c531659141344cd1fd0a4f28419497f9722a3daafe3b4186f6b6457e060405160405180910390a35050565b611d0e8061010d6000396000f3fe608060405234801561001057600080fd5b50600436106100ea5760003560e01c806382367b2d1161008c57806385ac73811161006657806385ac7381146102375780638da5cb5b14610253578063f2fde38b14610271578063f47448b31461028d576100ea565b806382367b2d146101cf57806383c17c55146101eb57806385604d8914610207576100ea565b80635e00e679116100c85780635e00e6791461015d578063715018a6146101795780637b734485146101835780638051522d1461019f576100ea565b80630aecb734146100ef578063107046bd1461010b5780632244e38a14610141575b600080fd5b610109600480360381019061010491906110f1565b6102ab565b005b61012560048036038101906101209190611151565b61039d565b604051610138979695949392919061125e565b60405180910390f35b61015b60048036038101906101569190611300565b6104a7565b005b6101776004803603810190610172919061139a565b61071e565b005b610181610868565b005b61019d6004803603810190610198919061139a565b61087c565b005b6101b960048036038101906101b49190611151565b6109c6565b6040516101c691906113c7565b60405180910390f35b6101e960048036038101906101e491906113e2565b6109e6565b005b6102056004803603810190610200919061139a565b610aca565b005b610221600480360381019061021c9190611151565b610c14565b60405161022e9190611422565b60405180910390f35b610251600480360381019061024c91906113e2565b610cbc565b005b61025b610da0565b6040516102689190611444565b60405180910390f35b61028b6004803603810190610286919061139a565b610dc9565b005b610295610e4c565b6040516102a29190611444565b60405180910390f35b600460003373ffffffffffffffffffffffffffffffffffffffff1673ffffffffffffffffffffffffffffffffffffffff16815260200190815260200160002060009054906101000a900460ff16610337576040517f08c379a000000000000000000000000000000000000000000000000000000000815260040161032e906114ab565b60405180910390fd5b818160056000868152602001908152602001600020600601918261035c929190611711565b507fa8307a7548d7e5f377e0fb6b0b19afc9d31f4e4f7f3c130f1e306d81f54dc6e48383836040516103909392919061181d565b60405180910390a1505050565b60056020528060005260406000206000915090508060000160009054906101000a900473ffffffffffffffffffffffffffffffffffffffff16908060010160009054906101000a900473ffffffffffffffffffffffffffffffffffffffff169080600201549080600301549080600401549080600501549080600601805461042490611534565b80601f016020809104026020016040519081016040528092919081815260200182805461045090611534565b801561049d5780601f106104725761010080835404028352916020019161049d565b820191906000526020600020905b81548152906001019060200180831161048057829003601f168201915b5050505050905087565b600460003373ffffffffffffffffffffffffffffffffffffffff1673ffffffffffffffffffffffffffffffffffffffff16815260200190815260200160002060009054906101000a900460ff16610533576040517f08c379a000000000000000000000000000000000000000000000000000000000815260040161052a906114ab565b60405180910390fd5b600160066000828254610546919061187e565b925050819055506040518060e001604052808773ffffffffffffffffffffffffffffffffffffffff1681526020018673ffffffffffffffffffffffffffffffffffffffff1681526020018581526020018581526020018481526020016000815260200183838080601f016020809104026020016040519081016040528093929190818152602001838380828437600081840152601f19601f8201169050808301925050505050505081525060056000600654815260200190815260200160002060008201518160000160006101000a81548173ffffffffffffffffffffffffffffffffffffffff021916908373ffffffffffffffffffffffffffffffffffffffff16021790555060208201518160010160006101000a81548173ffffffffffffffffffffffffffffffffffffffff021916908373ffffffffffffffffffffffffffffffffffffffff16021790555060408201518160020155606082015181600301556080820151816004015560a0820151816005015560c08201518160060190816106d191906118b2565b509050507f3f0ab3a70e4ed73b1c391271eecd659070b29a88c38226657fc7814d578b90d66006548787878760405161070e959493929190611984565b60405180910390a1505050505050565b610726610f02565b600073ffffffffffffffffffffffffffffffffffffffff168173ffffffffffffffffffffffffffffffffffffffff1603610795576040517f08c379a000000000000000000000000000000000000000000000000000000000815260040161078c90611a23565b60405180910390fd5b80600260006101000a81548173ffffffffffffffffffffffffffffffffffffffff021916908373ffffffffffffffffffffffffffffffffffffffff1602179055506001600460008373ffffffffffffffffffffffffffffffffffffffff1673ffffffffffffffffffffffffffffffffffffffff16815260200190815260200160002060006101000a81548160ff0219169083151502179055507f506c30422dfa2e919e5cdaf8181fc9b9e44f789be845d91587a125c32db7ef678160405161085d9190611a8f565b60405180910390a150565b610870610f02565b61087a6000610f80565b565b610884610f02565b600073ffffffffffffffffffffffffffffffffffffffff168173ffffffffffffffffffffffffffffffffffffffff16036108f3576040517f08c379a00000000000000000000000000000000000000000000000000000000081526004016108ea90611a23565b60405180910390fd5b80600360006101000a81548173ffffffffffffffffffffffffffffffffffffffff021916908373ffffffffffffffffffffffffffffffffffffffff1602179055506001600460008373ffffffffffffffffffffffffffffffffffffffff1673ffffffffffffffffffffffffffffffffffffffff16815260200190815260200160002060006101000a81548160ff0219169083151502179055507f506c30422dfa2e919e5cdaf8181fc9b9e44f789be845d91587a125c32db7ef67816040516109bb9190611b09565b60405180910390a150565b600060056000838152602001908152602001600020600301549050919050565b600460003373ffffffffffffffffffffffffffffffffffffffff1673ffffffffffffffffffffffffffffffffffffffff16815260200190815260200160002060009054906101000a900460ff16610a72576040517f08c379a0000000000000000000000000000000000000000000000000000000008152600401610a69906114ab565b60405180910390fd5b8060056000848152602001908152602001600020600401819055507f945c1c4e99aa89f648fbfe3df471b916f719e16d960fcec0737d4d56bd6968388282604051610abe929190611b37565b60405180910390a15050565b610ad2610f02565b600073ffffffffffffffffffffffffffffffffffffffff168173ffffffffffffffffffffffffffffffffffffffff1603610b41576040517f08c379a0000000000000000000000000000000000000000000000000000000008152600401610b3890611a23565b60405180910390fd5b80600160006101000a81548173ffffffffffffffffffffffffffffffffffffffff021916908373ffffffffffffffffffffffffffffffffffffffff1602179055506001600460008373ffffffffffffffffffffffffffffffffffffffff1673ffffffffffffffffffffffffffffffffffffffff16815260200190815260200160002060006101000a81548160ff0219169083151502179055507f506c30422dfa2e919e5cdaf8181fc9b9e44f789be845d91587a125c32db7ef6781604051610c099190611bac565b60405180910390a150565b6060600560008381526020019081526020016000206006018054610c3790611534565b80601f0160208091040260200160405190810160405280929190818152602001828054610c6390611534565b8015610cb05780601f10610c8557610100808354040283529160200191610cb0565b820191906000526020600020905b815481529060010190602001808311610c9357829003601f168201915b50505050509050919050565b600460003373ffffffffffffffffffffffffffffffffffffffff1673ffffffffffffffffffffffffffffffffffffffff16815260200190815260200160002060009054906101000a900460ff16610d48576040517f08c379a0000000000000000000000000000000000000000000000000000000008152600401610d3f906114ab565b60405180910390fd5b8060056000848152602001908152602001600020600301819055507f58c02ee727c732ff26939b227cb4a3d6514e9f972afaa3efb9294a5f4ea9d3288282604051610d94929190611b37565b60405180910390a15050565b60008060009054906101000a900473ffffffffffffffffffffffffffffffffffffffff16905090565b610dd1610f02565b600073ffffffffffffffffffffffffffffffffffffffff168173ffffffffffffffffffffffffffffffffffffffff1603610e40576040517f08c379a0000000000000000000000000000000000000000000000000000000008152600401610e3790611c4c565b60405180910390fd5b610e4981610f80565b50565b6000600460003373ffffffffffffffffffffffffffffffffffffffff1673ffffffffffffffffffffffffffffffffffffffff16815260200190815260200160002060009054906101000a900460ff16610eda576040517f08c379a0000000000000000000000000000000000000000000000000000000008152600401610ed1906114ab565b60405180910390fd5b600360009054906101000a900473ffffffffffffffffffffffffffffffffffffffff16905090565b610f0a611044565b73ffffffffffffffffffffffffffffffffffffffff16610f28610da0565b73ffffffffffffffffffffffffffffffffffffffff1614610f7e576040517f08c379a0000000000000000000000000000000000000000000000000000000008152600401610f7590611cb8565b60405180910390fd5b565b60008060009054906101000a900473ffffffffffffffffffffffffffffffffffffffff169050816000806101000a81548173ffffffffffffffffffffffffffffffffffffffff021916908373ffffffffffffffffffffffffffffffffffffffff1602179055508173ffffffffffffffffffffffffffffffffffffffff168173ffffffffffffffffffffffffffffffffffffffff167f8be0079c531659141344cd1fd0a4f28419497f9722a3daafe3b4186f6b6457e060405160405180910390a35050565b600033905090565b600080fd5b600080fd5b6000819050919050565b61106981611056565b811461107457600080fd5b50565b60008135905061108681611060565b92915050565b600080fd5b600080fd5b600080fd5b60008083601f8401126110b1576110b061108c565b5b8235905067ffffffffffffffff8111156110ce576110cd611091565b5b6020830191508360018202830111156110ea576110e9611096565b5b9250929050565b60008060006040848603121561110a5761110961104c565b5b600061111886828701611077565b935050602084013567ffffffffffffffff81111561113957611138611051565b5b6111458682870161109b565b92509250509250925092565b6000602082840312156111675761116661104c565b5b600061117584828501611077565b91505092915050565b600073ffffffffffffffffffffffffffffffffffffffff82169050919050565b60006111a98261117e565b9050919050565b6111b98161119e565b82525050565b6111c881611056565b82525050565b600081519050919050565b600082825260208201905092915050565b60005b838110156112085780820151818401526020810190506111ed565b60008484015250505050565b6000601f19601f8301169050919050565b6000611230826111ce565b61123a81856111d9565b935061124a8185602086016111ea565b61125381611214565b840191505092915050565b600060e082019050611273600083018a6111b0565b61128060208301896111b0565b61128d60408301886111bf565b61129a60608301876111bf565b6112a760808301866111bf565b6112b460a08301856111bf565b81810360c08301526112c68184611225565b905098975050505050505050565b6112dd8161119e565b81146112e857600080fd5b50565b6000813590506112fa816112d4565b92915050565b60008060008060008060a0878903121561131d5761131c61104c565b5b600061132b89828a016112eb565b965050602061133c89828a016112eb565b955050604061134d89828a01611077565b945050606061135e89828a01611077565b935050608087013567ffffffffffffffff81111561137f5761137e611051565b5b61138b89828a0161109b565b92509250509295509295509295565b6000602082840312156113b0576113af61104c565b5b60006113be848285016112eb565b91505092915050565b60006020820190506113dc60008301846111bf565b92915050565b600080604083850312156113f9576113f861104c565b5b600061140785828601611077565b925050602061141885828601611077565b9150509250929050565b6000602082019050818103600083015261143c8184611225565b905092915050565b600060208201905061145960008301846111b0565b92915050565b7f4163636573732064656e69656400000000000000000000000000000000000000600082015250565b6000611495600d836111d9565b91506114a08261145f565b602082019050919050565b600060208201905081810360008301526114c481611488565b9050919050565b600082905092915050565b7f4e487b7100000000000000000000000000000000000000000000000000000000600052604160045260246000fd5b7f4e487b7100000000000000000000000000000000000000000000000000000000600052602260045260246000fd5b6000600282049050600182168061154c57607f821691505b60208210810361155f5761155e611505565b5b50919050565b60008190508160005260206000209050919050565b60006020601f8301049050919050565b600082821b905092915050565b6000600883026115c77fffffffffffffffffffffffffffffffffffffffffffffffffffffffffffffffff8261158a565b6115d1868361158a565b95508019841693508086168417925050509392505050565b6000819050919050565b600061160e61160961160484611056565b6115e9565b611056565b9050919050565b6000819050919050565b611628836115f3565b61163c61163482611615565b848454611597565b825550505050565b600090565b611651611644565b61165c81848461161f565b505050565b5b8181101561168057611675600082611649565b600181019050611662565b5050565b601f8211156116c55761169681611565565b61169f8461157a565b810160208510156116ae578190505b6116c26116ba8561157a565b830182611661565b50505b505050565b600082821c905092915050565b60006116e8600019846008026116ca565b1980831691505092915050565b600061170183836116d7565b9150826002028217905092915050565b61171b83836114cb565b67ffffffffffffffff811115611734576117336114d6565b5b61173e8254611534565b611749828285611684565b6000601f8311600181146117785760008415611766578287013590505b61177085826116f5565b8655506117d8565b601f19841661178686611565565b60005b828110156117ae57848901358255600182019150602085019450602081019050611789565b868310156117cb57848901356117c7601f8916826116d7565b8355505b6001600288020188555050505b50505050505050565b82818337600083830152505050565b60006117fc83856111d9565b93506118098385846117e1565b61181283611214565b840190509392505050565b600060408201905061183260008301866111bf565b81810360208301526118458184866117f0565b9050949350505050565b7f4e487b7100000000000000000000000000000000000000000000000000000000600052601160045260246000fd5b600061188982611056565b915061189483611056565b92508282019050808211156118ac576118ab61184f565b5b92915050565b6118bb826111ce565b67ffffffffffffffff8111156118d4576118d36114d6565b5b6118de8254611534565b6118e9828285611684565b600060209050601f83116001811461191c576000841561190a578287015190505b61191485826116f5565b86555061197c565b601f19841661192a86611565565b60005b828110156119525784890151825560018201915060208501945060208101905061192d565b8683101561196f578489015161196b601f8916826116d7565b8355505b6001600288020188555050505b505050505050565b600060a08201905061199960008301886111bf565b6119a660208301876111b0565b6119b360408301866111b0565b6119c060608301856111bf565b6119cd60808301846111bf565b9695505050505050565b7f416464726573732073686f756c6420626520646566696e656400000000000000600082015250565b6000611a0d6019836111d9565b9150611a18826119d7565b602082019050919050565b60006020820190508181036000830152611a3c81611a00565b9050919050565b7f5265776172640000000000000000000000000000000000000000000000000000600082015250565b6000611a796006836111d9565b9150611a8482611a43565b602082019050919050565b60006040820190508181036000830152611aa881611a6c565b9050611ab760208301846111b0565b92915050565b7f514c414e44206d61726b6574706c616365000000000000000000000000000000600082015250565b6000611af36011836111d9565b9150611afe82611abd565b602082019050919050565b60006040820190508181036000830152611b2281611ae6565b9050611b3160208301846111b0565b92915050565b6000604082019050611b4c60008301856111bf565b611b5960208301846111bf565b9392505050565b7f466163746f727900000000000000000000000000000000000000000000000000600082015250565b6000611b966007836111d9565b9150611ba182611b60565b602082019050919050565b60006040820190508181036000830152611bc581611b89565b9050611bd460208301846111b0565b92915050565b7f4f776e61626c653a206e6577206f776e657220697320746865207a65726f206160008201527f6464726573730000000000000000000000000000000000000000000000000000602082015250565b6000611c366026836111d9565b9150611c4182611bda565b604082019050919050565b60006020820190508181036000830152611c6581611c29565b9050919050565b7f4f776e61626c653a2063616c6c6572206973206e6f7420746865206f776e6572600082015250565b6000611ca26020836111d9565b9150611cad82611c6c565b602082019050919050565b60006020820190508181036000830152611cd181611c95565b905091905056fea26469706673582212203e61a57ce2c4a6f2e7a29a1aa1e4722904d7885e71b7a6e76d5509ba5b2aa34764736f6c63430008120033",
  "linkReferences": {},
  "deployedLinkReferences": {}
}