{
  "_format": "hh-sol-artifact-1",
  "contractName": "QapturState",
  "sourceName": "contracts/QapturState.sol",
  "abi": [
    {
      "anonymous": false,
      "inputs": [
        {
          "indexed": false,
          "internalType": "string",
          "name": "name",
          "type": "string"
        },
        {
          "indexed": false,
          "internalType": "address",
          "name": "contractAddress",
          "type": "address"
        }
      ],
      "name": "ContractAdressUpdated",
      "type": "event"
    },
    {
      "anonymous": false,
      "inputs": [
        {
          "indexed": false,
          "internalType": "uint256",
          "name": "id",
          "type": "uint256"
        },
        {
          "indexed": false,
          "internalType": "address",
          "name": "qlandAddress",
          "type": "address"
        },
        {
          "indexed": false,
          "internalType": "address",
          "name": "qco2Address",
          "type": "address"
        },
        {
          "indexed": false,
          "internalType": "uint256",
          "name": "supply",
          "type": "uint256"
        },
        {
          "indexed": false,
          "internalType": "uint256",
          "name": "price",
          "type": "uint256"
        }
      ],
      "name": "NewProjectDeployed",
      "type": "event"
    },
    {
      "anonymous": false,
      "inputs": [
        {
          "indexed": true,
          "internalType": "address",
          "name": "previousOwner",
          "type": "address"
        },
        {
          "indexed": true,
          "internalType": "address",
          "name": "newOwner",
          "type": "address"
        }
      ],
      "name": "OwnershipTransferred",
      "type": "event"
    },
    {
      "inputs": [
        {
          "internalType": "address",
          "name": "_qlandAddr",
          "type": "address"
        },
        {
          "internalType": "address",
          "name": "_qco2Addr",
          "type": "address"
        },
        {
          "internalType": "uint256",
          "name": "_qlandTotalSupply",
          "type": "uint256"
        },
        {
          "internalType": "uint256",
          "name": "_qlandPrice",
          "type": "uint256"
        },
        {
          "internalType": "string",
          "name": "_jsonUrl",
          "type": "string"
        }
      ],
      "name": "addProjectData",
      "outputs": [],
      "stateMutability": "nonpayable",
      "type": "function"
    },
    {
      "inputs": [
        {
          "internalType": "uint256",
          "name": "_projectId",
          "type": "uint256"
        }
      ],
      "name": "getAvailableSupply",
      "outputs": [
        {
          "internalType": "uint256",
          "name": "",
          "type": "uint256"
        }
      ],
      "stateMutability": "view",
      "type": "function"
    },
    {
      "inputs": [],
      "name": "getQlandMarketplaceAddress",
      "outputs": [
        {
          "internalType": "address",
          "name": "",
          "type": "address"
        }
      ],
      "stateMutability": "view",
      "type": "function"
    },
    {
      "inputs": [
        {
          "internalType": "uint256",
          "name": "_projectId",
          "type": "uint256"
        }
      ],
      "name": "getUrl",
      "outputs": [
        {
          "internalType": "string",
          "name": "",
          "type": "string"
        }
      ],
      "stateMutability": "view",
      "type": "function"
    },
    {
      "inputs": [],
      "name": "owner",
      "outputs": [
        {
          "internalType": "address",
          "name": "",
          "type": "address"
        }
      ],
      "stateMutability": "view",
      "type": "function"
    },
    {
      "inputs": [
        {
          "internalType": "uint256",
          "name": "",
          "type": "uint256"
        }
      ],
      "name": "projects",
      "outputs": [
        {
          "internalType": "address",
          "name": "qlandAddr",
          "type": "address"
        },
        {
          "internalType": "address",
          "name": "qco2Addr",
          "type": "address"
        },
        {
          "internalType": "uint256",
          "name": "totalSupply",
          "type": "uint256"
        },
        {
          "internalType": "uint256",
          "name": "availableSupply",
          "type": "uint256"
        },
        {
          "internalType": "uint256",
          "name": "price",
          "type": "uint256"
        },
        {
          "internalType": "uint256",
          "name": "lastDistribution",
          "type": "uint256"
        },
        {
          "internalType": "string",
          "name": "url",
          "type": "string"
        }
      ],
      "stateMutability": "view",
      "type": "function"
    },
    {
      "inputs": [],
      "name": "renounceOwnership",
      "outputs": [],
      "stateMutability": "nonpayable",
      "type": "function"
    },
    {
      "inputs": [
        {
          "internalType": "address",
          "name": "_contractAddr",
          "type": "address"
        }
      ],
      "name": "setFactoryAddress",
      "outputs": [],
      "stateMutability": "nonpayable",
      "type": "function"
    },
    {
      "inputs": [
        {
          "internalType": "address",
          "name": "_contractAddr",
          "type": "address"
        }
      ],
      "name": "setQlandMarketplaceAddress",
      "outputs": [],
      "stateMutability": "nonpayable",
      "type": "function"
    },
    {
      "inputs": [
        {
          "internalType": "address",
          "name": "_contractAddr",
          "type": "address"
        }
      ],
      "name": "setRewardAddress",
      "outputs": [],
      "stateMutability": "nonpayable",
      "type": "function"
    },
    {
      "inputs": [
        {
          "internalType": "address",
          "name": "newOwner",
          "type": "address"
        }
      ],
      "name": "transferOwnership",
      "outputs": [],
      "stateMutability": "nonpayable",
      "type": "function"
    },
    {
      "inputs": [
        {
          "internalType": "uint256",
          "name": "_projectId",
          "type": "uint256"
        },
        {
          "internalType": "uint256",
          "name": "_newValue",
          "type": "uint256"
        }
      ],
      "name": "updatePrice",
      "outputs": [],
      "stateMutability": "nonpayable",
      "type": "function"
    },
    {
      "inputs": [
        {
          "internalType": "uint256",
          "name": "_projectId",
          "type": "uint256"
        },
        {
          "internalType": "uint256",
          "name": "_newValue",
          "type": "uint256"
        }
      ],
      "name": "updateSupply",
      "outputs": [],
      "stateMutability": "nonpayable",
      "type": "function"
    }
  ],
  "bytecode": "0x608060405234801561001057600080fd5b5061002d61002261003260201b60201c565b61003a60201b60201c565b6100fe565b600033905090565b60008060009054906101000a900473ffffffffffffffffffffffffffffffffffffffff169050816000806101000a81548173ffffffffffffffffffffffffffffffffffffffff021916908373ffffffffffffffffffffffffffffffffffffffff1602179055508173ffffffffffffffffffffffffffffffffffffffff168173ffffffffffffffffffffffffffffffffffffffff167f8be0079c531659141344cd1fd0a4f28419497f9722a3daafe3b4186f6b6457e060405160405180910390a35050565b611ad58061010d6000396000f3fe608060405234801561001057600080fd5b50600436106100cf5760003560e01c806382367b2d1161008c5780638da5cb5b116100665780638da5cb5b146102005780639e2dcbfd1461021e578063f2fde38b1461023a578063f47448b314610256576100cf565b806382367b2d1461019857806383c17c55146101b457806385604d89146101d0576100cf565b8063107046bd146100d45780632244e38a1461010a5780635e00e67914610126578063715018a6146101425780637b7344851461014c5780638051522d14610168575b600080fd5b6100ee60048036038101906100e99190610ff5565b610274565b6040516101019796959493929190611102565b60405180910390f35b610124600480360381019061011f9190611209565b61037e565b005b610140600480360381019061013b91906112a3565b610634565b005b61014a61077e565b005b610166600480360381019061016191906112a3565b610792565b005b610182600480360381019061017d9190610ff5565b6108dc565b60405161018f91906112d0565b60405180910390f35b6101b260048036038101906101ad91906112eb565b6108fc565b005b6101ce60048036038101906101c991906112a3565b6109a7565b005b6101ea60048036038101906101e59190610ff5565b610af1565b6040516101f7919061132b565b60405180910390f35b610208610b99565b604051610215919061134d565b60405180910390f35b610238600480360381019061023391906112eb565b610bc2565b005b610254600480360381019061024f91906112a3565b610c6d565b005b61025e610cf0565b60405161026b919061134d565b60405180910390f35b60056020528060005260406000206000915090508060000160009054906101000a900473ffffffffffffffffffffffffffffffffffffffff16908060010160009054906101000a900473ffffffffffffffffffffffffffffffffffffffff16908060020154908060030154908060040154908060050154908060060180546102fb90611397565b80601f016020809104026020016040519081016040528092919081815260200182805461032790611397565b80156103745780601f1061034957610100808354040283529160200191610374565b820191906000526020600020905b81548152906001019060200180831161035757829003601f168201915b5050505050905087565b600460003373ffffffffffffffffffffffffffffffffffffffff1673ffffffffffffffffffffffffffffffffffffffff16815260200190815260200160002060009054906101000a900460ff1661040a576040517f08c379a000000000000000000000000000000000000000000000000000000000815260040161040190611414565b60405180910390fd5b6104496040518060400160405280600e81526020017f41646450726f6a6563744461746100000000000000000000000000000000000081525087610da6565b60016006600082825461045c9190611463565b925050819055506040518060e001604052808773ffffffffffffffffffffffffffffffffffffffff1681526020018673ffffffffffffffffffffffffffffffffffffffff1681526020018581526020018581526020018481526020016000815260200183838080601f016020809104026020016040519081016040528093929190818152602001838380828437600081840152601f19601f8201169050808301925050505050505081525060056000600654815260200190815260200160002060008201518160000160006101000a81548173ffffffffffffffffffffffffffffffffffffffff021916908373ffffffffffffffffffffffffffffffffffffffff16021790555060208201518160010160006101000a81548173ffffffffffffffffffffffffffffffffffffffff021916908373ffffffffffffffffffffffffffffffffffffffff16021790555060408201518160020155606082015181600301556080820151816004015560a0820151816005015560c08201518160060190816105e79190611672565b509050507f3f0ab3a70e4ed73b1c391271eecd659070b29a88c38226657fc7814d578b90d660065487878787604051610624959493929190611744565b60405180910390a1505050505050565b61063c610e42565b600073ffffffffffffffffffffffffffffffffffffffff168173ffffffffffffffffffffffffffffffffffffffff16036106ab576040517f08c379a00000000000000000000000000000000000000000000000000000000081526004016106a2906117e3565b60405180910390fd5b80600260006101000a81548173ffffffffffffffffffffffffffffffffffffffff021916908373ffffffffffffffffffffffffffffffffffffffff1602179055506001600460008373ffffffffffffffffffffffffffffffffffffffff1673ffffffffffffffffffffffffffffffffffffffff16815260200190815260200160002060006101000a81548160ff0219169083151502179055507f506c30422dfa2e919e5cdaf8181fc9b9e44f789be845d91587a125c32db7ef6781604051610773919061184f565b60405180910390a150565b610786610e42565b6107906000610ec0565b565b61079a610e42565b600073ffffffffffffffffffffffffffffffffffffffff168173ffffffffffffffffffffffffffffffffffffffff1603610809576040517f08c379a0000000000000000000000000000000000000000000000000000000008152600401610800906117e3565b60405180910390fd5b80600360006101000a81548173ffffffffffffffffffffffffffffffffffffffff021916908373ffffffffffffffffffffffffffffffffffffffff1602179055506001600460008373ffffffffffffffffffffffffffffffffffffffff1673ffffffffffffffffffffffffffffffffffffffff16815260200190815260200160002060006101000a81548160ff0219169083151502179055507f506c30422dfa2e919e5cdaf8181fc9b9e44f789be845d91587a125c32db7ef67816040516108d191906118c9565b60405180910390a150565b600060056000838152602001908152602001600020600301549050919050565b600460003373ffffffffffffffffffffffffffffffffffffffff1673ffffffffffffffffffffffffffffffffffffffff16815260200190815260200160002060009054906101000a900460ff16610988576040517f08c379a000000000000000000000000000000000000000000000000000000000815260040161097f90611414565b60405180910390fd5b8060056000848152602001908152602001600020600401819055505050565b6109af610e42565b600073ffffffffffffffffffffffffffffffffffffffff168173ffffffffffffffffffffffffffffffffffffffff1603610a1e576040517f08c379a0000000000000000000000000000000000000000000000000000000008152600401610a15906117e3565b60405180910390fd5b80600160006101000a81548173ffffffffffffffffffffffffffffffffffffffff021916908373ffffffffffffffffffffffffffffffffffffffff1602179055506001600460008373ffffffffffffffffffffffffffffffffffffffff1673ffffffffffffffffffffffffffffffffffffffff16815260200190815260200160002060006101000a81548160ff0219169083151502179055507f506c30422dfa2e919e5cdaf8181fc9b9e44f789be845d91587a125c32db7ef6781604051610ae69190611943565b60405180910390a150565b6060600560008381526020019081526020016000206006018054610b1490611397565b80601f0160208091040260200160405190810160405280929190818152602001828054610b4090611397565b8015610b8d5780601f10610b6257610100808354040283529160200191610b8d565b820191906000526020600020905b815481529060010190602001808311610b7057829003601f168201915b50505050509050919050565b60008060009054906101000a900473ffffffffffffffffffffffffffffffffffffffff16905090565b600460003373ffffffffffffffffffffffffffffffffffffffff1673ffffffffffffffffffffffffffffffffffffffff16815260200190815260200160002060009054906101000a900460ff16610c4e576040517f08c379a0000000000000000000000000000000000000000000000000000000008152600401610c4590611414565b60405180910390fd5b8060056000848152602001908152602001600020600301819055505050565b610c75610e42565b600073ffffffffffffffffffffffffffffffffffffffff168173ffffffffffffffffffffffffffffffffffffffff1603610ce4576040517f08c379a0000000000000000000000000000000000000000000000000000000008152600401610cdb906119e3565b60405180910390fd5b610ced81610ec0565b50565b6000600460003373ffffffffffffffffffffffffffffffffffffffff1673ffffffffffffffffffffffffffffffffffffffff16815260200190815260200160002060009054906101000a900460ff16610d7e576040517f08c379a0000000000000000000000000000000000000000000000000000000008152600401610d7590611414565b60405180910390fd5b600360009054906101000a900473ffffffffffffffffffffffffffffffffffffffff16905090565b610e3e8282604051602401610dbc929190611a03565b6040516020818303038152906040527f319af333000000000000000000000000000000000000000000000000000000007bffffffffffffffffffffffffffffffffffffffffffffffffffffffff19166020820180517bffffffffffffffffffffffffffffffffffffffffffffffffffffffff8381831617835250505050610f84565b5050565b610e4a610fad565b73ffffffffffffffffffffffffffffffffffffffff16610e68610b99565b73ffffffffffffffffffffffffffffffffffffffff1614610ebe576040517f08c379a0000000000000000000000000000000000000000000000000000000008152600401610eb590611a7f565b60405180910390fd5b565b60008060009054906101000a900473ffffffffffffffffffffffffffffffffffffffff169050816000806101000a81548173ffffffffffffffffffffffffffffffffffffffff021916908373ffffffffffffffffffffffffffffffffffffffff1602179055508173ffffffffffffffffffffffffffffffffffffffff168173ffffffffffffffffffffffffffffffffffffffff167f8be0079c531659141344cd1fd0a4f28419497f9722a3daafe3b4186f6b6457e060405160405180910390a35050565b60008151905060006a636f6e736f6c652e6c6f679050602083016000808483855afa5050505050565b600033905090565b600080fd5b600080fd5b6000819050919050565b610fd281610fbf565b8114610fdd57600080fd5b50565b600081359050610fef81610fc9565b92915050565b60006020828403121561100b5761100a610fb5565b5b600061101984828501610fe0565b91505092915050565b600073ffffffffffffffffffffffffffffffffffffffff82169050919050565b600061104d82611022565b9050919050565b61105d81611042565b82525050565b61106c81610fbf565b82525050565b600081519050919050565b600082825260208201905092915050565b60005b838110156110ac578082015181840152602081019050611091565b60008484015250505050565b6000601f19601f8301169050919050565b60006110d482611072565b6110de818561107d565b93506110ee81856020860161108e565b6110f7816110b8565b840191505092915050565b600060e082019050611117600083018a611054565b6111246020830189611054565b6111316040830188611063565b61113e6060830187611063565b61114b6080830186611063565b61115860a0830185611063565b81810360c083015261116a81846110c9565b905098975050505050505050565b61118181611042565b811461118c57600080fd5b50565b60008135905061119e81611178565b92915050565b600080fd5b600080fd5b600080fd5b60008083601f8401126111c9576111c86111a4565b5b8235905067ffffffffffffffff8111156111e6576111e56111a9565b5b602083019150836001820283011115611202576112016111ae565b5b9250929050565b60008060008060008060a0878903121561122657611225610fb5565b5b600061123489828a0161118f565b965050602061124589828a0161118f565b955050604061125689828a01610fe0565b945050606061126789828a01610fe0565b935050608087013567ffffffffffffffff81111561128857611287610fba565b5b61129489828a016111b3565b92509250509295509295509295565b6000602082840312156112b9576112b8610fb5565b5b60006112c78482850161118f565b91505092915050565b60006020820190506112e56000830184611063565b92915050565b6000806040838503121561130257611301610fb5565b5b600061131085828601610fe0565b925050602061132185828601610fe0565b9150509250929050565b6000602082019050818103600083015261134581846110c9565b905092915050565b60006020820190506113626000830184611054565b92915050565b7f4e487b7100000000000000000000000000000000000000000000000000000000600052602260045260246000fd5b600060028204905060018216806113af57607f821691505b6020821081036113c2576113c1611368565b5b50919050565b7f4163636573732064656e69656400000000000000000000000000000000000000600082015250565b60006113fe600d8361107d565b9150611409826113c8565b602082019050919050565b6000602082019050818103600083015261142d816113f1565b9050919050565b7f4e487b7100000000000000000000000000000000000000000000000000000000600052601160045260246000fd5b600061146e82610fbf565b915061147983610fbf565b925082820190508082111561149157611490611434565b5b92915050565b7f4e487b7100000000000000000000000000000000000000000000000000000000600052604160045260246000fd5b60008190508160005260206000209050919050565b60006020601f8301049050919050565b600082821b905092915050565b6000600883026115287fffffffffffffffffffffffffffffffffffffffffffffffffffffffffffffffff826114eb565b61153286836114eb565b95508019841693508086168417925050509392505050565b6000819050919050565b600061156f61156a61156584610fbf565b61154a565b610fbf565b9050919050565b6000819050919050565b61158983611554565b61159d61159582611576565b8484546114f8565b825550505050565b600090565b6115b26115a5565b6115bd818484611580565b505050565b5b818110156115e1576115d66000826115aa565b6001810190506115c3565b5050565b601f821115611626576115f7816114c6565b611600846114db565b8101602085101561160f578190505b61162361161b856114db565b8301826115c2565b50505b505050565b600082821c905092915050565b60006116496000198460080261162b565b1980831691505092915050565b60006116628383611638565b9150826002028217905092915050565b61167b82611072565b67ffffffffffffffff81111561169457611693611497565b5b61169e8254611397565b6116a98282856115e5565b600060209050601f8311600181146116dc57600084156116ca578287015190505b6116d48582611656565b86555061173c565b601f1984166116ea866114c6565b60005b82811015611712578489015182556001820191506020850194506020810190506116ed565b8683101561172f578489015161172b601f891682611638565b8355505b6001600288020188555050505b505050505050565b600060a0820190506117596000830188611063565b6117666020830187611054565b6117736040830186611054565b6117806060830185611063565b61178d6080830184611063565b9695505050505050565b7f416464726573732073686f756c6420626520646566696e656400000000000000600082015250565b60006117cd60198361107d565b91506117d882611797565b602082019050919050565b600060208201905081810360008301526117fc816117c0565b9050919050565b7f5265776172640000000000000000000000000000000000000000000000000000600082015250565b600061183960068361107d565b915061184482611803565b602082019050919050565b600060408201905081810360008301526118688161182c565b90506118776020830184611054565b92915050565b7f514c414e44206d61726b6574706c616365000000000000000000000000000000600082015250565b60006118b360118361107d565b91506118be8261187d565b602082019050919050565b600060408201905081810360008301526118e2816118a6565b90506118f16020830184611054565b92915050565b7f466163746f727900000000000000000000000000000000000000000000000000600082015250565b600061192d60078361107d565b9150611938826118f7565b602082019050919050565b6000604082019050818103600083015261195c81611920565b905061196b6020830184611054565b92915050565b7f4f776e61626c653a206e6577206f776e657220697320746865207a65726f206160008201527f6464726573730000000000000000000000000000000000000000000000000000602082015250565b60006119cd60268361107d565b91506119d882611971565b604082019050919050565b600060208201905081810360008301526119fc816119c0565b9050919050565b60006040820190508181036000830152611a1d81856110c9565b9050611a2c6020830184611054565b9392505050565b7f4f776e61626c653a2063616c6c6572206973206e6f7420746865206f776e6572600082015250565b6000611a6960208361107d565b9150611a7482611a33565b602082019050919050565b60006020820190508181036000830152611a9881611a5c565b905091905056fea2646970667358221220348573e934290eb081b30c2657e8a89e17c9bc9438c2f9eb103cb00954593aea64736f6c63430008120033",
  "linkReferences": {},
  "deployedLinkReferences": {}
}