{
  "_format": "hh-sol-artifact-1",
  "contractName": "QapturProjectFactory",
  "sourceName": "contracts/QapturProjectFactory.sol",
  "abi": [
    {
      "inputs": [
        {
          "internalType": "address",
          "name": "_stateContractAddr",
          "type": "address"
        },
        {
          "internalType": "address",
          "name": "_qlandMarketplaceAddress",
          "type": "address"
        }
      ],
      "stateMutability": "nonpayable",
      "type": "constructor"
    },
    {
      "anonymous": false,
      "inputs": [
        {
          "indexed": true,
          "internalType": "address",
          "name": "previousOwner",
          "type": "address"
        },
        {
          "indexed": true,
          "internalType": "address",
          "name": "newOwner",
          "type": "address"
        }
      ],
      "name": "OwnershipTransferred",
      "type": "event"
    },
    {
      "anonymous": false,
      "inputs": [
        {
          "indexed": false,
          "internalType": "address",
          "name": "qland",
          "type": "address"
        },
        {
          "indexed": false,
          "internalType": "address",
          "name": "qco2",
          "type": "address"
        },
        {
          "indexed": false,
          "internalType": "uint256",
          "name": "timestamp",
          "type": "uint256"
        }
      ],
      "name": "ProjectCollectionsCreated",
      "type": "event"
    },
    {
      "inputs": [
        {
          "internalType": "string",
          "name": "_name",
          "type": "string"
        },
        {
          "internalType": "string",
          "name": "_jsonUrl",
          "type": "string"
        },
        {
          "internalType": "uint256",
          "name": "_maxSupply",
          "type": "uint256"
        },
        {
          "internalType": "uint256",
          "name": "_qlandPrice",
          "type": "uint256"
        }
      ],
      "name": "createNewProject",
      "outputs": [],
      "stateMutability": "nonpayable",
      "type": "function"
    },
    {
      "inputs": [],
      "name": "owner",
      "outputs": [
        {
          "internalType": "address",
          "name": "",
          "type": "address"
        }
      ],
      "stateMutability": "view",
      "type": "function"
    },
    {
      "inputs": [],
      "name": "renounceOwnership",
      "outputs": [],
      "stateMutability": "nonpayable",
      "type": "function"
    },
    {
      "inputs": [
        {
          "internalType": "address",
          "name": "newOwner",
          "type": "address"
        }
      ],
      "name": "transferOwnership",
      "outputs": [],
      "stateMutability": "nonpayable",
      "type": "function"
    }
  ],
  "bytecode": "0x608060405234801561001057600080fd5b50604051620040703803806200407083398181016040528101906100349190610208565b6100506100456100d960201b60201c565b6100e160201b60201c565b81600160006101000a81548173ffffffffffffffffffffffffffffffffffffffff021916908373ffffffffffffffffffffffffffffffffffffffff16021790555080600260006101000a81548173ffffffffffffffffffffffffffffffffffffffff021916908373ffffffffffffffffffffffffffffffffffffffff1602179055505050610248565b600033905090565b60008060009054906101000a900473ffffffffffffffffffffffffffffffffffffffff169050816000806101000a81548173ffffffffffffffffffffffffffffffffffffffff021916908373ffffffffffffffffffffffffffffffffffffffff1602179055508173ffffffffffffffffffffffffffffffffffffffff168173ffffffffffffffffffffffffffffffffffffffff167f8be0079c531659141344cd1fd0a4f28419497f9722a3daafe3b4186f6b6457e060405160405180910390a35050565b600080fd5b600073ffffffffffffffffffffffffffffffffffffffff82169050919050565b60006101d5826101aa565b9050919050565b6101e5816101ca565b81146101f057600080fd5b50565b600081519050610202816101dc565b92915050565b6000806040838503121561021f5761021e6101a5565b5b600061022d858286016101f3565b925050602061023e858286016101f3565b9150509250929050565b613e1880620002586000396000f3fe608060405234801561001057600080fd5b506004361061004c5760003560e01c8063715018a6146100515780638da5cb5b1461005b57806394e1130914610079578063f2fde38b14610095575b600080fd5b6100596100b1565b005b6100636100c5565b604051610070919061059c565b60405180910390f35b610093600480360381019061008e919061065c565b6100ee565b005b6100af60048036038101906100aa919061072f565b6101e2565b005b6100b9610265565b6100c360006102e3565b565b60008060009054906101000a900473ffffffffffffffffffffffffffffffffffffffff16905090565b6100f6610265565b600061010287876103a7565b90506000600160009054906101000a900473ffffffffffffffffffffffffffffffffffffffff1673ffffffffffffffffffffffffffffffffffffffff16632244e38a838387878b8b6040518763ffffffff1660e01b815260040161016b969594939291906107c9565b600060405180830381600087803b15801561018557600080fd5b505af1158015610199573d6000803e3d6000fd5b505050507f33ecf2616938fedd4befd54824b2f2841c92079e29c0f1c327e59a658e32df528282426040516101d093929190610825565b60405180910390a15050505050505050565b6101ea610265565b600073ffffffffffffffffffffffffffffffffffffffff168173ffffffffffffffffffffffffffffffffffffffff1603610259576040517f08c379a0000000000000000000000000000000000000000000000000000000008152600401610250906108ce565b60405180910390fd5b610262816102e3565b50565b61026d610546565b73ffffffffffffffffffffffffffffffffffffffff1661028b6100c5565b73ffffffffffffffffffffffffffffffffffffffff16146102e1576040517f08c379a00000000000000000000000000000000000000000000000000000000081526004016102d89061093a565b60405180910390fd5b565b60008060009054906101000a900473ffffffffffffffffffffffffffffffffffffffff169050816000806101000a81548173ffffffffffffffffffffffffffffffffffffffff021916908373ffffffffffffffffffffffffffffffffffffffff1602179055508173ffffffffffffffffffffffffffffffffffffffff168173ffffffffffffffffffffffffffffffffffffffff167f8be0079c531659141344cd1fd0a4f28419497f9722a3daafe3b4186f6b6457e060405160405180910390a35050565b60008073ffffffffffffffffffffffffffffffffffffffff16600260009054906101000a900473ffffffffffffffffffffffffffffffffffffffff1673ffffffffffffffffffffffffffffffffffffffff1603610439576040517f08c379a0000000000000000000000000000000000000000000000000000000008152600401610430906109cc565b60405180910390fd5b60006040518060200161044b9061054e565b6020820181038252601f19601f82011660405250905060008484604051602001610476929190610a1c565b6040516020818303038152906040528051906020012090506000818351602085016000f59050803b6104a757600080fd5b60008190508073ffffffffffffffffffffffffffffffffffffffff1663f2fde38b600260009054906101000a900473ffffffffffffffffffffffffffffffffffffffff166040518263ffffffff1660e01b8152600401610507919061059c565b600060405180830381600087803b15801561052157600080fd5b505af1158015610535573d6000803e3d6000fd5b505050508194505050505092915050565b600033905090565b6133ad80610a3683390190565b600073ffffffffffffffffffffffffffffffffffffffff82169050919050565b60006105868261055b565b9050919050565b6105968161057b565b82525050565b60006020820190506105b1600083018461058d565b92915050565b600080fd5b600080fd5b600080fd5b600080fd5b600080fd5b60008083601f8401126105e6576105e56105c1565b5b8235905067ffffffffffffffff811115610603576106026105c6565b5b60208301915083600182028301111561061f5761061e6105cb565b5b9250929050565b6000819050919050565b61063981610626565b811461064457600080fd5b50565b60008135905061065681610630565b92915050565b60008060008060008060808789031215610679576106786105b7565b5b600087013567ffffffffffffffff811115610697576106966105bc565b5b6106a389828a016105d0565b9650965050602087013567ffffffffffffffff8111156106c6576106c56105bc565b5b6106d289828a016105d0565b945094505060406106e589828a01610647565b92505060606106f689828a01610647565b9150509295509295509295565b61070c8161057b565b811461071757600080fd5b50565b60008135905061072981610703565b92915050565b600060208284031215610745576107446105b7565b5b60006107538482850161071a565b91505092915050565b61076581610626565b82525050565b600082825260208201905092915050565b82818337600083830152505050565b6000601f19601f8301169050919050565b60006107a8838561076b565b93506107b583858461077c565b6107be8361078b565b840190509392505050565b600060a0820190506107de600083018961058d565b6107eb602083018861058d565b6107f8604083018761075c565b610805606083018661075c565b818103608083015261081881848661079c565b9050979650505050505050565b600060608201905061083a600083018661058d565b610847602083018561058d565b610854604083018461075c565b949350505050565b7f4f776e61626c653a206e6577206f776e657220697320746865207a65726f206160008201527f6464726573730000000000000000000000000000000000000000000000000000602082015250565b60006108b860268361076b565b91506108c38261085c565b604082019050919050565b600060208201905081810360008301526108e7816108ab565b9050919050565b7f4f776e61626c653a2063616c6c6572206973206e6f7420746865206f776e6572600082015250565b600061092460208361076b565b915061092f826108ee565b602082019050919050565b6000602082019050818103600083015261095381610917565b9050919050565b7f4d61726b6574706c6163652061646472657373206973206e6f7420636f6e666960008201527f6775726564000000000000000000000000000000000000000000000000000000602082015250565b60006109b660258361076b565b91506109c18261095a565b604082019050919050565b600060208201905081810360008301526109e5816109a9565b9050919050565b600081905092915050565b6000610a0383856109ec565b9350610a1083858461077c565b82840190509392505050565b6000610a298284866109f7565b9150819050939250505056fe60806040523480156200001157600080fd5b5062000032620000266200003860201b60201c565b6200004060201b60201c565b62000106565b600033905090565b6000600260009054906101000a900473ffffffffffffffffffffffffffffffffffffffff16905081600260006101000a81548173ffffffffffffffffffffffffffffffffffffffff021916908373ffffffffffffffffffffffffffffffffffffffff1602179055508173ffffffffffffffffffffffffffffffffffffffff168173ffffffffffffffffffffffffffffffffffffffff167f8be0079c531659141344cd1fd0a4f28419497f9722a3daafe3b4186f6b6457e060405160405180910390a35050565b61329780620001166000396000f3fe608060405234801561001057600080fd5b50600436106100ce5760003560e01c8063731133e91161008c578063e985e9c511610066578063e985e9c5146101fb578063f242432a1461022b578063f2fde38b14610247578063f5298aca14610263576100ce565b8063731133e9146101a55780638da5cb5b146101c1578063a22cb465146101df576100ce565b8062fdd58e146100d357806301ffc9a7146101035780632eb2c2d6146101335780634e1273f41461014f5780636b20c4541461017f578063715018a61461019b575b600080fd5b6100ed60048036038101906100e89190611d80565b61027f565b6040516100fa9190611dcf565b60405180910390f35b61011d60048036038101906101189190611e42565b610347565b60405161012a9190611e8a565b60405180910390f35b61014d600480360381019061014891906120b3565b6103c1565b005b61016960048036038101906101649190612245565b610462565b604051610176919061237b565b60405180910390f35b6101996004803603810190610194919061239d565b61057b565b005b6101a3610618565b005b6101bf60048036038101906101ba9190612428565b61062c565b005b6101c9610646565b6040516101d691906124ba565b60405180910390f35b6101f960048036038101906101f49190612501565b610670565b005b61021560048036038101906102109190612541565b610686565b6040516102229190611e8a565b60405180910390f35b61024560048036038101906102409190612581565b61071a565b005b610261600480360381019061025c9190612618565b6107bb565b005b61027d60048036038101906102789190612645565b61083e565b005b60008073ffffffffffffffffffffffffffffffffffffffff168373ffffffffffffffffffffffffffffffffffffffff16036102ef576040517f08c379a00000000000000000000000000000000000000000000000000000000081526004016102e69061271b565b60405180910390fd5b60008083815260200190815260200160002060008473ffffffffffffffffffffffffffffffffffffffff1673ffffffffffffffffffffffffffffffffffffffff16815260200190815260200160002054905092915050565b60007fd9b67a26000000000000000000000000000000000000000000000000000000007bffffffffffffffffffffffffffffffffffffffffffffffffffffffff1916827bffffffffffffffffffffffffffffffffffffffffffffffffffffffff191614806103ba57506103b9826108db565b5b9050919050565b6103c9610945565b73ffffffffffffffffffffffffffffffffffffffff168573ffffffffffffffffffffffffffffffffffffffff16148061040f575061040e85610409610945565b610686565b5b61044e576040517f08c379a0000000000000000000000000000000000000000000000000000000008152600401610445906127ad565b60405180910390fd5b61045b858585858561094d565b5050505050565b606081518351146104a8576040517f08c379a000000000000000000000000000000000000000000000000000000000815260040161049f9061283f565b60405180910390fd5b6000835167ffffffffffffffff8111156104c5576104c4611ebb565b5b6040519080825280602002602001820160405280156104f35781602001602082028036833780820191505090505b50905060005b8451811015610570576105408582815181106105185761051761285f565b5b60200260200101518583815181106105335761053261285f565b5b602002602001015161027f565b8282815181106105535761055261285f565b5b60200260200101818152505080610569906128bd565b90506104f9565b508091505092915050565b610583610945565b73ffffffffffffffffffffffffffffffffffffffff168373ffffffffffffffffffffffffffffffffffffffff1614806105c957506105c8836105c3610945565b610686565b5b610608576040517f08c379a00000000000000000000000000000000000000000000000000000000081526004016105ff906127ad565b60405180910390fd5b610613838383610c6e565b505050565b610620610f3c565b61062a6000610fba565b565b610634610f3c565b61064084848484611080565b50505050565b6000600260009054906101000a900473ffffffffffffffffffffffffffffffffffffffff16905090565b61068261067b610945565b8383611230565b5050565b6000600160008473ffffffffffffffffffffffffffffffffffffffff1673ffffffffffffffffffffffffffffffffffffffff16815260200190815260200160002060008373ffffffffffffffffffffffffffffffffffffffff1673ffffffffffffffffffffffffffffffffffffffff16815260200190815260200160002060009054906101000a900460ff16905092915050565b610722610945565b73ffffffffffffffffffffffffffffffffffffffff168573ffffffffffffffffffffffffffffffffffffffff161480610768575061076785610762610945565b610686565b5b6107a7576040517f08c379a000000000000000000000000000000000000000000000000000000000815260040161079e906127ad565b60405180910390fd5b6107b4858585858561139c565b5050505050565b6107c3610f3c565b600073ffffffffffffffffffffffffffffffffffffffff168173ffffffffffffffffffffffffffffffffffffffff1603610832576040517f08c379a000000000000000000000000000000000000000000000000000000000815260040161082990612977565b60405180910390fd5b61083b81610fba565b50565b610846610945565b73ffffffffffffffffffffffffffffffffffffffff168373ffffffffffffffffffffffffffffffffffffffff16148061088c575061088b83610886610945565b610686565b5b6108cb576040517f08c379a00000000000000000000000000000000000000000000000000000000081526004016108c2906127ad565b60405180910390fd5b6108d6838383611637565b505050565b60007f01ffc9a7000000000000000000000000000000000000000000000000000000007bffffffffffffffffffffffffffffffffffffffffffffffffffffffff1916827bffffffffffffffffffffffffffffffffffffffffffffffffffffffff1916149050919050565b600033905090565b8151835114610991576040517f08c379a000000000000000000000000000000000000000000000000000000000815260040161098890612a09565b60405180910390fd5b600073ffffffffffffffffffffffffffffffffffffffff168473ffffffffffffffffffffffffffffffffffffffff1603610a00576040517f08c379a00000000000000000000000000000000000000000000000000000000081526004016109f790612a9b565b60405180910390fd5b6000610a0a610945565b9050610a1a81878787878761187d565b60005b8451811015610bcb576000858281518110610a3b57610a3a61285f565b5b602002602001015190506000858381518110610a5a57610a5961285f565b5b60200260200101519050600080600084815260200190815260200160002060008b73ffffffffffffffffffffffffffffffffffffffff1673ffffffffffffffffffffffffffffffffffffffff16815260200190815260200160002054905081811015610afb576040517f08c379a0000000000000000000000000000000000000000000000000000000008152600401610af290612b2d565b60405180910390fd5b81810360008085815260200190815260200160002060008c73ffffffffffffffffffffffffffffffffffffffff1673ffffffffffffffffffffffffffffffffffffffff168152602001908152602001600020819055508160008085815260200190815260200160002060008b73ffffffffffffffffffffffffffffffffffffffff1673ffffffffffffffffffffffffffffffffffffffff1681526020019081526020016000206000828254610bb09190612b4d565b9250508190555050505080610bc4906128bd565b9050610a1d565b508473ffffffffffffffffffffffffffffffffffffffff168673ffffffffffffffffffffffffffffffffffffffff168273ffffffffffffffffffffffffffffffffffffffff167f4a39dc06d4c0dbc64b70af90fd698a233a518aa5d07e595d983b8c0526c8f7fb8787604051610c42929190612b81565b60405180910390a4610c58818787878787611885565b610c6681878787878761188d565b505050505050565b600073ffffffffffffffffffffffffffffffffffffffff168373ffffffffffffffffffffffffffffffffffffffff1603610cdd576040517f08c379a0000000000000000000000000000000000000000000000000000000008152600401610cd490612c2a565b60405180910390fd5b8051825114610d21576040517f08c379a0000000000000000000000000000000000000000000000000000000008152600401610d1890612a09565b60405180910390fd5b6000610d2b610945565b9050610d4b8185600086866040518060200160405280600081525061187d565b60005b8351811015610e98576000848281518110610d6c57610d6b61285f565b5b602002602001015190506000848381518110610d8b57610d8a61285f565b5b60200260200101519050600080600084815260200190815260200160002060008973ffffffffffffffffffffffffffffffffffffffff1673ffffffffffffffffffffffffffffffffffffffff16815260200190815260200160002054905081811015610e2c576040517f08c379a0000000000000000000000000000000000000000000000000000000008152600401610e2390612cbc565b60405180910390fd5b81810360008085815260200190815260200160002060008a73ffffffffffffffffffffffffffffffffffffffff1673ffffffffffffffffffffffffffffffffffffffff168152602001908152602001600020819055505050508080610e90906128bd565b915050610d4e565b50600073ffffffffffffffffffffffffffffffffffffffff168473ffffffffffffffffffffffffffffffffffffffff168273ffffffffffffffffffffffffffffffffffffffff167f4a39dc06d4c0dbc64b70af90fd698a233a518aa5d07e595d983b8c0526c8f7fb8686604051610f10929190612b81565b60405180910390a4610f3681856000868660405180602001604052806000815250611885565b50505050565b610f44610945565b73ffffffffffffffffffffffffffffffffffffffff16610f62610646565b73ffffffffffffffffffffffffffffffffffffffff1614610fb8576040517f08c379a0000000000000000000000000000000000000000000000000000000008152600401610faf90612d28565b60405180910390fd5b565b6000600260009054906101000a900473ffffffffffffffffffffffffffffffffffffffff16905081600260006101000a81548173ffffffffffffffffffffffffffffffffffffffff021916908373ffffffffffffffffffffffffffffffffffffffff1602179055508173ffffffffffffffffffffffffffffffffffffffff168173ffffffffffffffffffffffffffffffffffffffff167f8be0079c531659141344cd1fd0a4f28419497f9722a3daafe3b4186f6b6457e060405160405180910390a35050565b600073ffffffffffffffffffffffffffffffffffffffff168473ffffffffffffffffffffffffffffffffffffffff16036110ef576040517f08c379a00000000000000000000000000000000000000000000000000000000081526004016110e690612dba565b60405180910390fd5b60006110f9610945565b9050600061110685611a64565b9050600061111385611a64565b90506111248360008985858961187d565b8460008088815260200190815260200160002060008973ffffffffffffffffffffffffffffffffffffffff1673ffffffffffffffffffffffffffffffffffffffff16815260200190815260200160002060008282546111839190612b4d565b925050819055508673ffffffffffffffffffffffffffffffffffffffff16600073ffffffffffffffffffffffffffffffffffffffff168473ffffffffffffffffffffffffffffffffffffffff167fc3d58168c5ae7397731d063d5bbf3d657854427343f4c083240f7aacaa2d0f628989604051611201929190612dda565b60405180910390a461121883600089858589611885565b61122783600089898989611ade565b50505050505050565b8173ffffffffffffffffffffffffffffffffffffffff168373ffffffffffffffffffffffffffffffffffffffff160361129e576040517f08c379a000000000000000000000000000000000000000000000000000000000815260040161129590612e75565b60405180910390fd5b80600160008573ffffffffffffffffffffffffffffffffffffffff1673ffffffffffffffffffffffffffffffffffffffff16815260200190815260200160002060008473ffffffffffffffffffffffffffffffffffffffff1673ffffffffffffffffffffffffffffffffffffffff16815260200190815260200160002060006101000a81548160ff0219169083151502179055508173ffffffffffffffffffffffffffffffffffffffff168373ffffffffffffffffffffffffffffffffffffffff167f17307eab39ab6107e8899845ad3d59bd9653f200f220920489ca2b5937696c318360405161138f9190611e8a565b60405180910390a3505050565b600073ffffffffffffffffffffffffffffffffffffffff168473ffffffffffffffffffffffffffffffffffffffff160361140b576040517f08c379a000000000000000000000000000000000000000000000000000000000815260040161140290612a9b565b60405180910390fd5b6000611415610945565b9050600061142285611a64565b9050600061142f85611a64565b905061143f83898985858961187d565b600080600088815260200190815260200160002060008a73ffffffffffffffffffffffffffffffffffffffff1673ffffffffffffffffffffffffffffffffffffffff168152602001908152602001600020549050858110156114d6576040517f08c379a00000000000000000000000000000000000000000000000000000000081526004016114cd90612b2d565b60405180910390fd5b85810360008089815260200190815260200160002060008b73ffffffffffffffffffffffffffffffffffffffff1673ffffffffffffffffffffffffffffffffffffffff168152602001908152602001600020819055508560008089815260200190815260200160002060008a73ffffffffffffffffffffffffffffffffffffffff1673ffffffffffffffffffffffffffffffffffffffff168152602001908152602001600020600082825461158b9190612b4d565b925050819055508773ffffffffffffffffffffffffffffffffffffffff168973ffffffffffffffffffffffffffffffffffffffff168573ffffffffffffffffffffffffffffffffffffffff167fc3d58168c5ae7397731d063d5bbf3d657854427343f4c083240f7aacaa2d0f628a8a604051611608929190612dda565b60405180910390a461161e848a8a86868a611885565b61162c848a8a8a8a8a611ade565b505050505050505050565b600073ffffffffffffffffffffffffffffffffffffffff168373ffffffffffffffffffffffffffffffffffffffff16036116a6576040517f08c379a000000000000000000000000000000000000000000000000000000000815260040161169d90612c2a565b60405180910390fd5b60006116b0610945565b905060006116bd84611a64565b905060006116ca84611a64565b90506116ea8387600085856040518060200160405280600081525061187d565b600080600087815260200190815260200160002060008873ffffffffffffffffffffffffffffffffffffffff1673ffffffffffffffffffffffffffffffffffffffff16815260200190815260200160002054905084811015611781576040517f08c379a000000000000000000000000000000000000000000000000000000000815260040161177890612cbc565b60405180910390fd5b84810360008088815260200190815260200160002060008973ffffffffffffffffffffffffffffffffffffffff1673ffffffffffffffffffffffffffffffffffffffff16815260200190815260200160002081905550600073ffffffffffffffffffffffffffffffffffffffff168773ffffffffffffffffffffffffffffffffffffffff168573ffffffffffffffffffffffffffffffffffffffff167fc3d58168c5ae7397731d063d5bbf3d657854427343f4c083240f7aacaa2d0f62898960405161184e929190612dda565b60405180910390a461187484886000868660405180602001604052806000815250611885565b50505050505050565b505050505050565b505050505050565b6118ac8473ffffffffffffffffffffffffffffffffffffffff16611cb5565b15611a5c578373ffffffffffffffffffffffffffffffffffffffff1663bc197c8187878686866040518663ffffffff1660e01b81526004016118f2959493929190612f14565b6020604051808303816000875af192505050801561192e57506040513d601f19601f8201168201806040525081019061192b9190612f91565b60015b6119d35761193a612fcb565b806308c379a003611996575061194e612fed565b806119595750611998565b806040517f08c379a000000000000000000000000000000000000000000000000000000000815260040161198d91906130c1565b60405180910390fd5b505b6040517f08c379a00000000000000000000000000000000000000000000000000000000081526004016119ca90613155565b60405180910390fd5b63bc197c8160e01b7bffffffffffffffffffffffffffffffffffffffffffffffffffffffff1916817bffffffffffffffffffffffffffffffffffffffffffffffffffffffff191614611a5a576040517f08c379a0000000000000000000000000000000000000000000000000000000008152600401611a51906131e7565b60405180910390fd5b505b505050505050565b60606000600167ffffffffffffffff811115611a8357611a82611ebb565b5b604051908082528060200260200182016040528015611ab15781602001602082028036833780820191505090505b5090508281600081518110611ac957611ac861285f565b5b60200260200101818152505080915050919050565b611afd8473ffffffffffffffffffffffffffffffffffffffff16611cb5565b15611cad578373ffffffffffffffffffffffffffffffffffffffff1663f23a6e6187878686866040518663ffffffff1660e01b8152600401611b43959493929190613207565b6020604051808303816000875af1925050508015611b7f57506040513d601f19601f82011682018060405250810190611b7c9190612f91565b60015b611c2457611b8b612fcb565b806308c379a003611be75750611b9f612fed565b80611baa5750611be9565b806040517f08c379a0000000000000000000000000000000000000000000000000000000008152600401611bde91906130c1565b60405180910390fd5b505b6040517f08c379a0000000000000000000000000000000000000000000000000000000008152600401611c1b90613155565b60405180910390fd5b63f23a6e6160e01b7bffffffffffffffffffffffffffffffffffffffffffffffffffffffff1916817bffffffffffffffffffffffffffffffffffffffffffffffffffffffff191614611cab576040517f08c379a0000000000000000000000000000000000000000000000000000000008152600401611ca2906131e7565b60405180910390fd5b505b505050505050565b6000808273ffffffffffffffffffffffffffffffffffffffff163b119050919050565b6000604051905090565b600080fd5b600080fd5b600073ffffffffffffffffffffffffffffffffffffffff82169050919050565b6000611d1782611cec565b9050919050565b611d2781611d0c565b8114611d3257600080fd5b50565b600081359050611d4481611d1e565b92915050565b6000819050919050565b611d5d81611d4a565b8114611d6857600080fd5b50565b600081359050611d7a81611d54565b92915050565b60008060408385031215611d9757611d96611ce2565b5b6000611da585828601611d35565b9250506020611db685828601611d6b565b9150509250929050565b611dc981611d4a565b82525050565b6000602082019050611de46000830184611dc0565b92915050565b60007fffffffff0000000000000000000000000000000000000000000000000000000082169050919050565b611e1f81611dea565b8114611e2a57600080fd5b50565b600081359050611e3c81611e16565b92915050565b600060208284031215611e5857611e57611ce2565b5b6000611e6684828501611e2d565b91505092915050565b60008115159050919050565b611e8481611e6f565b82525050565b6000602082019050611e9f6000830184611e7b565b92915050565b600080fd5b6000601f19601f8301169050919050565b7f4e487b7100000000000000000000000000000000000000000000000000000000600052604160045260246000fd5b611ef382611eaa565b810181811067ffffffffffffffff82111715611f1257611f11611ebb565b5b80604052505050565b6000611f25611cd8565b9050611f318282611eea565b919050565b600067ffffffffffffffff821115611f5157611f50611ebb565b5b602082029050602081019050919050565b600080fd5b6000611f7a611f7584611f36565b611f1b565b90508083825260208201905060208402830185811115611f9d57611f9c611f62565b5b835b81811015611fc65780611fb28882611d6b565b845260208401935050602081019050611f9f565b5050509392505050565b600082601f830112611fe557611fe4611ea5565b5b8135611ff5848260208601611f67565b91505092915050565b600080fd5b600067ffffffffffffffff82111561201e5761201d611ebb565b5b61202782611eaa565b9050602081019050919050565b82818337600083830152505050565b600061205661205184612003565b611f1b565b90508281526020810184848401111561207257612071611ffe565b5b61207d848285612034565b509392505050565b600082601f83011261209a57612099611ea5565b5b81356120aa848260208601612043565b91505092915050565b600080600080600060a086880312156120cf576120ce611ce2565b5b60006120dd88828901611d35565b95505060206120ee88828901611d35565b945050604086013567ffffffffffffffff81111561210f5761210e611ce7565b5b61211b88828901611fd0565b935050606086013567ffffffffffffffff81111561213c5761213b611ce7565b5b61214888828901611fd0565b925050608086013567ffffffffffffffff81111561216957612168611ce7565b5b61217588828901612085565b9150509295509295909350565b600067ffffffffffffffff82111561219d5761219c611ebb565b5b602082029050602081019050919050565b60006121c16121bc84612182565b611f1b565b905080838252602082019050602084028301858111156121e4576121e3611f62565b5b835b8181101561220d57806121f98882611d35565b8452602084019350506020810190506121e6565b5050509392505050565b600082601f83011261222c5761222b611ea5565b5b813561223c8482602086016121ae565b91505092915050565b6000806040838503121561225c5761225b611ce2565b5b600083013567ffffffffffffffff81111561227a57612279611ce7565b5b61228685828601612217565b925050602083013567ffffffffffffffff8111156122a7576122a6611ce7565b5b6122b385828601611fd0565b9150509250929050565b600081519050919050565b600082825260208201905092915050565b6000819050602082019050919050565b6122f281611d4a565b82525050565b600061230483836122e9565b60208301905092915050565b6000602082019050919050565b6000612328826122bd565b61233281856122c8565b935061233d836122d9565b8060005b8381101561236e57815161235588826122f8565b975061236083612310565b925050600181019050612341565b5085935050505092915050565b60006020820190508181036000830152612395818461231d565b905092915050565b6000806000606084860312156123b6576123b5611ce2565b5b60006123c486828701611d35565b935050602084013567ffffffffffffffff8111156123e5576123e4611ce7565b5b6123f186828701611fd0565b925050604084013567ffffffffffffffff81111561241257612411611ce7565b5b61241e86828701611fd0565b9150509250925092565b6000806000806080858703121561244257612441611ce2565b5b600061245087828801611d35565b945050602061246187828801611d6b565b935050604061247287828801611d6b565b925050606085013567ffffffffffffffff81111561249357612492611ce7565b5b61249f87828801612085565b91505092959194509250565b6124b481611d0c565b82525050565b60006020820190506124cf60008301846124ab565b92915050565b6124de81611e6f565b81146124e957600080fd5b50565b6000813590506124fb816124d5565b92915050565b6000806040838503121561251857612517611ce2565b5b600061252685828601611d35565b9250506020612537858286016124ec565b9150509250929050565b6000806040838503121561255857612557611ce2565b5b600061256685828601611d35565b925050602061257785828601611d35565b9150509250929050565b600080600080600060a0868803121561259d5761259c611ce2565b5b60006125ab88828901611d35565b95505060206125bc88828901611d35565b94505060406125cd88828901611d6b565b93505060606125de88828901611d6b565b925050608086013567ffffffffffffffff8111156125ff576125fe611ce7565b5b61260b88828901612085565b9150509295509295909350565b60006020828403121561262e5761262d611ce2565b5b600061263c84828501611d35565b91505092915050565b60008060006060848603121561265e5761265d611ce2565b5b600061266c86828701611d35565b935050602061267d86828701611d6b565b925050604061268e86828701611d6b565b9150509250925092565b600082825260208201905092915050565b7f455243313135353a2061646472657373207a65726f206973206e6f742061207660008201527f616c6964206f776e657200000000000000000000000000000000000000000000602082015250565b6000612705602a83612698565b9150612710826126a9565b604082019050919050565b60006020820190508181036000830152612734816126f8565b9050919050565b7f455243313135353a2063616c6c6572206973206e6f7420746f6b656e206f776e60008201527f6572206f7220617070726f766564000000000000000000000000000000000000602082015250565b6000612797602e83612698565b91506127a28261273b565b604082019050919050565b600060208201905081810360008301526127c68161278a565b9050919050565b7f455243313135353a206163636f756e747320616e6420696473206c656e67746860008201527f206d69736d617463680000000000000000000000000000000000000000000000602082015250565b6000612829602983612698565b9150612834826127cd565b604082019050919050565b600060208201905081810360008301526128588161281c565b9050919050565b7f4e487b7100000000000000000000000000000000000000000000000000000000600052603260045260246000fd5b7f4e487b7100000000000000000000000000000000000000000000000000000000600052601160045260246000fd5b60006128c882611d4a565b91507fffffffffffffffffffffffffffffffffffffffffffffffffffffffffffffffff82036128fa576128f961288e565b5b600182019050919050565b7f4f776e61626c653a206e6577206f776e657220697320746865207a65726f206160008201527f6464726573730000000000000000000000000000000000000000000000000000602082015250565b6000612961602683612698565b915061296c82612905565b604082019050919050565b6000602082019050818103600083015261299081612954565b9050919050565b7f455243313135353a2069647320616e6420616d6f756e7473206c656e6774682060008201527f6d69736d61746368000000000000000000000000000000000000000000000000602082015250565b60006129f3602883612698565b91506129fe82612997565b604082019050919050565b60006020820190508181036000830152612a22816129e6565b9050919050565b7f455243313135353a207472616e7366657220746f20746865207a65726f20616460008201527f6472657373000000000000000000000000000000000000000000000000000000602082015250565b6000612a85602583612698565b9150612a9082612a29565b604082019050919050565b60006020820190508181036000830152612ab481612a78565b9050919050565b7f455243313135353a20696e73756666696369656e742062616c616e636520666f60008201527f72207472616e7366657200000000000000000000000000000000000000000000602082015250565b6000612b17602a83612698565b9150612b2282612abb565b604082019050919050565b60006020820190508181036000830152612b4681612b0a565b9050919050565b6000612b5882611d4a565b9150612b6383611d4a565b9250828201905080821115612b7b57612b7a61288e565b5b92915050565b60006040820190508181036000830152612b9b818561231d565b90508181036020830152612baf818461231d565b90509392505050565b7f455243313135353a206275726e2066726f6d20746865207a65726f206164647260008201527f6573730000000000000000000000000000000000000000000000000000000000602082015250565b6000612c14602383612698565b9150612c1f82612bb8565b604082019050919050565b60006020820190508181036000830152612c4381612c07565b9050919050565b7f455243313135353a206275726e20616d6f756e7420657863656564732062616c60008201527f616e636500000000000000000000000000000000000000000000000000000000602082015250565b6000612ca6602483612698565b9150612cb182612c4a565b604082019050919050565b60006020820190508181036000830152612cd581612c99565b9050919050565b7f4f776e61626c653a2063616c6c6572206973206e6f7420746865206f776e6572600082015250565b6000612d12602083612698565b9150612d1d82612cdc565b602082019050919050565b60006020820190508181036000830152612d4181612d05565b9050919050565b7f455243313135353a206d696e7420746f20746865207a65726f2061646472657360008201527f7300000000000000000000000000000000000000000000000000000000000000602082015250565b6000612da4602183612698565b9150612daf82612d48565b604082019050919050565b60006020820190508181036000830152612dd381612d97565b9050919050565b6000604082019050612def6000830185611dc0565b612dfc6020830184611dc0565b9392505050565b7f455243313135353a2073657474696e6720617070726f76616c2073746174757360008201527f20666f722073656c660000000000000000000000000000000000000000000000602082015250565b6000612e5f602983612698565b9150612e6a82612e03565b604082019050919050565b60006020820190508181036000830152612e8e81612e52565b9050919050565b600081519050919050565b600082825260208201905092915050565b60005b83811015612ecf578082015181840152602081019050612eb4565b60008484015250505050565b6000612ee682612e95565b612ef08185612ea0565b9350612f00818560208601612eb1565b612f0981611eaa565b840191505092915050565b600060a082019050612f2960008301886124ab565b612f3660208301876124ab565b8181036040830152612f48818661231d565b90508181036060830152612f5c818561231d565b90508181036080830152612f708184612edb565b90509695505050505050565b600081519050612f8b81611e16565b92915050565b600060208284031215612fa757612fa6611ce2565b5b6000612fb584828501612f7c565b91505092915050565b60008160e01c9050919050565b600060033d1115612fea5760046000803e612fe7600051612fbe565b90505b90565b600060443d1061307a57612fff611cd8565b60043d036004823e80513d602482011167ffffffffffffffff8211171561302757505061307a565b808201805167ffffffffffffffff811115613045575050505061307a565b80602083010160043d03850181111561306257505050505061307a565b61307182602001850186611eea565b82955050505050505b90565b600081519050919050565b60006130938261307d565b61309d8185612698565b93506130ad818560208601612eb1565b6130b681611eaa565b840191505092915050565b600060208201905081810360008301526130db8184613088565b905092915050565b7f455243313135353a207472616e7366657220746f206e6f6e2d4552433131353560008201527f526563656976657220696d706c656d656e746572000000000000000000000000602082015250565b600061313f603483612698565b915061314a826130e3565b604082019050919050565b6000602082019050818103600083015261316e81613132565b9050919050565b7f455243313135353a204552433131353552656365697665722072656a6563746560008201527f6420746f6b656e73000000000000000000000000000000000000000000000000602082015250565b60006131d1602883612698565b91506131dc82613175565b604082019050919050565b60006020820190508181036000830152613200816131c4565b9050919050565b600060a08201905061321c60008301886124ab565b61322960208301876124ab565b6132366040830186611dc0565b6132436060830185611dc0565b81810360808301526132558184612edb565b9050969550505050505056fea26469706673582212200d5c37060267952309892483fbf3d13dedd06468d7345c54db44d23b320e8fd564736f6c63430008120033a2646970667358221220ed8a4559080f3f6c3ee2ad2f72f4aeb2af0235ca3b306854f933f592ad38424164736f6c63430008120033",
  "linkReferences": {},
  "deployedLinkReferences": {}
}