{
  "_format": "hh-sol-artifact-1",
  "contractName": "QapturProjectFactory",
  "sourceName": "contracts/QapturProjectFactory.sol",
  "abi": [
    {
      "inputs": [
        {
          "internalType": "address",
          "name": "_stateContractAddr",
          "type": "address"
        },
        {
          "internalType": "address",
          "name": "_qlandMarketplaceAddress",
          "type": "address"
        }
      ],
      "stateMutability": "nonpayable",
      "type": "constructor"
    },
    {
      "anonymous": false,
      "inputs": [
        {
          "indexed": true,
          "internalType": "address",
          "name": "previousOwner",
          "type": "address"
        },
        {
          "indexed": true,
          "internalType": "address",
          "name": "newOwner",
          "type": "address"
        }
      ],
      "name": "OwnershipTransferred",
      "type": "event"
    },
    {
      "anonymous": false,
      "inputs": [
        {
          "indexed": false,
          "internalType": "address",
          "name": "qland",
          "type": "address"
        },
        {
          "indexed": false,
          "internalType": "address",
          "name": "qco2",
          "type": "address"
        },
        {
          "indexed": false,
          "internalType": "uint256",
          "name": "timestamp",
          "type": "uint256"
        }
      ],
      "name": "ProjectCollectionsCreated",
      "type": "event"
    },
    {
      "inputs": [
        {
          "internalType": "string",
          "name": "_name",
          "type": "string"
        },
        {
          "internalType": "string",
          "name": "_jsonUrl",
          "type": "string"
        },
        {
          "internalType": "uint256",
          "name": "_maxSupply",
          "type": "uint256"
        },
        {
          "internalType": "uint256",
          "name": "_qlandPrice",
          "type": "uint256"
        }
      ],
      "name": "createNewProject",
      "outputs": [],
      "stateMutability": "nonpayable",
      "type": "function"
    },
    {
      "inputs": [],
      "name": "owner",
      "outputs": [
        {
          "internalType": "address",
          "name": "",
          "type": "address"
        }
      ],
      "stateMutability": "view",
      "type": "function"
    },
    {
      "inputs": [],
      "name": "renounceOwnership",
      "outputs": [],
      "stateMutability": "nonpayable",
      "type": "function"
    },
    {
      "inputs": [
        {
          "internalType": "address",
          "name": "newOwner",
          "type": "address"
        }
      ],
      "name": "transferOwnership",
      "outputs": [],
      "stateMutability": "nonpayable",
      "type": "function"
    }
  ],
  "bytecode": "0x608060405234801561001057600080fd5b50604051620046783803806200467883398181016040528101906100349190610208565b6100506100456100d960201b60201c565b6100e160201b60201c565b81600160006101000a81548173ffffffffffffffffffffffffffffffffffffffff021916908373ffffffffffffffffffffffffffffffffffffffff16021790555080600260006101000a81548173ffffffffffffffffffffffffffffffffffffffff021916908373ffffffffffffffffffffffffffffffffffffffff1602179055505050610248565b600033905090565b60008060009054906101000a900473ffffffffffffffffffffffffffffffffffffffff169050816000806101000a81548173ffffffffffffffffffffffffffffffffffffffff021916908373ffffffffffffffffffffffffffffffffffffffff1602179055508173ffffffffffffffffffffffffffffffffffffffff168173ffffffffffffffffffffffffffffffffffffffff167f8be0079c531659141344cd1fd0a4f28419497f9722a3daafe3b4186f6b6457e060405160405180910390a35050565b600080fd5b600073ffffffffffffffffffffffffffffffffffffffff82169050919050565b60006101d5826101aa565b9050919050565b6101e5816101ca565b81146101f057600080fd5b50565b600081519050610202816101dc565b92915050565b6000806040838503121561021f5761021e6101a5565b5b600061022d858286016101f3565b925050602061023e858286016101f3565b9150509250929050565b61442080620002586000396000f3fe60806040523480156200001157600080fd5b5060043610620000525760003560e01c8063715018a614620000575780638da5cb5b146200006357806394e113091462000085578063f2fde38b14620000a5575b600080fd5b62000061620000c5565b005b6200006d620000dd565b6040516200007c9190620005dd565b60405180910390f35b620000a360048036038101906200009d9190620006ad565b62000106565b005b620000c36004803603810190620000bd919062000796565b62000204565b005b620000cf6200028e565b620000db600062000313565b565b60008060009054906101000a900473ffffffffffffffffffffffffffffffffffffffff16905090565b620001106200028e565b60006200011e8787620003d7565b90506000600160009054906101000a900473ffffffffffffffffffffffffffffffffffffffff1673ffffffffffffffffffffffffffffffffffffffff16632244e38a838387878b8b6040518763ffffffff1660e01b815260040162000189969594939291906200083d565b600060405180830381600087803b158015620001a457600080fd5b505af1158015620001b9573d6000803e3d6000fd5b505050507f33ecf2616938fedd4befd54824b2f2841c92079e29c0f1c327e59a658e32df52828242604051620001f293929190620008a3565b60405180910390a15050505050505050565b6200020e6200028e565b600073ffffffffffffffffffffffffffffffffffffffff168173ffffffffffffffffffffffffffffffffffffffff160362000280576040517f08c379a0000000000000000000000000000000000000000000000000000000008152600401620002779062000956565b60405180910390fd5b6200028b8162000313565b50565b6200029862000582565b73ffffffffffffffffffffffffffffffffffffffff16620002b8620000dd565b73ffffffffffffffffffffffffffffffffffffffff161462000311576040517f08c379a00000000000000000000000000000000000000000000000000000000081526004016200030890620009c8565b60405180910390fd5b565b60008060009054906101000a900473ffffffffffffffffffffffffffffffffffffffff169050816000806101000a81548173ffffffffffffffffffffffffffffffffffffffff021916908373ffffffffffffffffffffffffffffffffffffffff1602179055508173ffffffffffffffffffffffffffffffffffffffff168173ffffffffffffffffffffffffffffffffffffffff167f8be0079c531659141344cd1fd0a4f28419497f9722a3daafe3b4186f6b6457e060405160405180910390a35050565b60008073ffffffffffffffffffffffffffffffffffffffff16600260009054906101000a900473ffffffffffffffffffffffffffffffffffffffff1673ffffffffffffffffffffffffffffffffffffffff16036200046c576040517f08c379a0000000000000000000000000000000000000000000000000000000008152600401620004639062000a60565b60405180910390fd5b60006040518060200162000480906200058a565b6020820181038252601f19601f82011660405250905060008484604051602001620004ad92919062000ab6565b6040516020818303038152906040528051906020012090506000818351602085016000f59050803b620004df57600080fd5b60008190508073ffffffffffffffffffffffffffffffffffffffff1663f2fde38b600260009054906101000a900473ffffffffffffffffffffffffffffffffffffffff166040518263ffffffff1660e01b8152600401620005419190620005dd565b600060405180830381600087803b1580156200055c57600080fd5b505af115801562000571573d6000803e3d6000fd5b505050508194505050505092915050565b600033905090565b6139198062000ad283390190565b600073ffffffffffffffffffffffffffffffffffffffff82169050919050565b6000620005c58262000598565b9050919050565b620005d781620005b8565b82525050565b6000602082019050620005f46000830184620005cc565b92915050565b600080fd5b600080fd5b600080fd5b600080fd5b600080fd5b60008083601f8401126200062c576200062b62000604565b5b8235905067ffffffffffffffff8111156200064c576200064b62000609565b5b6020830191508360018202830111156200066b576200066a6200060e565b5b9250929050565b6000819050919050565b620006878162000672565b81146200069357600080fd5b50565b600081359050620006a7816200067c565b92915050565b60008060008060008060808789031215620006cd57620006cc620005fa565b5b600087013567ffffffffffffffff811115620006ee57620006ed620005ff565b5b620006fc89828a0162000613565b9650965050602087013567ffffffffffffffff811115620007225762000721620005ff565b5b6200073089828a0162000613565b945094505060406200074589828a0162000696565b92505060606200075889828a0162000696565b9150509295509295509295565b6200077081620005b8565b81146200077c57600080fd5b50565b600081359050620007908162000765565b92915050565b600060208284031215620007af57620007ae620005fa565b5b6000620007bf848285016200077f565b91505092915050565b620007d38162000672565b82525050565b600082825260208201905092915050565b82818337600083830152505050565b6000601f19601f8301169050919050565b6000620008188385620007d9565b935062000827838584620007ea565b6200083283620007f9565b840190509392505050565b600060a082019050620008546000830189620005cc565b620008636020830188620005cc565b620008726040830187620007c8565b620008816060830186620007c8565b8181036080830152620008968184866200080a565b9050979650505050505050565b6000606082019050620008ba6000830186620005cc565b620008c96020830185620005cc565b620008d86040830184620007c8565b949350505050565b7f4f776e61626c653a206e6577206f776e657220697320746865207a65726f206160008201527f6464726573730000000000000000000000000000000000000000000000000000602082015250565b60006200093e602683620007d9565b91506200094b82620008e0565b604082019050919050565b6000602082019050818103600083015262000971816200092f565b9050919050565b7f4f776e61626c653a2063616c6c6572206973206e6f7420746865206f776e6572600082015250565b6000620009b0602083620007d9565b9150620009bd8262000978565b602082019050919050565b60006020820190508181036000830152620009e381620009a1565b9050919050565b7f4d61726b6574706c6163652061646472657373206973206e6f7420636f6e666960008201527f6775726564000000000000000000000000000000000000000000000000000000602082015250565b600062000a48602583620007d9565b915062000a5582620009ea565b604082019050919050565b6000602082019050818103600083015262000a7b8162000a39565b9050919050565b600081905092915050565b600062000a9b838562000a82565b935062000aaa838584620007ea565b82840190509392505050565b600062000ac582848662000a8d565b9150819050939250505056fe60806040523480156200001157600080fd5b506040518060200160405280600081525062000033816200005a60201b60201c565b5062000054620000486200006f60201b60201c565b6200007760201b60201c565b6200049e565b80600290816200006b9190620003b7565b5050565b600033905090565b6000600360009054906101000a900473ffffffffffffffffffffffffffffffffffffffff16905081600360006101000a81548173ffffffffffffffffffffffffffffffffffffffff021916908373ffffffffffffffffffffffffffffffffffffffff1602179055508173ffffffffffffffffffffffffffffffffffffffff168173ffffffffffffffffffffffffffffffffffffffff167f8be0079c531659141344cd1fd0a4f28419497f9722a3daafe3b4186f6b6457e060405160405180910390a35050565b600081519050919050565b7f4e487b7100000000000000000000000000000000000000000000000000000000600052604160045260246000fd5b7f4e487b7100000000000000000000000000000000000000000000000000000000600052602260045260246000fd5b60006002820490506001821680620001bf57607f821691505b602082108103620001d557620001d462000177565b5b50919050565b60008190508160005260206000209050919050565b60006020601f8301049050919050565b600082821b905092915050565b6000600883026200023f7fffffffffffffffffffffffffffffffffffffffffffffffffffffffffffffffff8262000200565b6200024b868362000200565b95508019841693508086168417925050509392505050565b6000819050919050565b6000819050919050565b600062000298620002926200028c8462000263565b6200026d565b62000263565b9050919050565b6000819050919050565b620002b48362000277565b620002cc620002c3826200029f565b8484546200020d565b825550505050565b600090565b620002e3620002d4565b620002f0818484620002a9565b505050565b5b8181101562000318576200030c600082620002d9565b600181019050620002f6565b5050565b601f82111562000367576200033181620001db565b6200033c84620001f0565b810160208510156200034c578190505b620003646200035b85620001f0565b830182620002f5565b50505b505050565b600082821c905092915050565b60006200038c600019846008026200036c565b1980831691505092915050565b6000620003a7838362000379565b9150826002028217905092915050565b620003c2826200013d565b67ffffffffffffffff811115620003de57620003dd62000148565b5b620003ea8254620001a6565b620003f78282856200031c565b600060209050601f8311600181146200042f57600084156200041a578287015190505b62000426858262000399565b86555062000496565b601f1984166200043f86620001db565b60005b82811015620004695784890151825560018201915060208501945060208101905062000442565b8683101562000489578489015162000485601f89168262000379565b8355505b6001600288020188555050505b505050505050565b61346b80620004ae6000396000f3fe608060405234801561001057600080fd5b50600436106100e95760003560e01c8063731133e91161008c578063e985e9c511610066578063e985e9c514610246578063f242432a14610276578063f2fde38b14610292578063f5298aca146102ae576100e9565b8063731133e9146101f05780638da5cb5b1461020c578063a22cb4651461022a576100e9565b80632eb2c2d6116100c85780632eb2c2d61461017e5780634e1273f41461019a5780636b20c454146101ca578063715018a6146101e6576100e9565b8062fdd58e146100ee57806301ffc9a71461011e5780630e89341c1461014e575b600080fd5b61010860048036038101906101039190611ec7565b6102ca565b6040516101159190611f16565b60405180910390f35b61013860048036038101906101339190611f89565b610392565b6040516101459190611fd1565b60405180910390f35b61016860048036038101906101639190611fec565b610474565b60405161017591906120a9565b60405180910390f35b610198600480360381019061019391906122c8565b610508565b005b6101b460048036038101906101af919061245a565b6105a9565b6040516101c19190612590565b60405180910390f35b6101e460048036038101906101df91906125b2565b6106c2565b005b6101ee61075f565b005b61020a6004803603810190610205919061263d565b610773565b005b61021461078d565b60405161022191906126cf565b60405180910390f35b610244600480360381019061023f9190612716565b6107b7565b005b610260600480360381019061025b9190612756565b6107cd565b60405161026d9190611fd1565b60405180910390f35b610290600480360381019061028b9190612796565b610861565b005b6102ac60048036038101906102a7919061282d565b610902565b005b6102c860048036038101906102c3919061285a565b610985565b005b60008073ffffffffffffffffffffffffffffffffffffffff168373ffffffffffffffffffffffffffffffffffffffff160361033a576040517f08c379a00000000000000000000000000000000000000000000000000000000081526004016103319061291f565b60405180910390fd5b60008083815260200190815260200160002060008473ffffffffffffffffffffffffffffffffffffffff1673ffffffffffffffffffffffffffffffffffffffff16815260200190815260200160002054905092915050565b60007fd9b67a26000000000000000000000000000000000000000000000000000000007bffffffffffffffffffffffffffffffffffffffffffffffffffffffff1916827bffffffffffffffffffffffffffffffffffffffffffffffffffffffff1916148061045d57507f0e89341c000000000000000000000000000000000000000000000000000000007bffffffffffffffffffffffffffffffffffffffffffffffffffffffff1916827bffffffffffffffffffffffffffffffffffffffffffffffffffffffff1916145b8061046d575061046c82610a22565b5b9050919050565b6060600280546104839061296e565b80601f01602080910402602001604051908101604052809291908181526020018280546104af9061296e565b80156104fc5780601f106104d1576101008083540402835291602001916104fc565b820191906000526020600020905b8154815290600101906020018083116104df57829003601f168201915b50505050509050919050565b610510610a8c565b73ffffffffffffffffffffffffffffffffffffffff168573ffffffffffffffffffffffffffffffffffffffff161480610556575061055585610550610a8c565b6107cd565b5b610595576040517f08c379a000000000000000000000000000000000000000000000000000000000815260040161058c90612a11565b60405180910390fd5b6105a28585858585610a94565b5050505050565b606081518351146105ef576040517f08c379a00000000000000000000000000000000000000000000000000000000081526004016105e690612aa3565b60405180910390fd5b6000835167ffffffffffffffff81111561060c5761060b6120d0565b5b60405190808252806020026020018201604052801561063a5781602001602082028036833780820191505090505b50905060005b84518110156106b75761068785828151811061065f5761065e612ac3565b5b602002602001015185838151811061067a57610679612ac3565b5b60200260200101516102ca565b82828151811061069a57610699612ac3565b5b602002602001018181525050806106b090612b21565b9050610640565b508091505092915050565b6106ca610a8c565b73ffffffffffffffffffffffffffffffffffffffff168373ffffffffffffffffffffffffffffffffffffffff161480610710575061070f8361070a610a8c565b6107cd565b5b61074f576040517f08c379a000000000000000000000000000000000000000000000000000000000815260040161074690612a11565b60405180910390fd5b61075a838383610db5565b505050565b610767611083565b6107716000611101565b565b61077b611083565b610787848484846111c7565b50505050565b6000600360009054906101000a900473ffffffffffffffffffffffffffffffffffffffff16905090565b6107c96107c2610a8c565b8383611377565b5050565b6000600160008473ffffffffffffffffffffffffffffffffffffffff1673ffffffffffffffffffffffffffffffffffffffff16815260200190815260200160002060008373ffffffffffffffffffffffffffffffffffffffff1673ffffffffffffffffffffffffffffffffffffffff16815260200190815260200160002060009054906101000a900460ff16905092915050565b610869610a8c565b73ffffffffffffffffffffffffffffffffffffffff168573ffffffffffffffffffffffffffffffffffffffff1614806108af57506108ae856108a9610a8c565b6107cd565b5b6108ee576040517f08c379a00000000000000000000000000000000000000000000000000000000081526004016108e590612a11565b60405180910390fd5b6108fb85858585856114e3565b5050505050565b61090a611083565b600073ffffffffffffffffffffffffffffffffffffffff168173ffffffffffffffffffffffffffffffffffffffff1603610979576040517f08c379a000000000000000000000000000000000000000000000000000000000815260040161097090612bdb565b60405180910390fd5b61098281611101565b50565b61098d610a8c565b73ffffffffffffffffffffffffffffffffffffffff168373ffffffffffffffffffffffffffffffffffffffff1614806109d357506109d2836109cd610a8c565b6107cd565b5b610a12576040517f08c379a0000000000000000000000000000000000000000000000000000000008152600401610a0990612a11565b60405180910390fd5b610a1d83838361177e565b505050565b60007f01ffc9a7000000000000000000000000000000000000000000000000000000007bffffffffffffffffffffffffffffffffffffffffffffffffffffffff1916827bffffffffffffffffffffffffffffffffffffffffffffffffffffffff1916149050919050565b600033905090565b8151835114610ad8576040517f08c379a0000000000000000000000000000000000000000000000000000000008152600401610acf90612c6d565b60405180910390fd5b600073ffffffffffffffffffffffffffffffffffffffff168473ffffffffffffffffffffffffffffffffffffffff1603610b47576040517f08c379a0000000000000000000000000000000000000000000000000000000008152600401610b3e90612cff565b60405180910390fd5b6000610b51610a8c565b9050610b618187878787876119c4565b60005b8451811015610d12576000858281518110610b8257610b81612ac3565b5b602002602001015190506000858381518110610ba157610ba0612ac3565b5b60200260200101519050600080600084815260200190815260200160002060008b73ffffffffffffffffffffffffffffffffffffffff1673ffffffffffffffffffffffffffffffffffffffff16815260200190815260200160002054905081811015610c42576040517f08c379a0000000000000000000000000000000000000000000000000000000008152600401610c3990612d91565b60405180910390fd5b81810360008085815260200190815260200160002060008c73ffffffffffffffffffffffffffffffffffffffff1673ffffffffffffffffffffffffffffffffffffffff168152602001908152602001600020819055508160008085815260200190815260200160002060008b73ffffffffffffffffffffffffffffffffffffffff1673ffffffffffffffffffffffffffffffffffffffff1681526020019081526020016000206000828254610cf79190612db1565b9250508190555050505080610d0b90612b21565b9050610b64565b508473ffffffffffffffffffffffffffffffffffffffff168673ffffffffffffffffffffffffffffffffffffffff168273ffffffffffffffffffffffffffffffffffffffff167f4a39dc06d4c0dbc64b70af90fd698a233a518aa5d07e595d983b8c0526c8f7fb8787604051610d89929190612de5565b60405180910390a4610d9f8187878787876119cc565b610dad8187878787876119d4565b505050505050565b600073ffffffffffffffffffffffffffffffffffffffff168373ffffffffffffffffffffffffffffffffffffffff1603610e24576040517f08c379a0000000000000000000000000000000000000000000000000000000008152600401610e1b90612e8e565b60405180910390fd5b8051825114610e68576040517f08c379a0000000000000000000000000000000000000000000000000000000008152600401610e5f90612c6d565b60405180910390fd5b6000610e72610a8c565b9050610e92818560008686604051806020016040528060008152506119c4565b60005b8351811015610fdf576000848281518110610eb357610eb2612ac3565b5b602002602001015190506000848381518110610ed257610ed1612ac3565b5b60200260200101519050600080600084815260200190815260200160002060008973ffffffffffffffffffffffffffffffffffffffff1673ffffffffffffffffffffffffffffffffffffffff16815260200190815260200160002054905081811015610f73576040517f08c379a0000000000000000000000000000000000000000000000000000000008152600401610f6a90612f20565b60405180910390fd5b81810360008085815260200190815260200160002060008a73ffffffffffffffffffffffffffffffffffffffff1673ffffffffffffffffffffffffffffffffffffffff168152602001908152602001600020819055505050508080610fd790612b21565b915050610e95565b50600073ffffffffffffffffffffffffffffffffffffffff168473ffffffffffffffffffffffffffffffffffffffff168273ffffffffffffffffffffffffffffffffffffffff167f4a39dc06d4c0dbc64b70af90fd698a233a518aa5d07e595d983b8c0526c8f7fb8686604051611057929190612de5565b60405180910390a461107d818560008686604051806020016040528060008152506119cc565b50505050565b61108b610a8c565b73ffffffffffffffffffffffffffffffffffffffff166110a961078d565b73ffffffffffffffffffffffffffffffffffffffff16146110ff576040517f08c379a00000000000000000000000000000000000000000000000000000000081526004016110f690612f8c565b60405180910390fd5b565b6000600360009054906101000a900473ffffffffffffffffffffffffffffffffffffffff16905081600360006101000a81548173ffffffffffffffffffffffffffffffffffffffff021916908373ffffffffffffffffffffffffffffffffffffffff1602179055508173ffffffffffffffffffffffffffffffffffffffff168173ffffffffffffffffffffffffffffffffffffffff167f8be0079c531659141344cd1fd0a4f28419497f9722a3daafe3b4186f6b6457e060405160405180910390a35050565b600073ffffffffffffffffffffffffffffffffffffffff168473ffffffffffffffffffffffffffffffffffffffff1603611236576040517f08c379a000000000000000000000000000000000000000000000000000000000815260040161122d9061301e565b60405180910390fd5b6000611240610a8c565b9050600061124d85611bab565b9050600061125a85611bab565b905061126b836000898585896119c4565b8460008088815260200190815260200160002060008973ffffffffffffffffffffffffffffffffffffffff1673ffffffffffffffffffffffffffffffffffffffff16815260200190815260200160002060008282546112ca9190612db1565b925050819055508673ffffffffffffffffffffffffffffffffffffffff16600073ffffffffffffffffffffffffffffffffffffffff168473ffffffffffffffffffffffffffffffffffffffff167fc3d58168c5ae7397731d063d5bbf3d657854427343f4c083240f7aacaa2d0f62898960405161134892919061303e565b60405180910390a461135f836000898585896119cc565b61136e83600089898989611c25565b50505050505050565b8173ffffffffffffffffffffffffffffffffffffffff168373ffffffffffffffffffffffffffffffffffffffff16036113e5576040517f08c379a00000000000000000000000000000000000000000000000000000000081526004016113dc906130d9565b60405180910390fd5b80600160008573ffffffffffffffffffffffffffffffffffffffff1673ffffffffffffffffffffffffffffffffffffffff16815260200190815260200160002060008473ffffffffffffffffffffffffffffffffffffffff1673ffffffffffffffffffffffffffffffffffffffff16815260200190815260200160002060006101000a81548160ff0219169083151502179055508173ffffffffffffffffffffffffffffffffffffffff168373ffffffffffffffffffffffffffffffffffffffff167f17307eab39ab6107e8899845ad3d59bd9653f200f220920489ca2b5937696c31836040516114d69190611fd1565b60405180910390a3505050565b600073ffffffffffffffffffffffffffffffffffffffff168473ffffffffffffffffffffffffffffffffffffffff1603611552576040517f08c379a000000000000000000000000000000000000000000000000000000000815260040161154990612cff565b60405180910390fd5b600061155c610a8c565b9050600061156985611bab565b9050600061157685611bab565b90506115868389898585896119c4565b600080600088815260200190815260200160002060008a73ffffffffffffffffffffffffffffffffffffffff1673ffffffffffffffffffffffffffffffffffffffff1681526020019081526020016000205490508581101561161d576040517f08c379a000000000000000000000000000000000000000000000000000000000815260040161161490612d91565b60405180910390fd5b85810360008089815260200190815260200160002060008b73ffffffffffffffffffffffffffffffffffffffff1673ffffffffffffffffffffffffffffffffffffffff168152602001908152602001600020819055508560008089815260200190815260200160002060008a73ffffffffffffffffffffffffffffffffffffffff1673ffffffffffffffffffffffffffffffffffffffff16815260200190815260200160002060008282546116d29190612db1565b925050819055508773ffffffffffffffffffffffffffffffffffffffff168973ffffffffffffffffffffffffffffffffffffffff168573ffffffffffffffffffffffffffffffffffffffff167fc3d58168c5ae7397731d063d5bbf3d657854427343f4c083240f7aacaa2d0f628a8a60405161174f92919061303e565b60405180910390a4611765848a8a86868a6119cc565b611773848a8a8a8a8a611c25565b505050505050505050565b600073ffffffffffffffffffffffffffffffffffffffff168373ffffffffffffffffffffffffffffffffffffffff16036117ed576040517f08c379a00000000000000000000000000000000000000000000000000000000081526004016117e490612e8e565b60405180910390fd5b60006117f7610a8c565b9050600061180484611bab565b9050600061181184611bab565b9050611831838760008585604051806020016040528060008152506119c4565b600080600087815260200190815260200160002060008873ffffffffffffffffffffffffffffffffffffffff1673ffffffffffffffffffffffffffffffffffffffff168152602001908152602001600020549050848110156118c8576040517f08c379a00000000000000000000000000000000000000000000000000000000081526004016118bf90612f20565b60405180910390fd5b84810360008088815260200190815260200160002060008973ffffffffffffffffffffffffffffffffffffffff1673ffffffffffffffffffffffffffffffffffffffff16815260200190815260200160002081905550600073ffffffffffffffffffffffffffffffffffffffff168773ffffffffffffffffffffffffffffffffffffffff168573ffffffffffffffffffffffffffffffffffffffff167fc3d58168c5ae7397731d063d5bbf3d657854427343f4c083240f7aacaa2d0f62898960405161199592919061303e565b60405180910390a46119bb848860008686604051806020016040528060008152506119cc565b50505050505050565b505050505050565b505050505050565b6119f38473ffffffffffffffffffffffffffffffffffffffff16611dfc565b15611ba3578373ffffffffffffffffffffffffffffffffffffffff1663bc197c8187878686866040518663ffffffff1660e01b8152600401611a3995949392919061314e565b6020604051808303816000875af1925050508015611a7557506040513d601f19601f82011682018060405250810190611a7291906131cb565b60015b611b1a57611a81613205565b806308c379a003611add5750611a95613227565b80611aa05750611adf565b806040517f08c379a0000000000000000000000000000000000000000000000000000000008152600401611ad491906120a9565b60405180910390fd5b505b6040517f08c379a0000000000000000000000000000000000000000000000000000000008152600401611b1190613329565b60405180910390fd5b63bc197c8160e01b7bffffffffffffffffffffffffffffffffffffffffffffffffffffffff1916817bffffffffffffffffffffffffffffffffffffffffffffffffffffffff191614611ba1576040517f08c379a0000000000000000000000000000000000000000000000000000000008152600401611b98906133bb565b60405180910390fd5b505b505050505050565b60606000600167ffffffffffffffff811115611bca57611bc96120d0565b5b604051908082528060200260200182016040528015611bf85781602001602082028036833780820191505090505b5090508281600081518110611c1057611c0f612ac3565b5b60200260200101818152505080915050919050565b611c448473ffffffffffffffffffffffffffffffffffffffff16611dfc565b15611df4578373ffffffffffffffffffffffffffffffffffffffff1663f23a6e6187878686866040518663ffffffff1660e01b8152600401611c8a9594939291906133db565b6020604051808303816000875af1925050508015611cc657506040513d601f19601f82011682018060405250810190611cc391906131cb565b60015b611d6b57611cd2613205565b806308c379a003611d2e5750611ce6613227565b80611cf15750611d30565b806040517f08c379a0000000000000000000000000000000000000000000000000000000008152600401611d2591906120a9565b60405180910390fd5b505b6040517f08c379a0000000000000000000000000000000000000000000000000000000008152600401611d6290613329565b60405180910390fd5b63f23a6e6160e01b7bffffffffffffffffffffffffffffffffffffffffffffffffffffffff1916817bffffffffffffffffffffffffffffffffffffffffffffffffffffffff191614611df2576040517f08c379a0000000000000000000000000000000000000000000000000000000008152600401611de9906133bb565b60405180910390fd5b505b505050505050565b6000808273ffffffffffffffffffffffffffffffffffffffff163b119050919050565b6000604051905090565b600080fd5b600080fd5b600073ffffffffffffffffffffffffffffffffffffffff82169050919050565b6000611e5e82611e33565b9050919050565b611e6e81611e53565b8114611e7957600080fd5b50565b600081359050611e8b81611e65565b92915050565b6000819050919050565b611ea481611e91565b8114611eaf57600080fd5b50565b600081359050611ec181611e9b565b92915050565b60008060408385031215611ede57611edd611e29565b5b6000611eec85828601611e7c565b9250506020611efd85828601611eb2565b9150509250929050565b611f1081611e91565b82525050565b6000602082019050611f2b6000830184611f07565b92915050565b60007fffffffff0000000000000000000000000000000000000000000000000000000082169050919050565b611f6681611f31565b8114611f7157600080fd5b50565b600081359050611f8381611f5d565b92915050565b600060208284031215611f9f57611f9e611e29565b5b6000611fad84828501611f74565b91505092915050565b60008115159050919050565b611fcb81611fb6565b82525050565b6000602082019050611fe66000830184611fc2565b92915050565b60006020828403121561200257612001611e29565b5b600061201084828501611eb2565b91505092915050565b600081519050919050565b600082825260208201905092915050565b60005b83811015612053578082015181840152602081019050612038565b60008484015250505050565b6000601f19601f8301169050919050565b600061207b82612019565b6120858185612024565b9350612095818560208601612035565b61209e8161205f565b840191505092915050565b600060208201905081810360008301526120c38184612070565b905092915050565b600080fd5b7f4e487b7100000000000000000000000000000000000000000000000000000000600052604160045260246000fd5b6121088261205f565b810181811067ffffffffffffffff82111715612127576121266120d0565b5b80604052505050565b600061213a611e1f565b905061214682826120ff565b919050565b600067ffffffffffffffff821115612166576121656120d0565b5b602082029050602081019050919050565b600080fd5b600061218f61218a8461214b565b612130565b905080838252602082019050602084028301858111156121b2576121b1612177565b5b835b818110156121db57806121c78882611eb2565b8452602084019350506020810190506121b4565b5050509392505050565b600082601f8301126121fa576121f96120cb565b5b813561220a84826020860161217c565b91505092915050565b600080fd5b600067ffffffffffffffff821115612233576122326120d0565b5b61223c8261205f565b9050602081019050919050565b82818337600083830152505050565b600061226b61226684612218565b612130565b90508281526020810184848401111561228757612286612213565b5b612292848285612249565b509392505050565b600082601f8301126122af576122ae6120cb565b5b81356122bf848260208601612258565b91505092915050565b600080600080600060a086880312156122e4576122e3611e29565b5b60006122f288828901611e7c565b955050602061230388828901611e7c565b945050604086013567ffffffffffffffff81111561232457612323611e2e565b5b612330888289016121e5565b935050606086013567ffffffffffffffff81111561235157612350611e2e565b5b61235d888289016121e5565b925050608086013567ffffffffffffffff81111561237e5761237d611e2e565b5b61238a8882890161229a565b9150509295509295909350565b600067ffffffffffffffff8211156123b2576123b16120d0565b5b602082029050602081019050919050565b60006123d66123d184612397565b612130565b905080838252602082019050602084028301858111156123f9576123f8612177565b5b835b81811015612422578061240e8882611e7c565b8452602084019350506020810190506123fb565b5050509392505050565b600082601f830112612441576124406120cb565b5b81356124518482602086016123c3565b91505092915050565b6000806040838503121561247157612470611e29565b5b600083013567ffffffffffffffff81111561248f5761248e611e2e565b5b61249b8582860161242c565b925050602083013567ffffffffffffffff8111156124bc576124bb611e2e565b5b6124c8858286016121e5565b9150509250929050565b600081519050919050565b600082825260208201905092915050565b6000819050602082019050919050565b61250781611e91565b82525050565b600061251983836124fe565b60208301905092915050565b6000602082019050919050565b600061253d826124d2565b61254781856124dd565b9350612552836124ee565b8060005b8381101561258357815161256a888261250d565b975061257583612525565b925050600181019050612556565b5085935050505092915050565b600060208201905081810360008301526125aa8184612532565b905092915050565b6000806000606084860312156125cb576125ca611e29565b5b60006125d986828701611e7c565b935050602084013567ffffffffffffffff8111156125fa576125f9611e2e565b5b612606868287016121e5565b925050604084013567ffffffffffffffff81111561262757612626611e2e565b5b612633868287016121e5565b9150509250925092565b6000806000806080858703121561265757612656611e29565b5b600061266587828801611e7c565b945050602061267687828801611eb2565b935050604061268787828801611eb2565b925050606085013567ffffffffffffffff8111156126a8576126a7611e2e565b5b6126b48782880161229a565b91505092959194509250565b6126c981611e53565b82525050565b60006020820190506126e460008301846126c0565b92915050565b6126f381611fb6565b81146126fe57600080fd5b50565b600081359050612710816126ea565b92915050565b6000806040838503121561272d5761272c611e29565b5b600061273b85828601611e7c565b925050602061274c85828601612701565b9150509250929050565b6000806040838503121561276d5761276c611e29565b5b600061277b85828601611e7c565b925050602061278c85828601611e7c565b9150509250929050565b600080600080600060a086880312156127b2576127b1611e29565b5b60006127c088828901611e7c565b95505060206127d188828901611e7c565b94505060406127e288828901611eb2565b93505060606127f388828901611eb2565b925050608086013567ffffffffffffffff81111561281457612813611e2e565b5b6128208882890161229a565b9150509295509295909350565b60006020828403121561284357612842611e29565b5b600061285184828501611e7c565b91505092915050565b60008060006060848603121561287357612872611e29565b5b600061288186828701611e7c565b935050602061289286828701611eb2565b92505060406128a386828701611eb2565b9150509250925092565b7f455243313135353a2061646472657373207a65726f206973206e6f742061207660008201527f616c6964206f776e657200000000000000000000000000000000000000000000602082015250565b6000612909602a83612024565b9150612914826128ad565b604082019050919050565b60006020820190508181036000830152612938816128fc565b9050919050565b7f4e487b7100000000000000000000000000000000000000000000000000000000600052602260045260246000fd5b6000600282049050600182168061298657607f821691505b6020821081036129995761299861293f565b5b50919050565b7f455243313135353a2063616c6c6572206973206e6f7420746f6b656e206f776e60008201527f6572206f7220617070726f766564000000000000000000000000000000000000602082015250565b60006129fb602e83612024565b9150612a068261299f565b604082019050919050565b60006020820190508181036000830152612a2a816129ee565b9050919050565b7f455243313135353a206163636f756e747320616e6420696473206c656e67746860008201527f206d69736d617463680000000000000000000000000000000000000000000000602082015250565b6000612a8d602983612024565b9150612a9882612a31565b604082019050919050565b60006020820190508181036000830152612abc81612a80565b9050919050565b7f4e487b7100000000000000000000000000000000000000000000000000000000600052603260045260246000fd5b7f4e487b7100000000000000000000000000000000000000000000000000000000600052601160045260246000fd5b6000612b2c82611e91565b91507fffffffffffffffffffffffffffffffffffffffffffffffffffffffffffffffff8203612b5e57612b5d612af2565b5b600182019050919050565b7f4f776e61626c653a206e6577206f776e657220697320746865207a65726f206160008201527f6464726573730000000000000000000000000000000000000000000000000000602082015250565b6000612bc5602683612024565b9150612bd082612b69565b604082019050919050565b60006020820190508181036000830152612bf481612bb8565b9050919050565b7f455243313135353a2069647320616e6420616d6f756e7473206c656e6774682060008201527f6d69736d61746368000000000000000000000000000000000000000000000000602082015250565b6000612c57602883612024565b9150612c6282612bfb565b604082019050919050565b60006020820190508181036000830152612c8681612c4a565b9050919050565b7f455243313135353a207472616e7366657220746f20746865207a65726f20616460008201527f6472657373000000000000000000000000000000000000000000000000000000602082015250565b6000612ce9602583612024565b9150612cf482612c8d565b604082019050919050565b60006020820190508181036000830152612d1881612cdc565b9050919050565b7f455243313135353a20696e73756666696369656e742062616c616e636520666f60008201527f72207472616e7366657200000000000000000000000000000000000000000000602082015250565b6000612d7b602a83612024565b9150612d8682612d1f565b604082019050919050565b60006020820190508181036000830152612daa81612d6e565b9050919050565b6000612dbc82611e91565b9150612dc783611e91565b9250828201905080821115612ddf57612dde612af2565b5b92915050565b60006040820190508181036000830152612dff8185612532565b90508181036020830152612e138184612532565b90509392505050565b7f455243313135353a206275726e2066726f6d20746865207a65726f206164647260008201527f6573730000000000000000000000000000000000000000000000000000000000602082015250565b6000612e78602383612024565b9150612e8382612e1c565b604082019050919050565b60006020820190508181036000830152612ea781612e6b565b9050919050565b7f455243313135353a206275726e20616d6f756e7420657863656564732062616c60008201527f616e636500000000000000000000000000000000000000000000000000000000602082015250565b6000612f0a602483612024565b9150612f1582612eae565b604082019050919050565b60006020820190508181036000830152612f3981612efd565b9050919050565b7f4f776e61626c653a2063616c6c6572206973206e6f7420746865206f776e6572600082015250565b6000612f76602083612024565b9150612f8182612f40565b602082019050919050565b60006020820190508181036000830152612fa581612f69565b9050919050565b7f455243313135353a206d696e7420746f20746865207a65726f2061646472657360008201527f7300000000000000000000000000000000000000000000000000000000000000602082015250565b6000613008602183612024565b915061301382612fac565b604082019050919050565b6000602082019050818103600083015261303781612ffb565b9050919050565b60006040820190506130536000830185611f07565b6130606020830184611f07565b9392505050565b7f455243313135353a2073657474696e6720617070726f76616c2073746174757360008201527f20666f722073656c660000000000000000000000000000000000000000000000602082015250565b60006130c3602983612024565b91506130ce82613067565b604082019050919050565b600060208201905081810360008301526130f2816130b6565b9050919050565b600081519050919050565b600082825260208201905092915050565b6000613120826130f9565b61312a8185613104565b935061313a818560208601612035565b6131438161205f565b840191505092915050565b600060a08201905061316360008301886126c0565b61317060208301876126c0565b81810360408301526131828186612532565b905081810360608301526131968185612532565b905081810360808301526131aa8184613115565b90509695505050505050565b6000815190506131c581611f5d565b92915050565b6000602082840312156131e1576131e0611e29565b5b60006131ef848285016131b6565b91505092915050565b60008160e01c9050919050565b600060033d11156132245760046000803e6132216000516131f8565b90505b90565b600060443d106132b457613239611e1f565b60043d036004823e80513d602482011167ffffffffffffffff821117156132615750506132b4565b808201805167ffffffffffffffff81111561327f57505050506132b4565b80602083010160043d03850181111561329c5750505050506132b4565b6132ab826020018501866120ff565b82955050505050505b90565b7f455243313135353a207472616e7366657220746f206e6f6e2d4552433131353560008201527f526563656976657220696d706c656d656e746572000000000000000000000000602082015250565b6000613313603483612024565b915061331e826132b7565b604082019050919050565b6000602082019050818103600083015261334281613306565b9050919050565b7f455243313135353a204552433131353552656365697665722072656a6563746560008201527f6420746f6b656e73000000000000000000000000000000000000000000000000602082015250565b60006133a5602883612024565b91506133b082613349565b604082019050919050565b600060208201905081810360008301526133d481613398565b9050919050565b600060a0820190506133f060008301886126c0565b6133fd60208301876126c0565b61340a6040830186611f07565b6134176060830185611f07565b81810360808301526134298184613115565b9050969550505050505056fea2646970667358221220b355cb76da3543565fb63e442722bf3a56c11bd29161cee0234f7a5570c78ba764736f6c63430008120033a2646970667358221220e6b3d4dc359c9235f695d7f988e42637fee93a7f3a54fe0afe8cf4171ad0f7e864736f6c63430008120033",
  "linkReferences": {},
  "deployedLinkReferences": {}
}