{
  "_format": "hh-sol-artifact-1",
  "contractName": "QapturState",
  "sourceName": "contracts/QapturState.sol",
  "abi": [
    {
      "anonymous": false,
      "inputs": [
        {
          "indexed": false,
          "internalType": "uint256",
          "name": "projectId",
          "type": "uint256"
        },
        {
          "indexed": false,
          "internalType": "uint256",
          "name": "supply",
          "type": "uint256"
        }
      ],
      "name": "AvailableSupplyUpdated",
      "type": "event"
    },
    {
      "anonymous": false,
      "inputs": [
        {
          "indexed": false,
          "internalType": "string",
          "name": "name",
          "type": "string"
        },
        {
          "indexed": false,
          "internalType": "address",
          "name": "contractAddr",
          "type": "address"
        }
      ],
      "name": "ContractAdressUpdated",
      "type": "event"
    },
    {
      "anonymous": false,
      "inputs": [
        {
          "indexed": false,
          "internalType": "uint256",
          "name": "id",
          "type": "uint256"
        },
        {
          "indexed": false,
          "internalType": "address",
          "name": "qlandAddr",
          "type": "address"
        },
        {
          "indexed": false,
          "internalType": "address",
          "name": "qco2Addr",
          "type": "address"
        },
        {
          "indexed": false,
          "internalType": "uint256",
          "name": "supply",
          "type": "uint256"
        },
        {
          "indexed": false,
          "internalType": "uint256",
          "name": "price",
          "type": "uint256"
        }
      ],
      "name": "NewProjectDeployed",
      "type": "event"
    },
    {
      "anonymous": false,
      "inputs": [
        {
          "indexed": true,
          "internalType": "address",
          "name": "previousOwner",
          "type": "address"
        },
        {
          "indexed": true,
          "internalType": "address",
          "name": "newOwner",
          "type": "address"
        }
      ],
      "name": "OwnershipTransferred",
      "type": "event"
    },
    {
      "anonymous": false,
      "inputs": [
        {
          "indexed": false,
          "internalType": "uint256",
          "name": "projectId",
          "type": "uint256"
        },
        {
          "indexed": false,
          "internalType": "uint256",
          "name": "price",
          "type": "uint256"
        }
      ],
      "name": "PriceUpdated",
      "type": "event"
    },
    {
      "anonymous": false,
      "inputs": [
        {
          "indexed": false,
          "internalType": "uint256",
          "name": "projectId",
          "type": "uint256"
        },
        {
          "indexed": false,
          "internalType": "string",
          "name": "url",
          "type": "string"
        }
      ],
      "name": "UrlUpdated",
      "type": "event"
    },
    {
      "inputs": [
        {
          "internalType": "address",
          "name": "_qlandAddr",
          "type": "address"
        },
        {
          "internalType": "address",
          "name": "_qco2Addr",
          "type": "address"
        },
        {
          "internalType": "uint256",
          "name": "_qlandTotalSupply",
          "type": "uint256"
        },
        {
          "internalType": "uint256",
          "name": "_qlandPrice",
          "type": "uint256"
        },
        {
          "internalType": "string",
          "name": "_jsonUrl",
          "type": "string"
        }
      ],
      "name": "addProjectData",
      "outputs": [],
      "stateMutability": "nonpayable",
      "type": "function"
    },
    {
      "inputs": [
        {
          "internalType": "uint256",
          "name": "_projectId",
          "type": "uint256"
        }
      ],
      "name": "getAvailableSupply",
      "outputs": [
        {
          "internalType": "uint256",
          "name": "",
          "type": "uint256"
        }
      ],
      "stateMutability": "view",
      "type": "function"
    },
    {
      "inputs": [],
      "name": "getQlandMarketplaceAddress",
      "outputs": [
        {
          "internalType": "address",
          "name": "",
          "type": "address"
        }
      ],
      "stateMutability": "view",
      "type": "function"
    },
    {
      "inputs": [
        {
          "internalType": "uint256",
          "name": "_projectId",
          "type": "uint256"
        }
      ],
      "name": "getUrl",
      "outputs": [
        {
          "internalType": "string",
          "name": "",
          "type": "string"
        }
      ],
      "stateMutability": "view",
      "type": "function"
    },
    {
      "inputs": [],
      "name": "owner",
      "outputs": [
        {
          "internalType": "address",
          "name": "",
          "type": "address"
        }
      ],
      "stateMutability": "view",
      "type": "function"
    },
    {
      "inputs": [
        {
          "internalType": "uint256",
          "name": "",
          "type": "uint256"
        }
      ],
      "name": "projects",
      "outputs": [
        {
          "internalType": "address",
          "name": "qlandAddr",
          "type": "address"
        },
        {
          "internalType": "address",
          "name": "qco2Addr",
          "type": "address"
        },
        {
          "internalType": "uint256",
          "name": "totalSupply",
          "type": "uint256"
        },
        {
          "internalType": "uint256",
          "name": "availableSupply",
          "type": "uint256"
        },
        {
          "internalType": "uint256",
          "name": "price",
          "type": "uint256"
        },
        {
          "internalType": "uint256",
          "name": "lastDistribution",
          "type": "uint256"
        },
        {
          "internalType": "string",
          "name": "url",
          "type": "string"
        }
      ],
      "stateMutability": "view",
      "type": "function"
    },
    {
      "inputs": [],
      "name": "renounceOwnership",
      "outputs": [],
      "stateMutability": "nonpayable",
      "type": "function"
    },
    {
      "inputs": [
        {
          "internalType": "address",
          "name": "_contractAddr",
          "type": "address"
        }
      ],
      "name": "setFactoryAddress",
      "outputs": [],
      "stateMutability": "nonpayable",
      "type": "function"
    },
    {
      "inputs": [
        {
          "internalType": "address",
          "name": "_contractAddr",
          "type": "address"
        }
      ],
      "name": "setQlandMarketplaceAddress",
      "outputs": [],
      "stateMutability": "nonpayable",
      "type": "function"
    },
    {
      "inputs": [
        {
          "internalType": "address",
          "name": "_contractAddr",
          "type": "address"
        }
      ],
      "name": "setRewardAddress",
      "outputs": [],
      "stateMutability": "nonpayable",
      "type": "function"
    },
    {
      "inputs": [
        {
          "internalType": "address",
          "name": "newOwner",
          "type": "address"
        }
      ],
      "name": "transferOwnership",
      "outputs": [],
      "stateMutability": "nonpayable",
      "type": "function"
    },
    {
      "inputs": [
        {
          "internalType": "uint256",
          "name": "_projectId",
          "type": "uint256"
        },
        {
          "internalType": "uint256",
          "name": "_newValue",
          "type": "uint256"
        }
      ],
      "name": "updateAvailableSupply",
      "outputs": [],
      "stateMutability": "nonpayable",
      "type": "function"
    },
    {
      "inputs": [
        {
          "internalType": "uint256",
          "name": "_projectId",
          "type": "uint256"
        },
        {
          "internalType": "uint256",
          "name": "_newValue",
          "type": "uint256"
        }
      ],
      "name": "updatePrice",
      "outputs": [],
      "stateMutability": "nonpayable",
      "type": "function"
    },
    {
      "inputs": [
        {
          "internalType": "uint256",
          "name": "_projectId",
          "type": "uint256"
        },
        {
          "internalType": "string",
          "name": "_newUrl",
          "type": "string"
        }
      ],
      "name": "updateUrl",
      "outputs": [],
      "stateMutability": "nonpayable",
      "type": "function"
    }
  ],
  "bytecode": "0x608060405234801561001057600080fd5b5061002d61002261003260201b60201c565b61003a60201b60201c565b6100fe565b600033905090565b60008060009054906101000a900473ffffffffffffffffffffffffffffffffffffffff169050816000806101000a81548173ffffffffffffffffffffffffffffffffffffffff021916908373ffffffffffffffffffffffffffffffffffffffff1602179055508173ffffffffffffffffffffffffffffffffffffffff168173ffffffffffffffffffffffffffffffffffffffff167f8be0079c531659141344cd1fd0a4f28419497f9722a3daafe3b4186f6b6457e060405160405180910390a35050565b611e428061010d6000396000f3fe608060405234801561001057600080fd5b50600436106100ea5760003560e01c806382367b2d1161008c57806385ac73811161006657806385ac7381146102375780638da5cb5b14610253578063f2fde38b14610271578063f47448b31461028d576100ea565b806382367b2d146101cf57806383c17c55146101eb57806385604d8914610207576100ea565b80635e00e679116100c85780635e00e6791461015d578063715018a6146101795780637b734485146101835780638051522d1461019f576100ea565b80630aecb734146100ef578063107046bd1461010b5780632244e38a14610141575b600080fd5b610109600480360381019061010491906111f5565b6102ab565b005b61012560048036038101906101209190611255565b61039d565b6040516101389796959493929190611362565b60405180910390f35b61015b60048036038101906101569190611404565b6104a7565b005b6101776004803603810190610172919061149e565b61075d565b005b6101816108a7565b005b61019d6004803603810190610198919061149e565b6108bb565b005b6101b960048036038101906101b49190611255565b610a05565b6040516101c691906114cb565b60405180910390f35b6101e960048036038101906101e491906114e6565b610a25565b005b6102056004803603810190610200919061149e565b610b09565b005b610221600480360381019061021c9190611255565b610c53565b60405161022e9190611526565b60405180910390f35b610251600480360381019061024c91906114e6565b610cfb565b005b61025b610ddf565b6040516102689190611548565b60405180910390f35b61028b6004803603810190610286919061149e565b610e08565b005b610295610e8b565b6040516102a29190611548565b60405180910390f35b600460003373ffffffffffffffffffffffffffffffffffffffff1673ffffffffffffffffffffffffffffffffffffffff16815260200190815260200160002060009054906101000a900460ff16610337576040517f08c379a000000000000000000000000000000000000000000000000000000000815260040161032e906115af565b60405180910390fd5b818160056000868152602001908152602001600020600601918261035c929190611815565b507fa8307a7548d7e5f377e0fb6b0b19afc9d31f4e4f7f3c130f1e306d81f54dc6e483838360405161039093929190611921565b60405180910390a1505050565b60056020528060005260406000206000915090508060000160009054906101000a900473ffffffffffffffffffffffffffffffffffffffff16908060010160009054906101000a900473ffffffffffffffffffffffffffffffffffffffff169080600201549080600301549080600401549080600501549080600601805461042490611638565b80601f016020809104026020016040519081016040528092919081815260200182805461045090611638565b801561049d5780601f106104725761010080835404028352916020019161049d565b820191906000526020600020905b81548152906001019060200180831161048057829003601f168201915b5050505050905087565b600460003373ffffffffffffffffffffffffffffffffffffffff1673ffffffffffffffffffffffffffffffffffffffff16815260200190815260200160002060009054906101000a900460ff16610533576040517f08c379a000000000000000000000000000000000000000000000000000000000815260040161052a906115af565b60405180910390fd5b6105726040518060400160405280600e81526020017f41646450726f6a6563744461746100000000000000000000000000000000000081525087610f41565b6001600660008282546105859190611982565b925050819055506040518060e001604052808773ffffffffffffffffffffffffffffffffffffffff1681526020018673ffffffffffffffffffffffffffffffffffffffff1681526020018581526020018581526020018481526020016000815260200183838080601f016020809104026020016040519081016040528093929190818152602001838380828437600081840152601f19601f8201169050808301925050505050505081525060056000600654815260200190815260200160002060008201518160000160006101000a81548173ffffffffffffffffffffffffffffffffffffffff021916908373ffffffffffffffffffffffffffffffffffffffff16021790555060208201518160010160006101000a81548173ffffffffffffffffffffffffffffffffffffffff021916908373ffffffffffffffffffffffffffffffffffffffff16021790555060408201518160020155606082015181600301556080820151816004015560a0820151816005015560c082015181600601908161071091906119b6565b509050507f3f0ab3a70e4ed73b1c391271eecd659070b29a88c38226657fc7814d578b90d66006548787878760405161074d959493929190611a88565b60405180910390a1505050505050565b610765610fdd565b600073ffffffffffffffffffffffffffffffffffffffff168173ffffffffffffffffffffffffffffffffffffffff16036107d4576040517f08c379a00000000000000000000000000000000000000000000000000000000081526004016107cb90611b27565b60405180910390fd5b80600260006101000a81548173ffffffffffffffffffffffffffffffffffffffff021916908373ffffffffffffffffffffffffffffffffffffffff1602179055506001600460008373ffffffffffffffffffffffffffffffffffffffff1673ffffffffffffffffffffffffffffffffffffffff16815260200190815260200160002060006101000a81548160ff0219169083151502179055507f506c30422dfa2e919e5cdaf8181fc9b9e44f789be845d91587a125c32db7ef678160405161089c9190611b93565b60405180910390a150565b6108af610fdd565b6108b9600061105b565b565b6108c3610fdd565b600073ffffffffffffffffffffffffffffffffffffffff168173ffffffffffffffffffffffffffffffffffffffff1603610932576040517f08c379a000000000000000000000000000000000000000000000000000000000815260040161092990611b27565b60405180910390fd5b80600360006101000a81548173ffffffffffffffffffffffffffffffffffffffff021916908373ffffffffffffffffffffffffffffffffffffffff1602179055506001600460008373ffffffffffffffffffffffffffffffffffffffff1673ffffffffffffffffffffffffffffffffffffffff16815260200190815260200160002060006101000a81548160ff0219169083151502179055507f506c30422dfa2e919e5cdaf8181fc9b9e44f789be845d91587a125c32db7ef67816040516109fa9190611c0d565b60405180910390a150565b600060056000838152602001908152602001600020600301549050919050565b600460003373ffffffffffffffffffffffffffffffffffffffff1673ffffffffffffffffffffffffffffffffffffffff16815260200190815260200160002060009054906101000a900460ff16610ab1576040517f08c379a0000000000000000000000000000000000000000000000000000000008152600401610aa8906115af565b60405180910390fd5b8060056000848152602001908152602001600020600401819055507f945c1c4e99aa89f648fbfe3df471b916f719e16d960fcec0737d4d56bd6968388282604051610afd929190611c3b565b60405180910390a15050565b610b11610fdd565b600073ffffffffffffffffffffffffffffffffffffffff168173ffffffffffffffffffffffffffffffffffffffff1603610b80576040517f08c379a0000000000000000000000000000000000000000000000000000000008152600401610b7790611b27565b60405180910390fd5b80600160006101000a81548173ffffffffffffffffffffffffffffffffffffffff021916908373ffffffffffffffffffffffffffffffffffffffff1602179055506001600460008373ffffffffffffffffffffffffffffffffffffffff1673ffffffffffffffffffffffffffffffffffffffff16815260200190815260200160002060006101000a81548160ff0219169083151502179055507f506c30422dfa2e919e5cdaf8181fc9b9e44f789be845d91587a125c32db7ef6781604051610c489190611cb0565b60405180910390a150565b6060600560008381526020019081526020016000206006018054610c7690611638565b80601f0160208091040260200160405190810160405280929190818152602001828054610ca290611638565b8015610cef5780601f10610cc457610100808354040283529160200191610cef565b820191906000526020600020905b815481529060010190602001808311610cd257829003601f168201915b50505050509050919050565b600460003373ffffffffffffffffffffffffffffffffffffffff1673ffffffffffffffffffffffffffffffffffffffff16815260200190815260200160002060009054906101000a900460ff16610d87576040517f08c379a0000000000000000000000000000000000000000000000000000000008152600401610d7e906115af565b60405180910390fd5b8060056000848152602001908152602001600020600301819055507f58c02ee727c732ff26939b227cb4a3d6514e9f972afaa3efb9294a5f4ea9d3288282604051610dd3929190611c3b565b60405180910390a15050565b60008060009054906101000a900473ffffffffffffffffffffffffffffffffffffffff16905090565b610e10610fdd565b600073ffffffffffffffffffffffffffffffffffffffff168173ffffffffffffffffffffffffffffffffffffffff1603610e7f576040517f08c379a0000000000000000000000000000000000000000000000000000000008152600401610e7690611d50565b60405180910390fd5b610e888161105b565b50565b6000600460003373ffffffffffffffffffffffffffffffffffffffff1673ffffffffffffffffffffffffffffffffffffffff16815260200190815260200160002060009054906101000a900460ff16610f19576040517f08c379a0000000000000000000000000000000000000000000000000000000008152600401610f10906115af565b60405180910390fd5b600360009054906101000a900473ffffffffffffffffffffffffffffffffffffffff16905090565b610fd98282604051602401610f57929190611d70565b6040516020818303038152906040527f319af333000000000000000000000000000000000000000000000000000000007bffffffffffffffffffffffffffffffffffffffffffffffffffffffff19166020820180517bffffffffffffffffffffffffffffffffffffffffffffffffffffffff838183161783525050505061111f565b5050565b610fe5611148565b73ffffffffffffffffffffffffffffffffffffffff16611003610ddf565b73ffffffffffffffffffffffffffffffffffffffff1614611059576040517f08c379a000000000000000000000000000000000000000000000000000000000815260040161105090611dec565b60405180910390fd5b565b60008060009054906101000a900473ffffffffffffffffffffffffffffffffffffffff169050816000806101000a81548173ffffffffffffffffffffffffffffffffffffffff021916908373ffffffffffffffffffffffffffffffffffffffff1602179055508173ffffffffffffffffffffffffffffffffffffffff168173ffffffffffffffffffffffffffffffffffffffff167f8be0079c531659141344cd1fd0a4f28419497f9722a3daafe3b4186f6b6457e060405160405180910390a35050565b60008151905060006a636f6e736f6c652e6c6f679050602083016000808483855afa5050505050565b600033905090565b600080fd5b600080fd5b6000819050919050565b61116d8161115a565b811461117857600080fd5b50565b60008135905061118a81611164565b92915050565b600080fd5b600080fd5b600080fd5b60008083601f8401126111b5576111b4611190565b5b8235905067ffffffffffffffff8111156111d2576111d1611195565b5b6020830191508360018202830111156111ee576111ed61119a565b5b9250929050565b60008060006040848603121561120e5761120d611150565b5b600061121c8682870161117b565b935050602084013567ffffffffffffffff81111561123d5761123c611155565b5b6112498682870161119f565b92509250509250925092565b60006020828403121561126b5761126a611150565b5b60006112798482850161117b565b91505092915050565b600073ffffffffffffffffffffffffffffffffffffffff82169050919050565b60006112ad82611282565b9050919050565b6112bd816112a2565b82525050565b6112cc8161115a565b82525050565b600081519050919050565b600082825260208201905092915050565b60005b8381101561130c5780820151818401526020810190506112f1565b60008484015250505050565b6000601f19601f8301169050919050565b6000611334826112d2565b61133e81856112dd565b935061134e8185602086016112ee565b61135781611318565b840191505092915050565b600060e082019050611377600083018a6112b4565b61138460208301896112b4565b61139160408301886112c3565b61139e60608301876112c3565b6113ab60808301866112c3565b6113b860a08301856112c3565b81810360c08301526113ca8184611329565b905098975050505050505050565b6113e1816112a2565b81146113ec57600080fd5b50565b6000813590506113fe816113d8565b92915050565b60008060008060008060a0878903121561142157611420611150565b5b600061142f89828a016113ef565b965050602061144089828a016113ef565b955050604061145189828a0161117b565b945050606061146289828a0161117b565b935050608087013567ffffffffffffffff81111561148357611482611155565b5b61148f89828a0161119f565b92509250509295509295509295565b6000602082840312156114b4576114b3611150565b5b60006114c2848285016113ef565b91505092915050565b60006020820190506114e060008301846112c3565b92915050565b600080604083850312156114fd576114fc611150565b5b600061150b8582860161117b565b925050602061151c8582860161117b565b9150509250929050565b600060208201905081810360008301526115408184611329565b905092915050565b600060208201905061155d60008301846112b4565b92915050565b7f4163636573732064656e69656400000000000000000000000000000000000000600082015250565b6000611599600d836112dd565b91506115a482611563565b602082019050919050565b600060208201905081810360008301526115c88161158c565b9050919050565b600082905092915050565b7f4e487b7100000000000000000000000000000000000000000000000000000000600052604160045260246000fd5b7f4e487b7100000000000000000000000000000000000000000000000000000000600052602260045260246000fd5b6000600282049050600182168061165057607f821691505b60208210810361166357611662611609565b5b50919050565b60008190508160005260206000209050919050565b60006020601f8301049050919050565b600082821b905092915050565b6000600883026116cb7fffffffffffffffffffffffffffffffffffffffffffffffffffffffffffffffff8261168e565b6116d5868361168e565b95508019841693508086168417925050509392505050565b6000819050919050565b600061171261170d6117088461115a565b6116ed565b61115a565b9050919050565b6000819050919050565b61172c836116f7565b61174061173882611719565b84845461169b565b825550505050565b600090565b611755611748565b611760818484611723565b505050565b5b818110156117845761177960008261174d565b600181019050611766565b5050565b601f8211156117c95761179a81611669565b6117a38461167e565b810160208510156117b2578190505b6117c66117be8561167e565b830182611765565b50505b505050565b600082821c905092915050565b60006117ec600019846008026117ce565b1980831691505092915050565b600061180583836117db565b9150826002028217905092915050565b61181f83836115cf565b67ffffffffffffffff811115611838576118376115da565b5b6118428254611638565b61184d828285611788565b6000601f83116001811461187c576000841561186a578287013590505b61187485826117f9565b8655506118dc565b601f19841661188a86611669565b60005b828110156118b25784890135825560018201915060208501945060208101905061188d565b868310156118cf57848901356118cb601f8916826117db565b8355505b6001600288020188555050505b50505050505050565b82818337600083830152505050565b600061190083856112dd565b935061190d8385846118e5565b61191683611318565b840190509392505050565b600060408201905061193660008301866112c3565b81810360208301526119498184866118f4565b9050949350505050565b7f4e487b7100000000000000000000000000000000000000000000000000000000600052601160045260246000fd5b600061198d8261115a565b91506119988361115a565b92508282019050808211156119b0576119af611953565b5b92915050565b6119bf826112d2565b67ffffffffffffffff8111156119d8576119d76115da565b5b6119e28254611638565b6119ed828285611788565b600060209050601f831160018114611a205760008415611a0e578287015190505b611a1885826117f9565b865550611a80565b601f198416611a2e86611669565b60005b82811015611a5657848901518255600182019150602085019450602081019050611a31565b86831015611a735784890151611a6f601f8916826117db565b8355505b6001600288020188555050505b505050505050565b600060a082019050611a9d60008301886112c3565b611aaa60208301876112b4565b611ab760408301866112b4565b611ac460608301856112c3565b611ad160808301846112c3565b9695505050505050565b7f416464726573732073686f756c6420626520646566696e656400000000000000600082015250565b6000611b116019836112dd565b9150611b1c82611adb565b602082019050919050565b60006020820190508181036000830152611b4081611b04565b9050919050565b7f5265776172640000000000000000000000000000000000000000000000000000600082015250565b6000611b7d6006836112dd565b9150611b8882611b47565b602082019050919050565b60006040820190508181036000830152611bac81611b70565b9050611bbb60208301846112b4565b92915050565b7f514c414e44206d61726b6574706c616365000000000000000000000000000000600082015250565b6000611bf76011836112dd565b9150611c0282611bc1565b602082019050919050565b60006040820190508181036000830152611c2681611bea565b9050611c3560208301846112b4565b92915050565b6000604082019050611c5060008301856112c3565b611c5d60208301846112c3565b9392505050565b7f466163746f727900000000000000000000000000000000000000000000000000600082015250565b6000611c9a6007836112dd565b9150611ca582611c64565b602082019050919050565b60006040820190508181036000830152611cc981611c8d565b9050611cd860208301846112b4565b92915050565b7f4f776e61626c653a206e6577206f776e657220697320746865207a65726f206160008201527f6464726573730000000000000000000000000000000000000000000000000000602082015250565b6000611d3a6026836112dd565b9150611d4582611cde565b604082019050919050565b60006020820190508181036000830152611d6981611d2d565b9050919050565b60006040820190508181036000830152611d8a8185611329565b9050611d9960208301846112b4565b9392505050565b7f4f776e61626c653a2063616c6c6572206973206e6f7420746865206f776e6572600082015250565b6000611dd66020836112dd565b9150611de182611da0565b602082019050919050565b60006020820190508181036000830152611e0581611dc9565b905091905056fea2646970667358221220a16d70ac2eb810c3d43d3f18129f8898530cd7ff3e76b59dae72de606e0e72d864736f6c63430008120033",
  "linkReferences": {},
  "deployedLinkReferences": {}
}