{
  "_format": "hh-sol-artifact-1",
  "contractName": "QapturLandMarketplace",
  "sourceName": "contracts/QapturLandMarketplace.sol",
  "abi": [
    {
      "inputs": [
        {
          "internalType": "address",
          "name": "_stateContractAddr",
          "type": "address"
        },
        {
          "internalType": "address",
          "name": "_erc20StableAddr",
          "type": "address"
        },
        {
          "internalType": "address",
          "name": "_projectWallet",
          "type": "address"
        }
      ],
      "stateMutability": "nonpayable",
      "type": "constructor"
    },
    {
      "anonymous": false,
      "inputs": [
        {
          "indexed": false,
          "internalType": "address",
          "name": "buyer",
          "type": "address"
        },
        {
          "indexed": false,
          "internalType": "uint256",
          "name": "projectId",
          "type": "uint256"
        },
        {
          "indexed": false,
          "internalType": "uint256",
          "name": "amount",
          "type": "uint256"
        }
      ],
      "name": "BoughtFromInitialSupply",
      "type": "event"
    },
    {
      "anonymous": false,
      "inputs": [
        {
          "indexed": false,
          "internalType": "address",
          "name": "seller",
          "type": "address"
        },
        {
          "indexed": false,
          "internalType": "address",
          "name": "buyer",
          "type": "address"
        },
        {
          "indexed": false,
          "internalType": "uint256",
          "name": "projectId",
          "type": "uint256"
        },
        {
          "indexed": false,
          "internalType": "uint256",
          "name": "amount",
          "type": "uint256"
        }
      ],
      "name": "BoughtOnMarketplace",
      "type": "event"
    },
    {
      "anonymous": false,
      "inputs": [
        {
          "indexed": false,
          "internalType": "address",
          "name": "seller",
          "type": "address"
        },
        {
          "indexed": false,
          "internalType": "uint256",
          "name": "projectId",
          "type": "uint256"
        },
        {
          "indexed": false,
          "internalType": "uint256",
          "name": "amount",
          "type": "uint256"
        },
        {
          "indexed": false,
          "internalType": "uint256",
          "name": "price",
          "type": "uint256"
        }
      ],
      "name": "ItemAddedToMarketplace",
      "type": "event"
    },
    {
      "anonymous": false,
      "inputs": [
        {
          "indexed": true,
          "internalType": "address",
          "name": "previousOwner",
          "type": "address"
        },
        {
          "indexed": true,
          "internalType": "address",
          "name": "newOwner",
          "type": "address"
        }
      ],
      "name": "OwnershipTransferred",
      "type": "event"
    },
    {
      "inputs": [
        {
          "internalType": "uint256",
          "name": "_projectId",
          "type": "uint256"
        },
        {
          "internalType": "uint256",
          "name": "_tokenAmount",
          "type": "uint256"
        },
        {
          "internalType": "uint256",
          "name": "_tokenPrice",
          "type": "uint256"
        }
      ],
      "name": "addItemToMarketplace",
      "outputs": [],
      "stateMutability": "nonpayable",
      "type": "function"
    },
    {
      "inputs": [
        {
          "internalType": "uint256",
          "name": "_projectId",
          "type": "uint256"
        },
        {
          "internalType": "uint256",
          "name": "_tokenAmount",
          "type": "uint256"
        }
      ],
      "name": "buyFromInitialSupply",
      "outputs": [],
      "stateMutability": "nonpayable",
      "type": "function"
    },
    {
      "inputs": [
        {
          "internalType": "address",
          "name": "_seller",
          "type": "address"
        },
        {
          "internalType": "uint256",
          "name": "_projectId",
          "type": "uint256"
        },
        {
          "internalType": "uint256",
          "name": "_tokenAmount",
          "type": "uint256"
        },
        {
          "internalType": "uint256",
          "name": "_price",
          "type": "uint256"
        }
      ],
      "name": "buyFromMarketplace",
      "outputs": [],
      "stateMutability": "nonpayable",
      "type": "function"
    },
    {
      "inputs": [
        {
          "internalType": "uint256",
          "name": "_projetId",
          "type": "uint256"
        }
      ],
      "name": "getProjectItemsOnSale",
      "outputs": [
        {
          "components": [
            {
              "internalType": "address payable",
              "name": "seller",
              "type": "address"
            },
            {
              "internalType": "uint256",
              "name": "amount",
              "type": "uint256"
            },
            {
              "internalType": "uint256",
              "name": "price",
              "type": "uint256"
            }
          ],
          "internalType": "struct QapturLandMarketplace.OnSaleToken[]",
          "name": "",
          "type": "tuple[]"
        }
      ],
      "stateMutability": "view",
      "type": "function"
    },
    {
      "inputs": [],
      "name": "owner",
      "outputs": [
        {
          "internalType": "address",
          "name": "",
          "type": "address"
        }
      ],
      "stateMutability": "view",
      "type": "function"
    },
    {
      "inputs": [
        {
          "internalType": "uint256",
          "name": "",
          "type": "uint256"
        },
        {
          "internalType": "uint256",
          "name": "",
          "type": "uint256"
        }
      ],
      "name": "projectOnSaleTokens",
      "outputs": [
        {
          "internalType": "address payable",
          "name": "seller",
          "type": "address"
        },
        {
          "internalType": "uint256",
          "name": "amount",
          "type": "uint256"
        },
        {
          "internalType": "uint256",
          "name": "price",
          "type": "uint256"
        }
      ],
      "stateMutability": "view",
      "type": "function"
    },
    {
      "inputs": [],
      "name": "renounceOwnership",
      "outputs": [],
      "stateMutability": "nonpayable",
      "type": "function"
    },
    {
      "inputs": [
        {
          "internalType": "address",
          "name": "newOwner",
          "type": "address"
        }
      ],
      "name": "transferOwnership",
      "outputs": [],
      "stateMutability": "nonpayable",
      "type": "function"
    }
  ],
  "bytecode": "0x60806040523480156200001157600080fd5b506040516200202338038062002023833981810160405281019062000037919062000259565b620000576200004b6200012360201b60201c565b6200012b60201b60201c565b82600160006101000a81548173ffffffffffffffffffffffffffffffffffffffff021916908373ffffffffffffffffffffffffffffffffffffffff16021790555081600260006101000a81548173ffffffffffffffffffffffffffffffffffffffff021916908373ffffffffffffffffffffffffffffffffffffffff16021790555080600360006101000a81548173ffffffffffffffffffffffffffffffffffffffff021916908373ffffffffffffffffffffffffffffffffffffffff160217905550505050620002b5565b600033905090565b60008060009054906101000a900473ffffffffffffffffffffffffffffffffffffffff169050816000806101000a81548173ffffffffffffffffffffffffffffffffffffffff021916908373ffffffffffffffffffffffffffffffffffffffff1602179055508173ffffffffffffffffffffffffffffffffffffffff168173ffffffffffffffffffffffffffffffffffffffff167f8be0079c531659141344cd1fd0a4f28419497f9722a3daafe3b4186f6b6457e060405160405180910390a35050565b600080fd5b600073ffffffffffffffffffffffffffffffffffffffff82169050919050565b60006200022182620001f4565b9050919050565b620002338162000214565b81146200023f57600080fd5b50565b600081519050620002538162000228565b92915050565b600080600060608486031215620002755762000274620001ef565b5b6000620002858682870162000242565b9350506020620002988682870162000242565b9250506040620002ab8682870162000242565b9150509250925092565b611d5e80620002c56000396000f3fe608060405234801561001057600080fd5b50600436106100885760003560e01c806383f190be1161005b57806383f190be146101155780638da5cb5b14610131578063dd0d97eb1461014f578063f2fde38b1461016b57610088565b80633b40cfc51461008d5780633bacfa69146100a9578063715018a6146100db578063739952e1146100e5575b600080fd5b6100a760048036038101906100a29190611055565b610187565b005b6100c360048036038101906100be91906110a8565b610293565b6040516100d293929190611138565b60405180910390f35b6100e36102fa565b005b6100ff60048036038101906100fa919061116f565b61030e565b60405161010c91906112ab565b60405180910390f35b61012f600480360381019061012a919061130b565b6103ea565b005b610139610846565b6040516101469190611381565b60405180910390f35b610169600480360381019061016491906110a8565b61086f565b005b6101856004803603810190610180919061139c565b610c6d565b005b6005600084815260200190815260200160002060405180606001604052803373ffffffffffffffffffffffffffffffffffffffff16815260200184815260200183815250908060018154018082558091505060019003906000526020600020906003020160009091909190915060008201518160000160006101000a81548173ffffffffffffffffffffffffffffffffffffffff021916908373ffffffffffffffffffffffffffffffffffffffff160217905550602082015181600101556040820151816002015550507fb0ae07191c7f184a346db81754a440a79cacf53ca2df649330f21162b3d01de73384848460405161028694939291906113c9565b60405180910390a1505050565b600560205281600052604060002081815481106102af57600080fd5b9060005260206000209060030201600091509150508060000160009054906101000a900473ffffffffffffffffffffffffffffffffffffffff16908060010154908060020154905083565b610302610cf0565b61030c6000610d6e565b565b606060056000838152602001908152602001600020805480602002602001604051908101604052809291908181526020016000905b828210156103df57838290600052602060002090600302016040518060600160405290816000820160009054906101000a900473ffffffffffffffffffffffffffffffffffffffff1673ffffffffffffffffffffffffffffffffffffffff1673ffffffffffffffffffffffffffffffffffffffff1681526020016001820154815260200160028201548152505081526020019060010190610343565b505050509050919050565b6000600160009054906101000a900473ffffffffffffffffffffffffffffffffffffffff1673ffffffffffffffffffffffffffffffffffffffff1663107046bd856040518263ffffffff1660e01b8152600401610447919061140e565b600060405180830381865afa158015610464573d6000803e3d6000fd5b505050506040513d6000823e3d601f19601f8201168201806040525081019061048d91906115b4565b505050505050905060006104a2858785610e32565b905060006005600087815260200190815260200160002082815481106104cb576104ca611672565b5b906000526020600020906003020160010154905084811015610522576040517f08c379a0000000000000000000000000000000000000000000000000000000008152600401610519906116fe565b60405180910390fd5b61053886838784610533919061174d565b610f45565b50600084866105479190611781565b905080600260009054906101000a900473ffffffffffffffffffffffffffffffffffffffff1673ffffffffffffffffffffffffffffffffffffffff1663dd62ed3e33306040518363ffffffff1660e01b81526004016105a79291906117c3565b602060405180830381865afa1580156105c4573d6000803e3d6000fd5b505050506040513d601f19601f820116820180604052508101906105e891906117ec565b1015610629576040517f08c379a000000000000000000000000000000000000000000000000000000000815260040161062090611865565b60405180910390fd5b600260009054906101000a900473ffffffffffffffffffffffffffffffffffffffff1673ffffffffffffffffffffffffffffffffffffffff166323b872dd338a846040518463ffffffff1660e01b815260040161068893929190611885565b6020604051808303816000875af11580156106a7573d6000803e3d6000fd5b505050506040513d601f19601f820116820180604052508101906106cb91906118f4565b5060008490508073ffffffffffffffffffffffffffffffffffffffff1663e985e9c58a306040518363ffffffff1660e01b815260040161070c9291906117c3565b602060405180830381865afa158015610729573d6000803e3d6000fd5b505050506040513d601f19601f8201168201806040525081019061074d91906118f4565b61078c576040517f08c379a00000000000000000000000000000000000000000000000000000000081526004016107839061196d565b60405180910390fd5b8073ffffffffffffffffffffffffffffffffffffffff1663f242432a8a3360008b6040518563ffffffff1660e01b81526004016107cc9493929190611a2f565b600060405180830381600087803b1580156107e657600080fd5b505af11580156107fa573d6000803e3d6000fd5b505050507f35e8eaeee3721465d28a902507569dd7f16551cb5fb043860c4f69d7e8f64a2089338a8a6040516108339493929190611a87565b60405180910390a1505050505050505050565b60008060009054906101000a900473ffffffffffffffffffffffffffffffffffffffff16905090565b600080600080600160009054906101000a900473ffffffffffffffffffffffffffffffffffffffff1673ffffffffffffffffffffffffffffffffffffffff1663107046bd876040518263ffffffff1660e01b81526004016108d0919061140e565b600060405180830381865afa1580156108ed573d6000803e3d6000fd5b505050506040513d6000823e3d601f19601f8201168201806040525081019061091691906115b4565b505094509450945050935084821015610964576040517f08c379a000000000000000000000000000000000000000000000000000000000815260040161095b90611b18565b60405180910390fd5b600160009054906101000a900473ffffffffffffffffffffffffffffffffffffffff1673ffffffffffffffffffffffffffffffffffffffff16639e2dcbfd8787856109af919061174d565b6040518363ffffffff1660e01b81526004016109cc929190611b38565b600060405180830381600087803b1580156109e657600080fd5b505af11580156109fa573d6000803e3d6000fd5b5050505060008186610a0c9190611781565b905080600260009054906101000a900473ffffffffffffffffffffffffffffffffffffffff1673ffffffffffffffffffffffffffffffffffffffff1663dd62ed3e33306040518363ffffffff1660e01b8152600401610a6c9291906117c3565b602060405180830381865afa158015610a89573d6000803e3d6000fd5b505050506040513d601f19601f82011682018060405250810190610aad91906117ec565b1015610aee576040517f08c379a0000000000000000000000000000000000000000000000000000000008152600401610ae590611865565b60405180910390fd5b600260009054906101000a900473ffffffffffffffffffffffffffffffffffffffff1673ffffffffffffffffffffffffffffffffffffffff166323b872dd33600360009054906101000a900473ffffffffffffffffffffffffffffffffffffffff16846040518463ffffffff1660e01b8152600401610b6f93929190611885565b6020604051808303816000875af1158015610b8e573d6000803e3d6000fd5b505050506040513d601f19601f82011682018060405250810190610bb291906118f4565b5060008590508073ffffffffffffffffffffffffffffffffffffffff1663731133e93360008a6040518463ffffffff1660e01b8152600401610bf693929190611b61565b600060405180830381600087803b158015610c1057600080fd5b505af1158015610c24573d6000803e3d6000fd5b505050507f1f0cd4ea7e1fb87326974cdcb1e3aec41ffeeb234553989f6b1c8732c0f23092338989604051610c5b93929190611bab565b60405180910390a15050505050505050565b610c75610cf0565b600073ffffffffffffffffffffffffffffffffffffffff168173ffffffffffffffffffffffffffffffffffffffff1603610ce4576040517f08c379a0000000000000000000000000000000000000000000000000000000008152600401610cdb90611c54565b60405180910390fd5b610ced81610d6e565b50565b610cf8611003565b73ffffffffffffffffffffffffffffffffffffffff16610d16610846565b73ffffffffffffffffffffffffffffffffffffffff1614610d6c576040517f08c379a0000000000000000000000000000000000000000000000000000000008152600401610d6390611cc0565b60405180910390fd5b565b60008060009054906101000a900473ffffffffffffffffffffffffffffffffffffffff169050816000806101000a81548173ffffffffffffffffffffffffffffffffffffffff021916908373ffffffffffffffffffffffffffffffffffffffff1602179055508173ffffffffffffffffffffffffffffffffffffffff168173ffffffffffffffffffffffffffffffffffffffff167f8be0079c531659141344cd1fd0a4f28419497f9722a3daafe3b4186f6b6457e060405160405180910390a35050565b6000805b600560006001815260200190815260200160002080549050811015610f3c578373ffffffffffffffffffffffffffffffffffffffff16600560008781526020019081526020016000208281548110610e9157610e90611672565b5b906000526020600020906003020160000160009054906101000a900473ffffffffffffffffffffffffffffffffffffffff1673ffffffffffffffffffffffffffffffffffffffff16148015610f1b575082600560008781526020019081526020016000208281548110610f0757610f06611672565b5b906000526020600020906003020160020154145b15610f295780915050610f3e565b8080610f3490611ce0565b915050610e36565b505b9392505050565b6000808203610fc057600560008581526020019081526020016000208381548110610f7357610f72611672565b5b9060005260206000209060030201600080820160006101000a81549073ffffffffffffffffffffffffffffffffffffffff0219169055600182016000905560028201600090555050610ffc565b81600560008681526020019081526020016000208481548110610fe657610fe5611672565b5b9060005260206000209060030201600101819055505b9392505050565b600033905090565b6000604051905090565b600080fd5b600080fd5b6000819050919050565b6110328161101f565b811461103d57600080fd5b50565b60008135905061104f81611029565b92915050565b60008060006060848603121561106e5761106d611015565b5b600061107c86828701611040565b935050602061108d86828701611040565b925050604061109e86828701611040565b9150509250925092565b600080604083850312156110bf576110be611015565b5b60006110cd85828601611040565b92505060206110de85828601611040565b9150509250929050565b600073ffffffffffffffffffffffffffffffffffffffff82169050919050565b6000611113826110e8565b9050919050565b61112381611108565b82525050565b6111328161101f565b82525050565b600060608201905061114d600083018661111a565b61115a6020830185611129565b6111676040830184611129565b949350505050565b60006020828403121561118557611184611015565b5b600061119384828501611040565b91505092915050565b600081519050919050565b600082825260208201905092915050565b6000819050602082019050919050565b6111d181611108565b82525050565b6111e08161101f565b82525050565b6060820160008201516111fc60008501826111c8565b50602082015161120f60208501826111d7565b50604082015161122260408501826111d7565b50505050565b600061123483836111e6565b60608301905092915050565b6000602082019050919050565b60006112588261119c565b61126281856111a7565b935061126d836111b8565b8060005b8381101561129e5781516112858882611228565b975061129083611240565b925050600181019050611271565b5085935050505092915050565b600060208201905081810360008301526112c5818461124d565b905092915050565b60006112d8826110e8565b9050919050565b6112e8816112cd565b81146112f357600080fd5b50565b600081359050611305816112df565b92915050565b6000806000806080858703121561132557611324611015565b5b6000611333878288016112f6565b945050602061134487828801611040565b935050604061135587828801611040565b925050606061136687828801611040565b91505092959194509250565b61137b816112cd565b82525050565b60006020820190506113966000830184611372565b92915050565b6000602082840312156113b2576113b1611015565b5b60006113c0848285016112f6565b91505092915050565b60006080820190506113de6000830187611372565b6113eb6020830186611129565b6113f86040830185611129565b6114056060830184611129565b95945050505050565b60006020820190506114236000830184611129565b92915050565b600081519050611438816112df565b92915050565b60008151905061144d81611029565b92915050565b600080fd5b600080fd5b6000601f19601f8301169050919050565b7f4e487b7100000000000000000000000000000000000000000000000000000000600052604160045260246000fd5b6114a68261145d565b810181811067ffffffffffffffff821117156114c5576114c461146e565b5b80604052505050565b60006114d861100b565b90506114e4828261149d565b919050565b600067ffffffffffffffff8211156115045761150361146e565b5b61150d8261145d565b9050602081019050919050565b60005b8381101561153857808201518184015260208101905061151d565b60008484015250505050565b6000611557611552846114e9565b6114ce565b90508281526020810184848401111561157357611572611458565b5b61157e84828561151a565b509392505050565b600082601f83011261159b5761159a611453565b5b81516115ab848260208601611544565b91505092915050565b600080600080600080600060e0888a0312156115d3576115d2611015565b5b60006115e18a828b01611429565b97505060206115f28a828b01611429565b96505060406116038a828b0161143e565b95505060606116148a828b0161143e565b94505060806116258a828b0161143e565b93505060a06116368a828b0161143e565b92505060c088015167ffffffffffffffff8111156116575761165661101a565b5b6116638a828b01611586565b91505092959891949750929550565b7f4e487b7100000000000000000000000000000000000000000000000000000000600052603260045260246000fd5b600082825260208201905092915050565b7f726571756573746564207175616e74697479206e6f7420617661696c61626c65600082015250565b60006116e86020836116a1565b91506116f3826116b2565b602082019050919050565b60006020820190508181036000830152611717816116db565b9050919050565b7f4e487b7100000000000000000000000000000000000000000000000000000000600052601160045260246000fd5b60006117588261101f565b91506117638361101f565b925082820390508181111561177b5761177a61171e565b5b92915050565b600061178c8261101f565b91506117978361101f565b92508282026117a58161101f565b915082820484148315176117bc576117bb61171e565b5b5092915050565b60006040820190506117d86000830185611372565b6117e56020830184611372565b9392505050565b60006020828403121561180257611801611015565b5b60006118108482850161143e565b91505092915050565b7f696e73756666696369656e7420616c6c6f77616e636500000000000000000000600082015250565b600061184f6016836116a1565b915061185a82611819565b602082019050919050565b6000602082019050818103600083015261187e81611842565b9050919050565b600060608201905061189a6000830186611372565b6118a76020830185611372565b6118b46040830184611129565b949350505050565b60008115159050919050565b6118d1816118bc565b81146118dc57600080fd5b50565b6000815190506118ee816118c8565b92915050565b60006020828403121561190a57611909611015565b5b6000611918848285016118df565b91505092915050565b7f6d697373696e6720617070726f76616c00000000000000000000000000000000600082015250565b60006119576010836116a1565b915061196282611921565b602082019050919050565b600060208201905081810360008301526119868161194a565b9050919050565b6000819050919050565b6000819050919050565b60006119bc6119b76119b28461198d565b611997565b61101f565b9050919050565b6119cc816119a1565b82525050565b600082825260208201905092915050565b7f3078300000000000000000000000000000000000000000000000000000000000600082015250565b6000611a196003836119d2565b9150611a24826119e3565b602082019050919050565b600060a082019050611a446000830187611372565b611a516020830186611372565b611a5e60408301856119c3565b611a6b6060830184611129565b8181036080830152611a7c81611a0c565b905095945050505050565b6000608082019050611a9c6000830187611372565b611aa96020830186611372565b611ab66040830185611129565b611ac36060830184611129565b95945050505050565b7f696e73756666696369656e7420737570706c7900000000000000000000000000600082015250565b6000611b026013836116a1565b9150611b0d82611acc565b602082019050919050565b60006020820190508181036000830152611b3181611af5565b9050919050565b6000604082019050611b4d6000830185611129565b611b5a6020830184611129565b9392505050565b6000608082019050611b766000830186611372565b611b8360208301856119c3565b611b906040830184611129565b8181036060830152611ba181611a0c565b9050949350505050565b6000606082019050611bc06000830186611372565b611bcd6020830185611129565b611bda6040830184611129565b949350505050565b7f4f776e61626c653a206e6577206f776e657220697320746865207a65726f206160008201527f6464726573730000000000000000000000000000000000000000000000000000602082015250565b6000611c3e6026836116a1565b9150611c4982611be2565b604082019050919050565b60006020820190508181036000830152611c6d81611c31565b9050919050565b7f4f776e61626c653a2063616c6c6572206973206e6f7420746865206f776e6572600082015250565b6000611caa6020836116a1565b9150611cb582611c74565b602082019050919050565b60006020820190508181036000830152611cd981611c9d565b9050919050565b6000611ceb8261101f565b91507fffffffffffffffffffffffffffffffffffffffffffffffffffffffffffffffff8203611d1d57611d1c61171e565b5b60018201905091905056fea2646970667358221220c6d7633bcea705f4505595b938e928992ee885a55f1da2f1054af86173996d8d64736f6c63430008120033",
  "linkReferences": {},
  "deployedLinkReferences": {}
}