{
  "_format": "hh-sol-artifact-1",
  "contractName": "QapturLandMarketplace",
  "sourceName": "contracts/QapturLandMarketplace.sol",
  "abi": [
    {
      "inputs": [
        {
          "internalType": "address",
          "name": "_stateContractAddr",
          "type": "address"
        },
        {
          "internalType": "address",
          "name": "_erc20StableAddr",
          "type": "address"
        },
        {
          "internalType": "address",
          "name": "_projectWallet",
          "type": "address"
        }
      ],
      "stateMutability": "nonpayable",
      "type": "constructor"
    },
    {
      "anonymous": false,
      "inputs": [
        {
          "indexed": false,
          "internalType": "address",
          "name": "buyer",
          "type": "address"
        },
        {
          "indexed": false,
          "internalType": "uint256",
          "name": "projectId",
          "type": "uint256"
        },
        {
          "indexed": false,
          "internalType": "uint256",
          "name": "amount",
          "type": "uint256"
        }
      ],
      "name": "BoughtFromInitialSupply",
      "type": "event"
    },
    {
      "anonymous": false,
      "inputs": [
        {
          "indexed": false,
          "internalType": "address",
          "name": "seller",
          "type": "address"
        },
        {
          "indexed": false,
          "internalType": "address",
          "name": "buyer",
          "type": "address"
        },
        {
          "indexed": false,
          "internalType": "uint256",
          "name": "projectId",
          "type": "uint256"
        },
        {
          "indexed": false,
          "internalType": "uint256",
          "name": "amount",
          "type": "uint256"
        }
      ],
      "name": "BoughtOnMarketplace",
      "type": "event"
    },
    {
      "anonymous": false,
      "inputs": [
        {
          "indexed": false,
          "internalType": "address",
          "name": "seller",
          "type": "address"
        },
        {
          "indexed": false,
          "internalType": "uint256",
          "name": "projectId",
          "type": "uint256"
        },
        {
          "indexed": false,
          "internalType": "uint256",
          "name": "amount",
          "type": "uint256"
        },
        {
          "indexed": false,
          "internalType": "uint256",
          "name": "price",
          "type": "uint256"
        }
      ],
      "name": "ItemAddedToMarketplace",
      "type": "event"
    },
    {
      "anonymous": false,
      "inputs": [
        {
          "indexed": true,
          "internalType": "address",
          "name": "previousOwner",
          "type": "address"
        },
        {
          "indexed": true,
          "internalType": "address",
          "name": "newOwner",
          "type": "address"
        }
      ],
      "name": "OwnershipTransferred",
      "type": "event"
    },
    {
      "inputs": [
        {
          "internalType": "uint256",
          "name": "_projectId",
          "type": "uint256"
        },
        {
          "internalType": "uint256",
          "name": "_tokenAmount",
          "type": "uint256"
        },
        {
          "internalType": "uint256",
          "name": "_tokenPrice",
          "type": "uint256"
        }
      ],
      "name": "addItemToMarketplace",
      "outputs": [],
      "stateMutability": "nonpayable",
      "type": "function"
    },
    {
      "inputs": [
        {
          "internalType": "uint256",
          "name": "_projectId",
          "type": "uint256"
        },
        {
          "internalType": "uint256",
          "name": "_tokenAmount",
          "type": "uint256"
        }
      ],
      "name": "buyFromInitialSupply",
      "outputs": [],
      "stateMutability": "nonpayable",
      "type": "function"
    },
    {
      "inputs": [
        {
          "internalType": "address",
          "name": "_seller",
          "type": "address"
        },
        {
          "internalType": "uint256",
          "name": "_projectId",
          "type": "uint256"
        },
        {
          "internalType": "uint256",
          "name": "_tokenAmount",
          "type": "uint256"
        },
        {
          "internalType": "uint256",
          "name": "_price",
          "type": "uint256"
        }
      ],
      "name": "buyFromMarketplace",
      "outputs": [],
      "stateMutability": "nonpayable",
      "type": "function"
    },
    {
      "inputs": [
        {
          "internalType": "uint256",
          "name": "_projetId",
          "type": "uint256"
        }
      ],
      "name": "getProjectItemsOnSale",
      "outputs": [
        {
          "components": [
            {
              "internalType": "address payable",
              "name": "seller",
              "type": "address"
            },
            {
              "internalType": "uint256",
              "name": "amount",
              "type": "uint256"
            },
            {
              "internalType": "uint256",
              "name": "price",
              "type": "uint256"
            }
          ],
          "internalType": "struct QapturLandMarketplace.OnSaleToken[]",
          "name": "",
          "type": "tuple[]"
        }
      ],
      "stateMutability": "view",
      "type": "function"
    },
    {
      "inputs": [],
      "name": "owner",
      "outputs": [
        {
          "internalType": "address",
          "name": "",
          "type": "address"
        }
      ],
      "stateMutability": "view",
      "type": "function"
    },
    {
      "inputs": [
        {
          "internalType": "uint256",
          "name": "",
          "type": "uint256"
        },
        {
          "internalType": "uint256",
          "name": "",
          "type": "uint256"
        }
      ],
      "name": "projectOnSaleTokens",
      "outputs": [
        {
          "internalType": "address payable",
          "name": "seller",
          "type": "address"
        },
        {
          "internalType": "uint256",
          "name": "amount",
          "type": "uint256"
        },
        {
          "internalType": "uint256",
          "name": "price",
          "type": "uint256"
        }
      ],
      "stateMutability": "view",
      "type": "function"
    },
    {
      "inputs": [],
      "name": "renounceOwnership",
      "outputs": [],
      "stateMutability": "nonpayable",
      "type": "function"
    },
    {
      "inputs": [
        {
          "internalType": "address",
          "name": "newOwner",
          "type": "address"
        }
      ],
      "name": "transferOwnership",
      "outputs": [],
      "stateMutability": "nonpayable",
      "type": "function"
    }
  ],
  "bytecode": "0x60806040523480156200001157600080fd5b506040516200219b3803806200219b833981810160405281019062000037919062000259565b620000576200004b6200012360201b60201c565b6200012b60201b60201c565b82600160006101000a81548173ffffffffffffffffffffffffffffffffffffffff021916908373ffffffffffffffffffffffffffffffffffffffff16021790555081600260006101000a81548173ffffffffffffffffffffffffffffffffffffffff021916908373ffffffffffffffffffffffffffffffffffffffff16021790555080600360006101000a81548173ffffffffffffffffffffffffffffffffffffffff021916908373ffffffffffffffffffffffffffffffffffffffff160217905550505050620002b5565b600033905090565b60008060009054906101000a900473ffffffffffffffffffffffffffffffffffffffff169050816000806101000a81548173ffffffffffffffffffffffffffffffffffffffff021916908373ffffffffffffffffffffffffffffffffffffffff1602179055508173ffffffffffffffffffffffffffffffffffffffff168173ffffffffffffffffffffffffffffffffffffffff167f8be0079c531659141344cd1fd0a4f28419497f9722a3daafe3b4186f6b6457e060405160405180910390a35050565b600080fd5b600073ffffffffffffffffffffffffffffffffffffffff82169050919050565b60006200022182620001f4565b9050919050565b620002338162000214565b81146200023f57600080fd5b50565b600081519050620002538162000228565b92915050565b600080600060608486031215620002755762000274620001ef565b5b6000620002858682870162000242565b9350506020620002988682870162000242565b9250506040620002ab8682870162000242565b9150509250925092565b611ed680620002c56000396000f3fe608060405234801561001057600080fd5b50600436106100885760003560e01c806383f190be1161005b57806383f190be146101155780638da5cb5b14610131578063dd0d97eb1461014f578063f2fde38b1461016b57610088565b80633b40cfc51461008d5780633bacfa69146100a9578063715018a6146100db578063739952e1146100e5575b600080fd5b6100a760048036038101906100a29190611159565b610187565b005b6100c360048036038101906100be91906111ac565b610293565b6040516100d29392919061123c565b60405180910390f35b6100e36102fa565b005b6100ff60048036038101906100fa9190611273565b61030e565b60405161010c91906113af565b60405180910390f35b61012f600480360381019061012a919061140f565b6103ea565b005b610139610846565b6040516101469190611485565b60405180910390f35b610169600480360381019061016491906111ac565b61086f565b005b610185600480360381019061018091906114a0565b610cac565b005b6005600084815260200190815260200160002060405180606001604052803373ffffffffffffffffffffffffffffffffffffffff16815260200184815260200183815250908060018154018082558091505060019003906000526020600020906003020160009091909190915060008201518160000160006101000a81548173ffffffffffffffffffffffffffffffffffffffff021916908373ffffffffffffffffffffffffffffffffffffffff160217905550602082015181600101556040820151816002015550507fb0ae07191c7f184a346db81754a440a79cacf53ca2df649330f21162b3d01de73384848460405161028694939291906114cd565b60405180910390a1505050565b600560205281600052604060002081815481106102af57600080fd5b9060005260206000209060030201600091509150508060000160009054906101000a900473ffffffffffffffffffffffffffffffffffffffff16908060010154908060020154905083565b610302610d2f565b61030c6000610dad565b565b606060056000838152602001908152602001600020805480602002602001604051908101604052809291908181526020016000905b828210156103df57838290600052602060002090600302016040518060600160405290816000820160009054906101000a900473ffffffffffffffffffffffffffffffffffffffff1673ffffffffffffffffffffffffffffffffffffffff1673ffffffffffffffffffffffffffffffffffffffff1681526020016001820154815260200160028201548152505081526020019060010190610343565b505050509050919050565b6000600160009054906101000a900473ffffffffffffffffffffffffffffffffffffffff1673ffffffffffffffffffffffffffffffffffffffff1663107046bd856040518263ffffffff1660e01b81526004016104479190611512565b600060405180830381865afa158015610464573d6000803e3d6000fd5b505050506040513d6000823e3d601f19601f8201168201806040525081019061048d91906116b8565b505050505050905060006104a2858785610e71565b905060006005600087815260200190815260200160002082815481106104cb576104ca611776565b5b906000526020600020906003020160010154905084811015610522576040517f08c379a000000000000000000000000000000000000000000000000000000000815260040161051990611802565b60405180910390fd5b610538868387846105339190611851565b610f84565b50600084866105479190611885565b905080600260009054906101000a900473ffffffffffffffffffffffffffffffffffffffff1673ffffffffffffffffffffffffffffffffffffffff1663dd62ed3e33306040518363ffffffff1660e01b81526004016105a79291906118c7565b602060405180830381865afa1580156105c4573d6000803e3d6000fd5b505050506040513d601f19601f820116820180604052508101906105e891906118f0565b1015610629576040517f08c379a000000000000000000000000000000000000000000000000000000000815260040161062090611969565b60405180910390fd5b600260009054906101000a900473ffffffffffffffffffffffffffffffffffffffff1673ffffffffffffffffffffffffffffffffffffffff166323b872dd338a846040518463ffffffff1660e01b815260040161068893929190611989565b6020604051808303816000875af11580156106a7573d6000803e3d6000fd5b505050506040513d601f19601f820116820180604052508101906106cb91906119f8565b5060008490508073ffffffffffffffffffffffffffffffffffffffff1663e985e9c58a306040518363ffffffff1660e01b815260040161070c9291906118c7565b602060405180830381865afa158015610729573d6000803e3d6000fd5b505050506040513d601f19601f8201168201806040525081019061074d91906119f8565b61078c576040517f08c379a000000000000000000000000000000000000000000000000000000000815260040161078390611a71565b60405180910390fd5b8073ffffffffffffffffffffffffffffffffffffffff1663f242432a8a3360008b6040518563ffffffff1660e01b81526004016107cc9493929190611b33565b600060405180830381600087803b1580156107e657600080fd5b505af11580156107fa573d6000803e3d6000fd5b505050507f35e8eaeee3721465d28a902507569dd7f16551cb5fb043860c4f69d7e8f64a2089338a8a6040516108339493929190611b8b565b60405180910390a1505050505050505050565b60008060009054906101000a900473ffffffffffffffffffffffffffffffffffffffff16905090565b600080600080600160009054906101000a900473ffffffffffffffffffffffffffffffffffffffff1673ffffffffffffffffffffffffffffffffffffffff1663107046bd876040518263ffffffff1660e01b81526004016108d09190611512565b600060405180830381865afa1580156108ed573d6000803e3d6000fd5b505050506040513d6000823e3d601f19601f8201168201806040525081019061091691906116b8565b505094509450945050935084821015610964576040517f08c379a000000000000000000000000000000000000000000000000000000000815260040161095b90611c1c565b60405180910390fd5b600160009054906101000a900473ffffffffffffffffffffffffffffffffffffffff1673ffffffffffffffffffffffffffffffffffffffff166385ac73818787856109af9190611851565b6040518363ffffffff1660e01b81526004016109cc929190611c3c565b600060405180830381600087803b1580156109e657600080fd5b505af11580156109fa573d6000803e3d6000fd5b5050505060008186610a0c9190611885565b9050610a4d6040518060400160405280600c81526020017f696e2062757920746f74616c000000000000000000000000000000000000000081525082611042565b80600260009054906101000a900473ffffffffffffffffffffffffffffffffffffffff1673ffffffffffffffffffffffffffffffffffffffff1663dd62ed3e33306040518363ffffffff1660e01b8152600401610aab9291906118c7565b602060405180830381865afa158015610ac8573d6000803e3d6000fd5b505050506040513d601f19601f82011682018060405250810190610aec91906118f0565b1015610b2d576040517f08c379a0000000000000000000000000000000000000000000000000000000008152600401610b2490611969565b60405180910390fd5b600260009054906101000a900473ffffffffffffffffffffffffffffffffffffffff1673ffffffffffffffffffffffffffffffffffffffff166323b872dd33600360009054906101000a900473ffffffffffffffffffffffffffffffffffffffff16846040518463ffffffff1660e01b8152600401610bae93929190611989565b6020604051808303816000875af1158015610bcd573d6000803e3d6000fd5b505050506040513d601f19601f82011682018060405250810190610bf191906119f8565b5060008590508073ffffffffffffffffffffffffffffffffffffffff1663731133e93360008a6040518463ffffffff1660e01b8152600401610c3593929190611c65565b600060405180830381600087803b158015610c4f57600080fd5b505af1158015610c63573d6000803e3d6000fd5b505050507f1f0cd4ea7e1fb87326974cdcb1e3aec41ffeeb234553989f6b1c8732c0f23092338989604051610c9a93929190611caf565b60405180910390a15050505050505050565b610cb4610d2f565b600073ffffffffffffffffffffffffffffffffffffffff168173ffffffffffffffffffffffffffffffffffffffff1603610d23576040517f08c379a0000000000000000000000000000000000000000000000000000000008152600401610d1a90611d58565b60405180910390fd5b610d2c81610dad565b50565b610d376110de565b73ffffffffffffffffffffffffffffffffffffffff16610d55610846565b73ffffffffffffffffffffffffffffffffffffffff1614610dab576040517f08c379a0000000000000000000000000000000000000000000000000000000008152600401610da290611dc4565b60405180910390fd5b565b60008060009054906101000a900473ffffffffffffffffffffffffffffffffffffffff169050816000806101000a81548173ffffffffffffffffffffffffffffffffffffffff021916908373ffffffffffffffffffffffffffffffffffffffff1602179055508173ffffffffffffffffffffffffffffffffffffffff168173ffffffffffffffffffffffffffffffffffffffff167f8be0079c531659141344cd1fd0a4f28419497f9722a3daafe3b4186f6b6457e060405160405180910390a35050565b6000805b600560006001815260200190815260200160002080549050811015610f7b578373ffffffffffffffffffffffffffffffffffffffff16600560008781526020019081526020016000208281548110610ed057610ecf611776565b5b906000526020600020906003020160000160009054906101000a900473ffffffffffffffffffffffffffffffffffffffff1673ffffffffffffffffffffffffffffffffffffffff16148015610f5a575082600560008781526020019081526020016000208281548110610f4657610f45611776565b5b906000526020600020906003020160020154145b15610f685780915050610f7d565b8080610f7390611de4565b915050610e75565b505b9392505050565b6000808203610fff57600560008581526020019081526020016000208381548110610fb257610fb1611776565b5b9060005260206000209060030201600080820160006101000a81549073ffffffffffffffffffffffffffffffffffffffff021916905560018201600090556002820160009055505061103b565b8160056000868152602001908152602001600020848154811061102557611024611776565b5b9060005260206000209060030201600101819055505b9392505050565b6110da8282604051602401611058929190611e70565b6040516020818303038152906040527fb60e72cc000000000000000000000000000000000000000000000000000000007bffffffffffffffffffffffffffffffffffffffffffffffffffffffff19166020820180517bffffffffffffffffffffffffffffffffffffffffffffffffffffffff83818316178352505050506110e6565b5050565b600033905090565b60008151905060006a636f6e736f6c652e6c6f679050602083016000808483855afa5050505050565b6000604051905090565b600080fd5b600080fd5b6000819050919050565b61113681611123565b811461114157600080fd5b50565b6000813590506111538161112d565b92915050565b60008060006060848603121561117257611171611119565b5b600061118086828701611144565b935050602061119186828701611144565b92505060406111a286828701611144565b9150509250925092565b600080604083850312156111c3576111c2611119565b5b60006111d185828601611144565b92505060206111e285828601611144565b9150509250929050565b600073ffffffffffffffffffffffffffffffffffffffff82169050919050565b6000611217826111ec565b9050919050565b6112278161120c565b82525050565b61123681611123565b82525050565b6000606082019050611251600083018661121e565b61125e602083018561122d565b61126b604083018461122d565b949350505050565b60006020828403121561128957611288611119565b5b600061129784828501611144565b91505092915050565b600081519050919050565b600082825260208201905092915050565b6000819050602082019050919050565b6112d58161120c565b82525050565b6112e481611123565b82525050565b60608201600082015161130060008501826112cc565b50602082015161131360208501826112db565b50604082015161132660408501826112db565b50505050565b600061133883836112ea565b60608301905092915050565b6000602082019050919050565b600061135c826112a0565b61136681856112ab565b9350611371836112bc565b8060005b838110156113a2578151611389888261132c565b975061139483611344565b925050600181019050611375565b5085935050505092915050565b600060208201905081810360008301526113c98184611351565b905092915050565b60006113dc826111ec565b9050919050565b6113ec816113d1565b81146113f757600080fd5b50565b600081359050611409816113e3565b92915050565b6000806000806080858703121561142957611428611119565b5b6000611437878288016113fa565b945050602061144887828801611144565b935050604061145987828801611144565b925050606061146a87828801611144565b91505092959194509250565b61147f816113d1565b82525050565b600060208201905061149a6000830184611476565b92915050565b6000602082840312156114b6576114b5611119565b5b60006114c4848285016113fa565b91505092915050565b60006080820190506114e26000830187611476565b6114ef602083018661122d565b6114fc604083018561122d565b611509606083018461122d565b95945050505050565b6000602082019050611527600083018461122d565b92915050565b60008151905061153c816113e3565b92915050565b6000815190506115518161112d565b92915050565b600080fd5b600080fd5b6000601f19601f8301169050919050565b7f4e487b7100000000000000000000000000000000000000000000000000000000600052604160045260246000fd5b6115aa82611561565b810181811067ffffffffffffffff821117156115c9576115c8611572565b5b80604052505050565b60006115dc61110f565b90506115e882826115a1565b919050565b600067ffffffffffffffff82111561160857611607611572565b5b61161182611561565b9050602081019050919050565b60005b8381101561163c578082015181840152602081019050611621565b60008484015250505050565b600061165b611656846115ed565b6115d2565b9050828152602081018484840111156116775761167661155c565b5b61168284828561161e565b509392505050565b600082601f83011261169f5761169e611557565b5b81516116af848260208601611648565b91505092915050565b600080600080600080600060e0888a0312156116d7576116d6611119565b5b60006116e58a828b0161152d565b97505060206116f68a828b0161152d565b96505060406117078a828b01611542565b95505060606117188a828b01611542565b94505060806117298a828b01611542565b93505060a061173a8a828b01611542565b92505060c088015167ffffffffffffffff81111561175b5761175a61111e565b5b6117678a828b0161168a565b91505092959891949750929550565b7f4e487b7100000000000000000000000000000000000000000000000000000000600052603260045260246000fd5b600082825260208201905092915050565b7f526571756573746564207175616e74697479206e6f7420617661696c61626c65600082015250565b60006117ec6020836117a5565b91506117f7826117b6565b602082019050919050565b6000602082019050818103600083015261181b816117df565b9050919050565b7f4e487b7100000000000000000000000000000000000000000000000000000000600052601160045260246000fd5b600061185c82611123565b915061186783611123565b925082820390508181111561187f5761187e611822565b5b92915050565b600061189082611123565b915061189b83611123565b92508282026118a981611123565b915082820484148315176118c0576118bf611822565b5b5092915050565b60006040820190506118dc6000830185611476565b6118e96020830184611476565b9392505050565b60006020828403121561190657611905611119565b5b600061191484828501611542565b91505092915050565b7f496e73756666696369656e7420616c6c6f77616e636500000000000000000000600082015250565b60006119536016836117a5565b915061195e8261191d565b602082019050919050565b6000602082019050818103600083015261198281611946565b9050919050565b600060608201905061199e6000830186611476565b6119ab6020830185611476565b6119b8604083018461122d565b949350505050565b60008115159050919050565b6119d5816119c0565b81146119e057600080fd5b50565b6000815190506119f2816119cc565b92915050565b600060208284031215611a0e57611a0d611119565b5b6000611a1c848285016119e3565b91505092915050565b7f4d697373696e6720617070726f76616c00000000000000000000000000000000600082015250565b6000611a5b6010836117a5565b9150611a6682611a25565b602082019050919050565b60006020820190508181036000830152611a8a81611a4e565b9050919050565b6000819050919050565b6000819050919050565b6000611ac0611abb611ab684611a91565b611a9b565b611123565b9050919050565b611ad081611aa5565b82525050565b600082825260208201905092915050565b7f3078300000000000000000000000000000000000000000000000000000000000600082015250565b6000611b1d600383611ad6565b9150611b2882611ae7565b602082019050919050565b600060a082019050611b486000830187611476565b611b556020830186611476565b611b626040830185611ac7565b611b6f606083018461122d565b8181036080830152611b8081611b10565b905095945050505050565b6000608082019050611ba06000830187611476565b611bad6020830186611476565b611bba604083018561122d565b611bc7606083018461122d565b95945050505050565b7f496e73756666696369656e7420737570706c7900000000000000000000000000600082015250565b6000611c066013836117a5565b9150611c1182611bd0565b602082019050919050565b60006020820190508181036000830152611c3581611bf9565b9050919050565b6000604082019050611c51600083018561122d565b611c5e602083018461122d565b9392505050565b6000608082019050611c7a6000830186611476565b611c876020830185611ac7565b611c94604083018461122d565b8181036060830152611ca581611b10565b9050949350505050565b6000606082019050611cc46000830186611476565b611cd1602083018561122d565b611cde604083018461122d565b949350505050565b7f4f776e61626c653a206e6577206f776e657220697320746865207a65726f206160008201527f6464726573730000000000000000000000000000000000000000000000000000602082015250565b6000611d426026836117a5565b9150611d4d82611ce6565b604082019050919050565b60006020820190508181036000830152611d7181611d35565b9050919050565b7f4f776e61626c653a2063616c6c6572206973206e6f7420746865206f776e6572600082015250565b6000611dae6020836117a5565b9150611db982611d78565b602082019050919050565b60006020820190508181036000830152611ddd81611da1565b9050919050565b6000611def82611123565b91507fffffffffffffffffffffffffffffffffffffffffffffffffffffffffffffffff8203611e2157611e20611822565b5b600182019050919050565b600081519050919050565b6000611e4282611e2c565b611e4c81856117a5565b9350611e5c81856020860161161e565b611e6581611561565b840191505092915050565b60006040820190508181036000830152611e8a8185611e37565b9050611e99602083018461122d565b939250505056fea26469706673582212206540015b4b5a9a5e6932fe3316737c2c8571a8e48ace9de87d2e2ba7036997d764736f6c63430008120033",
  "linkReferences": {},
  "deployedLinkReferences": {}
}