{
  "_format": "hh-sol-artifact-1",
  "contractName": "QapturLandMarketplace",
  "sourceName": "contracts/QapturLandMarketplace.sol",
  "abi": [
    {
      "inputs": [
        {
          "internalType": "address",
          "name": "_stateContractAddr",
          "type": "address"
        },
        {
          "internalType": "address",
          "name": "_erc20StableAddr",
          "type": "address"
        },
        {
          "internalType": "address",
          "name": "_projectWallet",
          "type": "address"
        }
      ],
      "stateMutability": "nonpayable",
      "type": "constructor"
    },
    {
      "anonymous": false,
      "inputs": [
        {
          "indexed": false,
          "internalType": "address",
          "name": "buyer",
          "type": "address"
        },
        {
          "indexed": false,
          "internalType": "uint256",
          "name": "projectId",
          "type": "uint256"
        },
        {
          "indexed": false,
          "internalType": "uint256",
          "name": "amount",
          "type": "uint256"
        }
      ],
      "name": "BoughtFromInitialSupply",
      "type": "event"
    },
    {
      "anonymous": false,
      "inputs": [
        {
          "indexed": false,
          "internalType": "address",
          "name": "seller",
          "type": "address"
        },
        {
          "indexed": false,
          "internalType": "address",
          "name": "buyer",
          "type": "address"
        },
        {
          "indexed": false,
          "internalType": "uint256",
          "name": "projectId",
          "type": "uint256"
        },
        {
          "indexed": false,
          "internalType": "uint256",
          "name": "amount",
          "type": "uint256"
        }
      ],
      "name": "BoughtOnMarketplace",
      "type": "event"
    },
    {
      "anonymous": false,
      "inputs": [
        {
          "indexed": false,
          "internalType": "address",
          "name": "seller",
          "type": "address"
        },
        {
          "indexed": false,
          "internalType": "uint256",
          "name": "projectId",
          "type": "uint256"
        },
        {
          "indexed": false,
          "internalType": "uint256",
          "name": "amount",
          "type": "uint256"
        },
        {
          "indexed": false,
          "internalType": "uint256",
          "name": "price",
          "type": "uint256"
        }
      ],
      "name": "ItemAddedToMarketplace",
      "type": "event"
    },
    {
      "anonymous": false,
      "inputs": [
        {
          "indexed": true,
          "internalType": "address",
          "name": "previousOwner",
          "type": "address"
        },
        {
          "indexed": true,
          "internalType": "address",
          "name": "newOwner",
          "type": "address"
        }
      ],
      "name": "OwnershipTransferred",
      "type": "event"
    },
    {
      "inputs": [
        {
          "internalType": "uint256",
          "name": "_projectId",
          "type": "uint256"
        },
        {
          "internalType": "uint256",
          "name": "_tokenAmount",
          "type": "uint256"
        },
        {
          "internalType": "uint256",
          "name": "_tokenPrice",
          "type": "uint256"
        }
      ],
      "name": "addItemToMarketplace",
      "outputs": [],
      "stateMutability": "nonpayable",
      "type": "function"
    },
    {
      "inputs": [
        {
          "internalType": "uint256",
          "name": "_projectId",
          "type": "uint256"
        },
        {
          "internalType": "uint256",
          "name": "_tokenAmount",
          "type": "uint256"
        }
      ],
      "name": "buyFromInitialSupply",
      "outputs": [],
      "stateMutability": "nonpayable",
      "type": "function"
    },
    {
      "inputs": [
        {
          "internalType": "address",
          "name": "_seller",
          "type": "address"
        },
        {
          "internalType": "uint256",
          "name": "_projectId",
          "type": "uint256"
        },
        {
          "internalType": "uint256",
          "name": "_tokenAmount",
          "type": "uint256"
        },
        {
          "internalType": "uint256",
          "name": "_price",
          "type": "uint256"
        }
      ],
      "name": "buyFromMarketplace",
      "outputs": [],
      "stateMutability": "nonpayable",
      "type": "function"
    },
    {
      "inputs": [
        {
          "internalType": "uint256",
          "name": "_projetId",
          "type": "uint256"
        }
      ],
      "name": "getProjectItemsOnSale",
      "outputs": [
        {
          "components": [
            {
              "internalType": "address payable",
              "name": "seller",
              "type": "address"
            },
            {
              "internalType": "uint256",
              "name": "amount",
              "type": "uint256"
            },
            {
              "internalType": "uint256",
              "name": "price",
              "type": "uint256"
            }
          ],
          "internalType": "struct QapturLandMarketplace.OnSaleToken[]",
          "name": "",
          "type": "tuple[]"
        }
      ],
      "stateMutability": "view",
      "type": "function"
    },
    {
      "inputs": [],
      "name": "owner",
      "outputs": [
        {
          "internalType": "address",
          "name": "",
          "type": "address"
        }
      ],
      "stateMutability": "view",
      "type": "function"
    },
    {
      "inputs": [],
      "name": "renounceOwnership",
      "outputs": [],
      "stateMutability": "nonpayable",
      "type": "function"
    },
    {
      "inputs": [
        {
          "internalType": "address",
          "name": "newOwner",
          "type": "address"
        }
      ],
      "name": "transferOwnership",
      "outputs": [],
      "stateMutability": "nonpayable",
      "type": "function"
    }
  ],
  "bytecode": "0x60806040523480156200001157600080fd5b506040516200229b3803806200229b833981810160405281019062000037919062000259565b620000576200004b6200012360201b60201c565b6200012b60201b60201c565b82600160006101000a81548173ffffffffffffffffffffffffffffffffffffffff021916908373ffffffffffffffffffffffffffffffffffffffff16021790555081600260006101000a81548173ffffffffffffffffffffffffffffffffffffffff021916908373ffffffffffffffffffffffffffffffffffffffff16021790555080600360006101000a81548173ffffffffffffffffffffffffffffffffffffffff021916908373ffffffffffffffffffffffffffffffffffffffff160217905550505050620002b5565b600033905090565b60008060009054906101000a900473ffffffffffffffffffffffffffffffffffffffff169050816000806101000a81548173ffffffffffffffffffffffffffffffffffffffff021916908373ffffffffffffffffffffffffffffffffffffffff1602179055508173ffffffffffffffffffffffffffffffffffffffff168173ffffffffffffffffffffffffffffffffffffffff167f8be0079c531659141344cd1fd0a4f28419497f9722a3daafe3b4186f6b6457e060405160405180910390a35050565b600080fd5b600073ffffffffffffffffffffffffffffffffffffffff82169050919050565b60006200022182620001f4565b9050919050565b620002338162000214565b81146200023f57600080fd5b50565b600081519050620002538162000228565b92915050565b600080600060608486031215620002755762000274620001ef565b5b6000620002858682870162000242565b9350506020620002988682870162000242565b9250506040620002ab8682870162000242565b9150509250925092565b611fd680620002c56000396000f3fe608060405234801561001057600080fd5b506004361061007d5760003560e01c806383f190be1161005b57806383f190be146100d85780638da5cb5b146100f4578063dd0d97eb14610112578063f2fde38b1461012e5761007d565b80633b40cfc514610082578063715018a61461009e578063739952e1146100a8575b600080fd5b61009c60048036038101906100979190611212565b61014a565b005b6100a66103c6565b005b6100c260048036038101906100bd9190611265565b6103da565b6040516100cf91906113d3565b60405180910390f35b6100f260048036038101906100ed9190611433565b6104b6565b005b6100fc6109cf565b60405161010991906114a9565b60405180910390f35b61012c600480360381019061012791906114c4565b6109f8565b005b61014860048036038101906101439190611504565b610df3565b005b6000600160009054906101000a900473ffffffffffffffffffffffffffffffffffffffff1673ffffffffffffffffffffffffffffffffffffffff1663107046bd856040518263ffffffff1660e01b81526004016101a79190611540565b600060405180830381865afa1580156101c4573d6000803e3d6000fd5b505050506040513d6000823e3d601f19601f820116820180604052508101906101ed91906116e6565b50505050505090506000819050838173ffffffffffffffffffffffffffffffffffffffff1662fdd58e3360006040518363ffffffff1660e01b81526004016102369291906117e9565b602060405180830381865afa158015610253573d6000803e3d6000fd5b505050506040513d601f19601f820116820180604052508101906102779190611812565b10156102b8576040517f08c379a00000000000000000000000000000000000000000000000000000000081526004016102af9061189c565b60405180910390fd5b6005600086815260200190815260200160002060405180606001604052803373ffffffffffffffffffffffffffffffffffffffff16815260200186815260200185815250908060018154018082558091505060019003906000526020600020906003020160009091909190915060008201518160000160006101000a81548173ffffffffffffffffffffffffffffffffffffffff021916908373ffffffffffffffffffffffffffffffffffffffff160217905550602082015181600101556040820151816002015550507fb0ae07191c7f184a346db81754a440a79cacf53ca2df649330f21162b3d01de7338686866040516103b794939291906118bc565b60405180910390a15050505050565b6103ce610e76565b6103d86000610ef4565b565b606060056000838152602001908152602001600020805480602002602001604051908101604052809291908181526020016000905b828210156104ab57838290600052602060002090600302016040518060600160405290816000820160009054906101000a900473ffffffffffffffffffffffffffffffffffffffff1673ffffffffffffffffffffffffffffffffffffffff1673ffffffffffffffffffffffffffffffffffffffff168152602001600182015481526020016002820154815250508152602001906001019061040f565b505050509050919050565b6000600160009054906101000a900473ffffffffffffffffffffffffffffffffffffffff1673ffffffffffffffffffffffffffffffffffffffff1663107046bd856040518263ffffffff1660e01b81526004016105139190611540565b600060405180830381865afa158015610530573d6000803e3d6000fd5b505050506040513d6000823e3d601f19601f8201168201806040525081019061055991906116e6565b50505050505090506000819050838173ffffffffffffffffffffffffffffffffffffffff1662fdd58e8860006040518363ffffffff1660e01b81526004016105a29291906117e9565b602060405180830381865afa1580156105bf573d6000803e3d6000fd5b505050506040513d601f19601f820116820180604052508101906105e39190611812565b1015610624576040517f08c379a000000000000000000000000000000000000000000000000000000000815260040161061b9061189c565b60405180910390fd5b6000610631868886610fb8565b9050600060056000888152602001908152602001600020828154811061065a57610659611901565b5b9060005260206000209060030201600101549050858110156106b1576040517f08c379a00000000000000000000000000000000000000000000000000000000081526004016106a89061197c565b60405180910390fd5b6106c7878388846106c291906119cb565b611105565b600085876106d591906119ff565b905080600260009054906101000a900473ffffffffffffffffffffffffffffffffffffffff1673ffffffffffffffffffffffffffffffffffffffff1663dd62ed3e33306040518363ffffffff1660e01b8152600401610735929190611a41565b602060405180830381865afa158015610752573d6000803e3d6000fd5b505050506040513d601f19601f820116820180604052508101906107769190611812565b10156107b7576040517f08c379a00000000000000000000000000000000000000000000000000000000081526004016107ae90611ab6565b60405180910390fd5b600260009054906101000a900473ffffffffffffffffffffffffffffffffffffffff1673ffffffffffffffffffffffffffffffffffffffff166323b872dd338b846040518463ffffffff1660e01b815260040161081693929190611ad6565b6020604051808303816000875af1158015610835573d6000803e3d6000fd5b505050506040513d601f19601f820116820180604052508101906108599190611b45565b508373ffffffffffffffffffffffffffffffffffffffff1663e985e9c58a306040518363ffffffff1660e01b8152600401610895929190611a41565b602060405180830381865afa1580156108b2573d6000803e3d6000fd5b505050506040513d601f19601f820116820180604052508101906108d69190611b45565b610915576040517f08c379a000000000000000000000000000000000000000000000000000000000815260040161090c90611bbe565b60405180910390fd5b8373ffffffffffffffffffffffffffffffffffffffff1663f242432a8a3360008b6040518563ffffffff1660e01b81526004016109559493929190611c3b565b600060405180830381600087803b15801561096f57600080fd5b505af1158015610983573d6000803e3d6000fd5b505050507f35e8eaeee3721465d28a902507569dd7f16551cb5fb043860c4f69d7e8f64a2089338a8a6040516109bc9493929190611c93565b60405180910390a1505050505050505050565b60008060009054906101000a900473ffffffffffffffffffffffffffffffffffffffff16905090565b6000806000600160009054906101000a900473ffffffffffffffffffffffffffffffffffffffff1673ffffffffffffffffffffffffffffffffffffffff1663107046bd866040518263ffffffff1660e01b8152600401610a589190611540565b600060405180830381865afa158015610a75573d6000803e3d6000fd5b505050506040513d6000823e3d601f19601f82011682018060405250810190610a9e91906116e6565b5050945094505050925083821015610aeb576040517f08c379a0000000000000000000000000000000000000000000000000000000008152600401610ae290611d24565b60405180910390fd5b600160009054906101000a900473ffffffffffffffffffffffffffffffffffffffff1673ffffffffffffffffffffffffffffffffffffffff166385ac7381868685610b3691906119cb565b6040518363ffffffff1660e01b8152600401610b53929190611d44565b600060405180830381600087803b158015610b6d57600080fd5b505af1158015610b81573d6000803e3d6000fd5b5050505060008185610b9391906119ff565b905080600260009054906101000a900473ffffffffffffffffffffffffffffffffffffffff1673ffffffffffffffffffffffffffffffffffffffff1663dd62ed3e33306040518363ffffffff1660e01b8152600401610bf3929190611a41565b602060405180830381865afa158015610c10573d6000803e3d6000fd5b505050506040513d601f19601f82011682018060405250810190610c349190611812565b1015610c75576040517f08c379a0000000000000000000000000000000000000000000000000000000008152600401610c6c90611ab6565b60405180910390fd5b600260009054906101000a900473ffffffffffffffffffffffffffffffffffffffff1673ffffffffffffffffffffffffffffffffffffffff166323b872dd33600360009054906101000a900473ffffffffffffffffffffffffffffffffffffffff16846040518463ffffffff1660e01b8152600401610cf693929190611ad6565b6020604051808303816000875af1158015610d15573d6000803e3d6000fd5b505050506040513d601f19601f82011682018060405250810190610d399190611b45565b5060008490508073ffffffffffffffffffffffffffffffffffffffff1663731133e9336000896040518463ffffffff1660e01b8152600401610d7d93929190611d6d565b600060405180830381600087803b158015610d9757600080fd5b505af1158015610dab573d6000803e3d6000fd5b505050507f1f0cd4ea7e1fb87326974cdcb1e3aec41ffeeb234553989f6b1c8732c0f23092338888604051610de293929190611db7565b60405180910390a150505050505050565b610dfb610e76565b600073ffffffffffffffffffffffffffffffffffffffff168173ffffffffffffffffffffffffffffffffffffffff1603610e6a576040517f08c379a0000000000000000000000000000000000000000000000000000000008152600401610e6190611e60565b60405180910390fd5b610e7381610ef4565b50565b610e7e6111c0565b73ffffffffffffffffffffffffffffffffffffffff16610e9c6109cf565b73ffffffffffffffffffffffffffffffffffffffff1614610ef2576040517f08c379a0000000000000000000000000000000000000000000000000000000008152600401610ee990611ecc565b60405180910390fd5b565b60008060009054906101000a900473ffffffffffffffffffffffffffffffffffffffff169050816000806101000a81548173ffffffffffffffffffffffffffffffffffffffff021916908373ffffffffffffffffffffffffffffffffffffffff1602179055508173ffffffffffffffffffffffffffffffffffffffff168173ffffffffffffffffffffffffffffffffffffffff167f8be0079c531659141344cd1fd0a4f28419497f9722a3daafe3b4186f6b6457e060405160405180910390a35050565b6000805b6005600060018152602001908152602001600020805490508110156110c2578373ffffffffffffffffffffffffffffffffffffffff1660056000878152602001908152602001600020828154811061101757611016611901565b5b906000526020600020906003020160000160009054906101000a900473ffffffffffffffffffffffffffffffffffffffff1673ffffffffffffffffffffffffffffffffffffffff161480156110a157508260056000878152602001908152602001600020828154811061108d5761108c611901565b5b906000526020600020906003020160020154145b156110af57809150506110fe565b80806110ba90611eec565b915050610fbc565b506040517f08c379a00000000000000000000000000000000000000000000000000000000081526004016110f590611f80565b60405180910390fd5b9392505050565b6000810361117f5760056000848152602001908152602001600020828154811061113257611131611901565b5b9060005260206000209060030201600080820160006101000a81549073ffffffffffffffffffffffffffffffffffffffff02191690556001820160009055600282016000905550506111bb565b806005600085815260200190815260200160002083815481106111a5576111a4611901565b5b9060005260206000209060030201600101819055505b505050565b600033905090565b6000604051905090565b600080fd5b600080fd5b6000819050919050565b6111ef816111dc565b81146111fa57600080fd5b50565b60008135905061120c816111e6565b92915050565b60008060006060848603121561122b5761122a6111d2565b5b6000611239868287016111fd565b935050602061124a868287016111fd565b925050604061125b868287016111fd565b9150509250925092565b60006020828403121561127b5761127a6111d2565b5b6000611289848285016111fd565b91505092915050565b600081519050919050565b600082825260208201905092915050565b6000819050602082019050919050565b600073ffffffffffffffffffffffffffffffffffffffff82169050919050565b60006112e9826112be565b9050919050565b6112f9816112de565b82525050565b611308816111dc565b82525050565b60608201600082015161132460008501826112f0565b50602082015161133760208501826112ff565b50604082015161134a60408501826112ff565b50505050565b600061135c838361130e565b60608301905092915050565b6000602082019050919050565b600061138082611292565b61138a818561129d565b9350611395836112ae565b8060005b838110156113c65781516113ad8882611350565b97506113b883611368565b925050600181019050611399565b5085935050505092915050565b600060208201905081810360008301526113ed8184611375565b905092915050565b6000611400826112be565b9050919050565b611410816113f5565b811461141b57600080fd5b50565b60008135905061142d81611407565b92915050565b6000806000806080858703121561144d5761144c6111d2565b5b600061145b8782880161141e565b945050602061146c878288016111fd565b935050604061147d878288016111fd565b925050606061148e878288016111fd565b91505092959194509250565b6114a3816113f5565b82525050565b60006020820190506114be600083018461149a565b92915050565b600080604083850312156114db576114da6111d2565b5b60006114e9858286016111fd565b92505060206114fa858286016111fd565b9150509250929050565b60006020828403121561151a576115196111d2565b5b60006115288482850161141e565b91505092915050565b61153a816111dc565b82525050565b60006020820190506115556000830184611531565b92915050565b60008151905061156a81611407565b92915050565b60008151905061157f816111e6565b92915050565b600080fd5b600080fd5b6000601f19601f8301169050919050565b7f4e487b7100000000000000000000000000000000000000000000000000000000600052604160045260246000fd5b6115d88261158f565b810181811067ffffffffffffffff821117156115f7576115f66115a0565b5b80604052505050565b600061160a6111c8565b905061161682826115cf565b919050565b600067ffffffffffffffff821115611636576116356115a0565b5b61163f8261158f565b9050602081019050919050565b60005b8381101561166a57808201518184015260208101905061164f565b60008484015250505050565b60006116896116848461161b565b611600565b9050828152602081018484840111156116a5576116a461158a565b5b6116b084828561164c565b509392505050565b600082601f8301126116cd576116cc611585565b5b81516116dd848260208601611676565b91505092915050565b600080600080600080600060e0888a031215611705576117046111d2565b5b60006117138a828b0161155b565b97505060206117248a828b0161155b565b96505060406117358a828b01611570565b95505060606117468a828b01611570565b94505060806117578a828b01611570565b93505060a06117688a828b01611570565b92505060c088015167ffffffffffffffff811115611789576117886111d7565b5b6117958a828b016116b8565b91505092959891949750929550565b6000819050919050565b6000819050919050565b60006117d36117ce6117c9846117a4565b6117ae565b6111dc565b9050919050565b6117e3816117b8565b82525050565b60006040820190506117fe600083018561149a565b61180b60208301846117da565b9392505050565b600060208284031215611828576118276111d2565b5b600061183684828501611570565b91505092915050565b600082825260208201905092915050565b7f496e73756666696369656e742073656c6c65722062616c616e63650000000000600082015250565b6000611886601b8361183f565b915061189182611850565b602082019050919050565b600060208201905081810360008301526118b581611879565b9050919050565b60006080820190506118d1600083018761149a565b6118de6020830186611531565b6118eb6040830185611531565b6118f86060830184611531565b95945050505050565b7f4e487b7100000000000000000000000000000000000000000000000000000000600052603260045260246000fd5b7f526571756573746564207175616e74697479206e6f7420617661696c61626c65600082015250565b600061196660208361183f565b915061197182611930565b602082019050919050565b6000602082019050818103600083015261199581611959565b9050919050565b7f4e487b7100000000000000000000000000000000000000000000000000000000600052601160045260246000fd5b60006119d6826111dc565b91506119e1836111dc565b92508282039050818111156119f9576119f861199c565b5b92915050565b6000611a0a826111dc565b9150611a15836111dc565b9250828202611a23816111dc565b91508282048414831517611a3a57611a3961199c565b5b5092915050565b6000604082019050611a56600083018561149a565b611a63602083018461149a565b9392505050565b7f496e73756666696369656e7420616c6c6f77616e636500000000000000000000600082015250565b6000611aa060168361183f565b9150611aab82611a6a565b602082019050919050565b60006020820190508181036000830152611acf81611a93565b9050919050565b6000606082019050611aeb600083018661149a565b611af8602083018561149a565b611b056040830184611531565b949350505050565b60008115159050919050565b611b2281611b0d565b8114611b2d57600080fd5b50565b600081519050611b3f81611b19565b92915050565b600060208284031215611b5b57611b5a6111d2565b5b6000611b6984828501611b30565b91505092915050565b7f4d697373696e6720617070726f76616c00000000000000000000000000000000600082015250565b6000611ba860108361183f565b9150611bb382611b72565b602082019050919050565b60006020820190508181036000830152611bd781611b9b565b9050919050565b600082825260208201905092915050565b7f3078300000000000000000000000000000000000000000000000000000000000600082015250565b6000611c25600383611bde565b9150611c3082611bef565b602082019050919050565b600060a082019050611c50600083018761149a565b611c5d602083018661149a565b611c6a60408301856117da565b611c776060830184611531565b8181036080830152611c8881611c18565b905095945050505050565b6000608082019050611ca8600083018761149a565b611cb5602083018661149a565b611cc26040830185611531565b611ccf6060830184611531565b95945050505050565b7f496e73756666696369656e7420737570706c7900000000000000000000000000600082015250565b6000611d0e60138361183f565b9150611d1982611cd8565b602082019050919050565b60006020820190508181036000830152611d3d81611d01565b9050919050565b6000604082019050611d596000830185611531565b611d666020830184611531565b9392505050565b6000608082019050611d82600083018661149a565b611d8f60208301856117da565b611d9c6040830184611531565b8181036060830152611dad81611c18565b9050949350505050565b6000606082019050611dcc600083018661149a565b611dd96020830185611531565b611de66040830184611531565b949350505050565b7f4f776e61626c653a206e6577206f776e657220697320746865207a65726f206160008201527f6464726573730000000000000000000000000000000000000000000000000000602082015250565b6000611e4a60268361183f565b9150611e5582611dee565b604082019050919050565b60006020820190508181036000830152611e7981611e3d565b9050919050565b7f4f776e61626c653a2063616c6c6572206973206e6f7420746865206f776e6572600082015250565b6000611eb660208361183f565b9150611ec182611e80565b602082019050919050565b60006020820190508181036000830152611ee581611ea9565b9050919050565b6000611ef7826111dc565b91507fffffffffffffffffffffffffffffffffffffffffffffffffffffffffffffffff8203611f2957611f2861199c565b5b600182019050919050565b7f496e646578206e6f7420666f756e640000000000000000000000000000000000600082015250565b6000611f6a600f8361183f565b9150611f7582611f34565b602082019050919050565b60006020820190508181036000830152611f9981611f5d565b905091905056fea2646970667358221220c666951f7956adfde468df1dd4d4306e23c65c5ef134f59db91fc68273d3612f64736f6c63430008120033",
  "linkReferences": {},
  "deployedLinkReferences": {}
}